:020000040000FA
:0600000002008D024DFE1E
:01000B0032C2
:0100130032BA
:03001B0002548903
:0100230032AA
:03002B0002378118
:01003300329A
:01003B003292
:0300430002425E18
:03004B0002416A05
:03005300024172F5
:03005B0002417DE2
:030063000241C691
:03006B000240321E
:030073000255062D
:03007B000240B789
:03008300024AFF2F
:0300F00002008685
:050086001200F380FEF2
:0D00F300123DC343FD3053FDF3438F0390D6
:0E010000C20075F001E4124E581263A37401A0
:0E010E00C0E0758204121DD4AA82AB83ACF04F
:0E011C00158190E000EAF0A3EBF0A3ECF0E414
:0E012A00C0E0C0E0C0E07401C0E0E4C0E0C08E
:0C013800E0C0E074DCC0E0E4C0E074AFA4
:0B014400C0E07476C0E07480C0E09062
:0E014F000192120BE0E58124F4F581E4C0E09A
:0E015D00C0E0C0E07402C0E0E4C0E0C0E0C05A
:0C016B00E074DCC0E0E4C0E074B3C0E06D
:0C0177007476C0E07480C0E09005531264
:0E0183000BE0E58124F4F5811211C19000001B
:01019100224B
:0A019200C010E581F510240AF58184
:0A019C00A810087600A8100808E477
:0C01A600F608F6E5102404F8E4F608F66C
:0C01B200E5102406F8760090E00374329B
:0E01BE00F0E4A3F090E0057464F0E4A3F09088
:0C01CC0000191210D49000321210D490D0
:0501D80076BA124E6131
:0C01DD00AB100B7C007D4090E000E0FEC9
:0E01E900A3E0FFA3E0FA74FAC0E0E4C0E0C0B7
:0E01F70003C004C0058E828F838AF01225B1EA
:0D020500AA82E58124FBF581E4BA01010421
:0502120070030204CCA2
:08021700A81008B60102801DC9
:09021F00A81008B602030202C493
:08022800A81008B68102800C49
:09023000A81008B682030202C402
:030239000204A715
:07023C009076E1124E61E52E
:0C024300102402FB7C007D40C003C004BE
:0E024F00C005758201120B97AB8215811581D7
:0C025D001581EB7049A810080886030802
:0E02690086047D007E00C003C004C005C006F0
:0D0277007582001263F7E58124FCF581A873
:0C0284001008088603088604C003C004AC
:0E029000740AC0E0758206124E9C158115811D
:0D029E00158190E003741EF0E4A3F08010C1
:0702AB009076FD124E6190F8
:0902B200E003742CF0A37401F0C8
:0702BB00907705124E61026D
:0202C20004C274
:0702C400907708124E61E57E
:0C02CB00102404FB7C007D40C003C00434
:0E02D700C005758200120B97AB821581158150
:0802E5001581EB6003020485A2
:0C02ED00E5102404F88603088604E4FDF4
:0E02F900FE7404C0E0E4C0E0C0E0C0E08B8210
:0C0307008C838DF0EE125CA6A810080894
:0E0313000808080808A68208A68308A6F008B5
:0C032100F6E58124FCF581E5102407F8C6
:0E032D008603088604088605088606C003C0FD
:0E033B0004C005C006905F64E4F5F01260B0E7
:0C034900A81008080808080808A6820888
:0E035500A68308A6F008F6E58124FCF581E5F4
:0C036300102407F88603088604088605AD
:0E036F000886067410C0E07427C0E0E4C0E009
:0D037D00C0E08B828C838DF0EE125CA6A890
:0C038A001008080808080808A68208A649
:0D0396008308A6F008F6E58124FCF581E55A
:0C03A300102407F886030886040886056D
:0E03AF00088606EB247FFBEC34E5FCED34FF02
:0C03BD00EE34FFE5102404F8A60308A6A7
:0C03C900047464C0E0E4C0E0E51024040B
:0E03D500F88682088683125944AB82AC8315E9
:0E03E300811581C003C004740AC0E075820653
:0D03F100124E9C15811581158175822E120A
:0C03FE004E5E7464C0E0E4C0E0E5102432
:0E040A0004F88682088683126294AB82AC836B
:0E04180015811581C3EB940AEC94004016C0C8
:0E04260003C004740AC0E0758202124E9C15D9
:070434008115811581801480
:0E043B00C003C0047410C0E0758202124E9C13
:06044900158115811581EB
:0E044F0090E003741EF0E4A3F090E005741E2C
:0C045D00F0E4A3F0E5102404F886030886
:0E04690086047D007E00C003C004C005C006EE
:0E0477007582011263F7E58124FCF581801A7D
:070485009076FD124E61901C
:0E048C00E003742CF0A37401F090E005742CD2
:05049A00F0A37401F065
:08049F00907705124E61801BED
:0C04A700A8100886037C00C003C0047489
:0E04B30010C0E0758202124E9C158115811555
:0104C10081B9
:0A04C200E5102406F876000201DDC3
:0A04CC00E5102406F88603E510246D
:0604D60006F806BB02005F
:0504DC0050030201DDE8
:0A04E100E5102406F87600A81008C4
:0C04EB007601AB100B7C007D4090E0001F
:0E04F700E0FEA3E0FFA3E0FAE4C0E0C0E0C036
:0E05050003C004C0058E828F838AF012203559
:0C051300E58124FBF581A810087602AAFF
:0C051F00100A7B007C4090E000E0FDA38F
:0E052B00E0FEA3E0FFE4C0E0C0E0C002C003B9
:0E053900C0048D828E838FF0122035E5812460
:0A054700FBF5810201DD851081D073
:02055100102276
:0A055300C010E581F5102415F581B4
:0C055D00A810080876007B0053FD3F90BA
:0E0569000064C0031210D490000012644BAC6A
:0E05770082AD83AEF090E0A8ECF0A3EDF0A30F
:07058500EEF012649FD003A9
:0E058C0090F909E0FC702690F90AE0FC701F5F
:0E059A00C28490F90A7401F0C003121419E52E
:0D05A800828583F090E0ABF0A3E5F0F01247
:0405B50064F3D00318
:0E05B900900005E4F5F0C003124E5BAC82AD7D
:0C05C70083D003BCFF06BDFF03020790B9
:0905D300BC0D06BD000302068602
:0805DC00BC3105BD00028026C0
:0805E400BC3205BD0002805C81
:0905EC00BC6D06BD00030206937C
:0905F500BC7006BD00030206CA39
:0905FE00BC7506BD000302072ACA
:0306070002078760
:0A060A00C003A810087601AE100E20
:0E0614008E047D007F4090E000E0FAA3E0FB42
:0E062200A3E0FEC003E4C0E0C0E0C004C005D9
:0E063000C0078A828B838EF0122035E581246C
:0A063E00FBF581D003D00302079002
:0A064800C003A810087602AA100AE9
:0E0652008A047D007F4090E000E0FBA3E0FA08
:0E066000A3E0FEC003E4C0E0C0E0C004C0059B
:0E066E00C0078B828A838EF0122035E581242E
:0A067C00FBF581D003D003020790C4
:0B068600907705C003124E61D0030204
:020691000790D0
:0C069300E5102403FA7E007F408A828E6E
:0C069F00838FF0C00312492F90771C12CB
:0C06AB004E61E5102403FA7E007F408AB7
:0C06B700828E838FF01250CF90770512D6
:0706C3004E61D00302079015
:0A06CA0090F906E0FA6003020790C1
:0C06D40090E0A7E4F0C0037407C0E074DD
:0C06E000E0C0E0E4C0E090000075F00015
:0E06EC00126547AA82158115811581D003BAC7
:0D06FA000122C003121419E5828583F090DF
:0E070700F907F0A3E5F0F090F9067402F09007
:090715007722124E61D0038072BC
:0C071E00907729C003124E61D003806662
:0E072A0090F906E0FA705F90E0A7E4F0C003DB
:0A0738007407C0E074E0C0E0E4C004
:0E074200E090000075F00012659BAA82158100
:0E07500015811581D003BA0122C003121419BD
:0E075E00E5828583F090F907F0A3E5F0F090B6
:09076C00F9067401F090773612D1
:060775004E61D003801567
:0C077B00907729C003124E61D003800962
:090787008C82C003124E5ED00307
:0C079000308658A8100808E624FA5047EC
:0A079C00A810087601A8100808B69E
:0207A6006400ED
:0707A8004005A8100876814E
:0C07AF00C003AA100A7C007D4090E0000E
:0E07BB00E0FEA3E0FFA3E0FBC003E4C0E0C04B
:0E07C900E0C002C004C0058E828F838BF01248
:0C07D7002035E58124FBF581D003D00320
:0807E300A81008087600800E42
:0707EB00A8100808B6640025
:0707F2005005A810080806DD
:0C07F900308746EB24FA503DA81008762B
:0408050002BB6400CE
:070809004005A810087682EB
:0C081000AA100A8A037C007D4090E000E2
:0E081C00E0FEA3E0FFA3E0FAE4C0E0C0E0C00D
:0E082A0003C004C0058E828F838AF012203531
:06083800E58124FBF581BF
:04083E007B008006B5
:03084200BB640094
:0308450050010B54
:0E08480090E003E0FAA3E0FC4A60111ABAFF48
:02085600011C83
:0C08580090E003EAF0A3ECF0D2848002F0
:02086400C2844C
:0E08660090E005E0FAA3E0FC4A60111ABAFF28
:02087400011C65
:0C08760090E005EAF0A3ECF0D2858002CF
:02088200C2852D
:070884007A003084027A01C2
:06088B0030850343020268
:0E0891007C007D007E00C003C002C004C005D4
:0E089F00C0067582031263F7E58124FCF58123
:0E08AD00121419AA82AC83D00390F907E0FD63
:0E08BB00A3E0FEEAC39DFAEC9EFCE4FDFEEA1B
:0E08C9002AFAEC33FCED33FDEE33FEC374E887
:0D08D7009A74039CE49DE49E40030209CB4B
:0A08E40090F906E0FA70030209CB58
:0908EE00907747C003124E61121D
:0B08F70065EFD00390E0A7E070030263
:0209020009BC2E
:0C090400907757C003124E61D0037A00B8
:0D09100090E0A7E0FCC3EA9C40030209B59B
:0A091D00EAC454F0FC2407FDE434A2
:0C092700E0FE7F008D828E838FF0C00206
:0B093300C003C0041250CF9077641284
:0A093E004E61D004EC2407FDE43400
:0C094800E0FE740F2DF582E43EF583E024
:0E095400FD3395E0FEC004C005C006740AC065
:0E096200E0758206124E9C158115811581905C
:090970007766124E61D004EC24FC
:0A09790007FCE434E0FD740D2CF5DA
:0E09830082E43DF583E0FCA3E0FDC004C00566
:0E099100740AC0E0758206124E9C1581158115
:0C099F00158190776D124E6190000412DB
:0A09AB0010D4D003D0020A02091094
:0709B50090E0A7E4F0800AC6
:0A09BC00907773C003124E61D00360
:0509C60090F906E4F0C9
:0E09CB0090E0A8E0FAA3E0FCA3E0FDEA4C4DAA
:0509D9007003020B3168
:0E09DE0090000AC003126643AA82AC83ADF0FB
:0C09EC00D003E5102410F8A60208A604B1
:0C09F80008A605E5102410F8E6084608E3
:060A0400467003020B31F5
:0C0A0A00E5102410F88682088683088618
:0E0A1600F0C003126697AE82D003BE02030248
:020A24000AA620
:050A2600BE0602800382
:030A2B00020B11AA
:0C0A2E00C003E5102410F8740326FEE459
:0C0A3A000836FF088603E5102413F8744A
:0E0A46000B2EF6E43F08F608A60390F8E5E054
:0C0A5400FAA3E0FCE5102413F8868208E9
:0E0A600086830886F0EA125996A3EC12599686
:050A6E000EBE00010FA7
:0E0A73007408C0E0E4C0E0C006C007C00390F5
:0E0A8100F8DB75F000125BE9AA82AB83E58119
:0E0A8F0024FBF581EA4BD003707890F909E45E
:090A9D00F090F8DAF0C284806BDD
:0E0AA60090F90AE4F090F909E0FA705FC003DD
:0C0AB400E5102410F8741026FAE408364F
:0E0AC000FC08860574012AFEE43CFF8D03C08D
:0E0ACE0002C003C004C0057408C0E0E4C0E02C
:0D0ADC00C006C007C00390F8DB75F00012E3
:0E0AE9005EA6E58124FBF581D005D004D00384
:0D0AF700D0028A828C838DF0126013FA9079
:0D0B0400F8DAF090F9097401F0D284D00302
:0C0B1100E5102410F8E6084608466014C1
:0C0B1D00E5102410F88682088683088604
:080B2900F0C0031266EBD003DB
:0A0B310090F90AE0FABA010280030D
:030B3B0002058C24
:0E0B3E00C003121419AA82AC83D00390E0AB5E
:0E0B4C00E0FDA3E0FEEAC39DFAEC9EFCE4FD92
:0E0B5A00FEEA2AFAEC33FCED33FDEE33FEC367
:0D0B680074E89A74039CE49DE49E4003022F
:020B7500058CED
:0E0B7700C00312673F121419E5828583F0D087
:0D0B85000390E0ABF0A3E5F0F002058C85D5
:050B92001081D01022CB
:0A0B9700C010858110AA827430C0DE
:0E0BA100E0E4C0E08A82125871AA8215811524
:050BAF0081EA7026FA46
:050BB400BA0102801CE3
:0C0BB900E51024FBF8860308860408867B
:0E0BC500058B828C838DF01258DDAB828B0283
:020BD30080DFC1
:040BD5007A00800220
:020BD9007AFFA1
:050BDB008A82D0102207
:0176AE0003D8
:0476AF0041707000B6
:0776B300427574746F6E0054
:0E76BA004E616E6F53656E736F72204E3731E6
:0E76C80030204578616D706C65204170706CEB
:0B76D60069636174696F6E2E0D0A007D
:0E76E10052656164696E6720696C6C756D6935
:0E76EF006E6174696F6E20285531292E2000BF
:0876FD006661696C65642E00F2
:037705000D0A006A
:0E77080052656164696E672074656D7020289B
:067716005532293A200063
:06771C004D41433A20003C
:0777220050696E670D0A00BB
:0D7729004E6F206275666665722E0D0A00B7
:0E773600756470206563686F5F726571282945
:037744000D0A002B
:0E77470050696E672074696D656F75742E0D44
:027755000A0028
:0D775700526573706F6E73653A200D0A0065
:02776400200003
:077766002064626D2C20007D
:06776D00206D730D0A00FF
:0E7773004E6F20726573706F6E73652E0D0A77
:017781000007
:067782004C696768740009
:0577880054656D700066
:05778D004C45447300AF
:047792005241570009
:027796004300AE
:09779800787878787878323100B5
:0E780B00010001000000000000020001020068
:0D781900000000000300010000000000005E
:0D78260004FFFFFFFFFFFFFFFFFFFFBEF0AD
:03783300827780D9
:03783600887780D0
:037839008D7780C8
:03783C00927780C0
:03783F00967780B9
:03784200987780B4
:0D78450003FFFFFFFF0000000000007D00BA
:017852000035
:02785300000033
:017855000032
:017856000031
:0500E60090E113E4F0BD
:0A0BE000C010858110C082C083059B
:0C0BEA008105810581E51024F9F8868260
:0D0BF600088683121CADAC82AD83AEF0A862
:0C0C030010080808A60408A60508A606AC
:0C0C0F00A810080808B6000B08B6000783
:070C1B0008B60003020DD131
:0A0C2200E51024F5F8E6C0E0E51047
:0E0C2C0024FBF8E6C0E008E6C0E008E6C0E001
:0C0C3A00E51024F9F8E6C0E008E6C0E090
:0C0C4600A810080808868208868308862B
:0C0C5200F0121A25E58124FAF581A810A3
:0E0C5E00080808742026FFE40836FA0886030A
:0E0C6C008F828A838BF0126013FFA312601335
:0C0C7A00FAA3126013FBE51024F6F8E664
:0C0C8600C0E008E6C0E008E6C0E0A810EE
:0E0C920008E6C0E008E6C0E08F828A838BF09F
:0E0CA0001233EEAA82AB83AFF0E58124FBF5A0
:0C0CAE0081A810080808868208868308C8
:0E0CBA0086F0EA125996A3EB125996A3EF1298
:0E0CC8005996C0E0C0A8C2AF90F90FE0240119
:0C0CD600F090F90FE0FABA0117A810081E
:0E0CE200080890F90BE6F008A3E6F008A3E678
:060CF000F0121B92803F90
:0E0CF60090F914E0FA703890F90BE0FAA3E0E0
:0E0D0400FBA3E0FF741F2AFAE43BFB8A828BFC
:0C0D1200838FF0126013FAE51024F5F84E
:0B0D1E00C3E69A4012A81008080890D5
:0C0D2900F90BE6F008A3E6F008A3E6F0E2
:0C0D3500A810080808741F26FAE408360D
:0E0D4100FB0886078A828B838FF0126013FAFC
:0E0D4F0090F912E0FBC39A500590F912EAF0F9
:0C0D5D00A810080808742326FBE40836E0
:0E0D6900FF08860490E113E0FD8B828F838CDF
:0B0D7700F012599690E113ED04F0908B
:0D0D8200F913E0FBC39A500590F913EAF055
:0C0D8F00A810080808740326FBE40836CE
:0C0D9B00FC088605EA75F00CA424ADFAF3
:0C0DA700E434E0FE7F00C003C004C0057F
:0E0DB3008A828E838FF0122DD3158115811543
:0E0DC100817A01D0E053E080E5E042A8D0E066
:020DCF008002A0
:020DD1007AFFA7
:0C0DD300BA0163E51024F2F886030886DC
:0E0DDF0004088605BB0008BC0005BD000280AC
:010DED001BEA
:0C0DEE008B828C838DF0A810080808E6AA
:0D0DFA00125996A308E6125996A308E612B6
:020E07005996FA
:0E0E090090F914E0FB602990F90BE0FBA3E0E8
:0E0E1700FCA3E0FD741F2BFBE43CFC8B828CE3
:0C0E2500838DF0126013FBE51024F5F83B
:080E3100C3EB9650031236A03A
:080E39008A82851081D010228D
:0A0E4100C010E581F5102406F581CC
:0D0E4B00AA82AB83ACF0C0E0C0A8C2AF909B
:0E0E5800F90BE0FDA3E0FEA3E0FFEAB5050EF6
:0E0E6600EBB5060AECB507067A007B007C00AF
:0B0E7400E4BA0007BB0004BC0001044E
:0C0E7F00FD601290F90BA81008E0F6A32B
:090E8B00E008F6A3E008F6800B74
:0B0E9400A81008A60208A60308A60488
:0C0E9F00C005A81008860208860308861B
:0E0EAB000474032AFEE43BFF8C058E828F83C5
:0E0EB9008DF0C002C003C004C00512322DD05F
:0C0EC70005D004D003D002E5102404F88C
:0C0ED30074112AF6E43B08F608A604E5BA
:0C0EDF00102404F8740B26FDE40836FE15
:0E0EEB000886078D828E838FF0126013FDA3A0
:0E0EF900126013FEA3126013FFED4E4FD005E2
:0C0F07006020E5102404F8868208868330
:0E0F13000886F0C002C003C004C00512322DD3
:080F2100D005D004D003D0027A
:0E0F290074032AFAE43BFBC005C002C003C0FB
:0E0F37000490E10775F000122DD3158115818D
:0E0F45001581D00590F90EE02401F0D0E053A4
:0E0F5300E080E5E042A8D0E0ED60031236A099
:060F6100851081D0102272
:0A0F6700C010858110C082C083C055
:0B0F7100F00581E5102404F876001262
:0C0F7C001213A8100886820886830886DD
:0B0F8800F0126013FEA3126013FFE5DF
:0C0F93001024FCF8E62EFD08E63FFA8D65
:0E0F9F000390F910E0FCA3E0FDC3EC9EED9F73
:0E0FAD00501FC3EB9EEA9F503590F910E0FCF8
:0C0FBB00A3E0FDC3EC9BED9A5026E5106E
:070FC7002404F87601801DEF
:0E0FCE00C3EB9EEA9F400F90F910E0FCA3E0F9
:080FDC00FDC3EC9BED9A5007E8
:070FE400E5102404F876017A
:0C0FEB00A8100886820886830886F0EBB8
:090FF700125996A3EA125996E57D
:0A100000102404F8E670030210C388
:0E100A0090F90BE0FCA3E0FDA3E0FE74032CC4
:0E101800FCE43DFD8C828D838EF0C002C0038F
:0E10260012322DD003D00290F90BE0FCA3E0B3
:0E103400FDA3E0FE74032CFCE43DFD8C828DD8
:0D104200838EF0EB125996A3EA1259969096
:0E104F00F910E0FCA3E0FDC3EB9CEA9D5034D9
:0E105D0090F90BE0FAA3E0FBA3E0FC74032A79
:0E106B00FAE43BFB90E0F8E0FDA3E0FEA3E01A
:0E107900FFC002C003C0048D828E838FF01270
:0A1087002F9215811581158180322A
:0E10910090F90BE0FAA3E0FBA3E0FC74032A45
:0E109F00FAE43BFB90E0F5E0FDA3E0FEA3E0E9
:0E10AD00FFC002C003C0048D828E838FF0123C
:0810BB002F92158115811581AA
:0B10C30012122CE582FA70031236A016
:0610CE00851081D0102204
:0D10D400AA82AB837C00EA4B70030211BAC4
:0E10E100C002C003121213D003D00290F91007
:0E10EF00E0FDA3E0FEEA2DFAEB3EFB90F90BCC
:0E10FD00E0FDA3E0FEA3E0FF74032DFDE43E42
:0E110B00FE8D828E838FF0C002C00312322D43
:0E111900D003D00290F90BE0FDA3E0FEA3E0AE
:0E112700FF74032DFDE43EFE8D828E838FF05B
:0A113500EA125996A3EB12599690A6
:0E113F00F910E0FDA3E0FEC3EA9DEB9E5034E4
:0E114D0090F90BE0FAA3E0FBA3E0FD74032A87
:0E115B00FCE43BFB90E0F8E0FEA3E0FFA3E025
:0E116900FAC004C003C0058E828F838AF01284
:0A1177002F92158115811581803239
:0E11810090F90BE0FAA3E0FBA3E0FD74032A53
:0E118F00FCE43BFB90E0F5E0FEA3E0FFA3E0F4
:0E119D00FAC004C003C0058E828F838AF01250
:0811AB002F92158115811581B9
:0711B30012122CAA828A042B
:0611BA00EC70030236A0F8
:0111C000220C
:0E11C100E4C0E0C0E0C0E0E4C0E0E4C0E0C094
:0C11CF00E0C0E07450C0E0E4C0E074A197
:0B11DB00C0E07477C0E07480C0E090BA
:0E11E6001A20120BE0AA82E58124F4F581BAEA
:0E11F4000112C2AF90F9147401F090F910E4EA
:06120200F0A3F002362803
:0112080022C3
:0A120900C2AF90F914E4F002369F22
:0E121300C0E0C0A8C2AF90F915E02401F0D0F1
:0B122100E053E080E5E042A8D0E022AE
:0A122C00C010E581F5102406F581DD
:0C123600A810087600C0E0C0A8C2AF906D
:09124200F915E01490F915F09083
:09124B00F915E0FB600302140335
:0A12540090F90FE0FB700302140391
:06125E00A810080876004C
:0A12640090E0FBE0FCE4BC00010494
:04126E00FCB40100CB
:0E127200E433FC603190E10175F0001260136E
:0E128000FCA3126013FDA3126013FE74082C71
:0E128E00FCE43DFD8C828D838EF0126013FC1B
:0C129C00A3126013FDA3126013FE800675
:0612A8007C007D007E00C9
:0E12AE008C078D038E02BC0009BD0006BE0039
:0412BC00030213C353
:0E12C00074112FFCE43BFD8A068C828D838E18
:0E12CE00F0C002C003C00712322DD007D003BB
:0E12DC00D00274032FFCE43BFD8A068C828D49
:0E12EA00838EF0C002C003C00712322DD00761
:0E12F800D003D002741F2FFCE43BFD8A068C4D
:0B130600828D838EF0A81008080812EA
:0E1311006013F6C007C003C00290F913E0FAA3
:0C131F00A810080808C3EA96E433D002C6
:0C132B00D003D007600AA8100808089042
:04133700F913E6F0D0
:0C133B00E5102404F874032FF6E43B08CE
:0E134700F608A6028C828D838EF0126013755C
:0A135500F00CA424ADFAE434E0FB30
:0C135F007F00C004C005C006E510240497
:0E136B00F8E6C0E008E6C0E008E6C0E08A82CE
:0E1379008B838FF0122DD3158115811581D035
:0E13870006D005D0048C828D838EF012601388
:0E139500FC90F90BE0FAA3E0FBA3E0FD741F4F
:0E13A3002AFAE43BFB8A828B838DF0126013E2
:0913B100FAC3EC9A500302126425
:0913BA00A8100808760102126473
:0713C30090F916E0FA601B2F
:0B13CA0090F916E0FA600E121450902B
:0A13D500F916E01490F916F080EB11
:0613DF00A81008087601C9
:0913E500A8100808B601028008F6
:0813EE0090F917E0FABA010DB5
:0B13F600A81008760190F917E4F0122F
:0214010036A013
:0C140300D0E053E080E5E042A8D0E0A873
:08140F0010088682851081D0CF
:021417001022A1
:0E141900C0E0C0A8C2AF90F910E0FAA3E0FB5B
:0E142700D0E053E080E5E042A8D0E08A828B5E
:02143500832210
:0E143700C0E0C0A8C2AF90F90FE0FAD0E053B9
:0B144500E080E5E042A8D0E08A8222AF
:08145000C01085811005819098
:09145800F915E0FA6003021639EF
:0D14610090F910E02401F0A3E03400F090B9
:0E146E00F910E0FAA3E0FB4A702C90E0F5E0E4
:0E147C00FAA3E0FBA3E0FC90E0F8E0FDA3E0A3
:0E148A00FEA3E0FF90E0F5EDF0A3EEF0A3EF7F
:0C149800F090E0F8EAF0A3EBF0A3ECF019
:0E14A40090E0F5E0FAA3E0FBA3E0FC8A828B67
:0C14B200838CF0126013FAE4BA0001040D
:0414BE00FAB401007B
:0E14C200E433FA604A90E0F5E0FAA3E0FBA301
:0E14D000E0FC74042AFAE43BFB74022AFAE4FE
:0E14DE003BFB8A828B838CF0126013FAA31200
:0E14EC006013FBA3126013FC74082AFAE43BA1
:0D14FA00FB8A828B838CF0126013FAA31220
:0A1507006013FBA3126013FC8006C2
:061511007A007B007C0063
:0E1517008A058B068C07BA0009BB0006BC00D3
:041525000302164364
:0E15290074032DFAE43EFB8F048A828B838CC0
:0E153700F0126013FAA3126013FBC005C00689
:0E154500C00790F910E0FCA3E0FDC3EC9AEDA6
:0E1553009BE433D007D006D005600302164398
:0E15610074032DFAE43EFB8F048A828B838C88
:0E156F00F0C005C006C00712322DD007D0060E
:0E157D00D00574112DFAE43EFB8F04C005C0AA
:0E158B0006C007740B2AFDE43BFE8C078D8220
:0E1599008E838FF0126013FDA3126013FEA369
:0E15A700126013FFED4E4FD007D006D0056046
:0E15B500158A828B838CF0C005C006C0071219
:0815C300322DD007D006D0053F
:0E15CB00741F2DFAE43EFB8F048A828B838C02
:0C15D900F0A81008126013F6C005C00650
:0C15E500C00790F913E0FDA81008C3ED4A
:0C15F10096E433D007D006D0056008A8AF
:0715FD00100890F913E6F05D
:0E16040074032DFDE43EFE8A828B838CF0126F
:0B161200601375F00CA424ADFAE43462
:0C161D00E0FB7C00C005C006C0078A820C
:0E1629008B838CF0122DD31581158115810253
:0216370014A4F9
:0A16390090F916E02401F012577733
:0A16430090F916E0FA7003125777D1
:06164D00851081D010227F
:0E16530090F915E0FA600790F9177401F02283
:0C16610090F913E075F00CA424ADFAE43D
:0B166D0034E0FB8A828B83E0700B905E
:0A167800F913E01490F913F080DF7D
:0C16820090F913E075F00CA424ADFAE41C
:08168E0034E0FB0ABA00010B75
:0C16960090F913E075F00CA424ADFCE406
:0C16A20034E0FD8C828D83A3E0FCA3E00B
:0E16AE00FDA3E0FE74022CFCE43DFD8C828D59
:0E16BC00838EF0126013FCA3126013FDA312C4
:0E16CA006013FE8A828B83ECF0A3EDF0A3EE9A
:0C16D800F090F913E075F00CA424ADFABA
:0C16E400E434E0FB8A828B83A3E0FAA3CD
:0E16F000E0FBA3E0FC90F913E075F00CA424DD
:0A16FE00ADFDE434E0FE74042DFDA0
:0E170800E43EFE7F00EAB5055FEBB5065BEC44
:0C171600B5075790F913E075F00CA424FF
:0A172200ADFAE434E0FB0ABA00015E
:01172C000BB1
:0C172D0090F913E075F00CA424ADFCE46E
:0C17390034E0FD8C828D83A3E0FCA3E073
:0E174500FDA3E0FE74022CFCE43DFD8C828DC1
:0E175300838EF0126013FCA3126013FDA3122C
:0E1761006013FE8A828B83ECF0A3EDF0A3EE02
:01176F00F089
:0C17700090F913E075F00CA424ADFAE42D
:0C177C0034E0FB8A828B83A3E0FAA3E038
:0E178800FBA3E0FC74082AFAE43BFB8A828B88
:0E179600838CF0126013FAA3126013FBA312EF
:0E17A4006013FC90F90BEAF0A3EBF0A3ECF05D
:0117B2002214
:0A17B300C010858110AA82AB83AC40
:0E17BD00F090F90BE0FDA3E0FEA3E0FF741135
:0E17CB002DFDE43EFEC005C006C0078A828BDD
:0D17D900838CF0122F9215811581158190DF
:0C17E600F910E0FAA3E0FBE51024FCF889
:0E17F200E62AFA08E63BFB90F90BE0FCA3E0C8
:0E180000FDA3E0FE74032CFCE43DFD8C828D04
:0E180E00838EF0C002C00312322DD003D00230
:0E181C0090F90BE0FCA3E0FDA3E0FE74032CAA
:0E182A00FCE43DFD8C828D838EF0EA1259960F
:0E183800A3EB12599690F910E0FCA3E0FDC35B
:0E184600EA9CEB9D503490F90BE0FAA3E0FB16
:0E185400A3E0FC74032AFAE43BFB90E0F8E00A
:0E186200FDA3E0FEA3E0FFC002C003C0048DA2
:0E187000828E838FF0122F92158115811581C3
:02187E008032B6
:0E18800090F90BE0FAA3E0FBA3E0FC74032A4E
:0E188E00FAE43BFB90E0F5E0FDA3E0FEA3E0F2
:0E189C00FFC002C003C0048D828E838FF01245
:0818AA002F92158115811581B3
:0318B200D0102231
:0A18B500C010858110058105810532
:0E18BF0081AA82AB83ACF0126013FDE4BD0081
:0218CD00010414
:0418CF00FDB4010063
:0E18D300E433FD603F74042AFAE43BFB740228
:0E18E1002AFAE43BFB8A828B838CF0126013A0
:0E18EF00FAA3126013FBA3126013FC74082A04
:0E18FD00FAE43BFB8A828B838CF0126013FAB4
:0C190B00A3126013FBA3126013FC800603
:061917007A007B007C0059
:0C191D00A81008A60208A60308A604A84B
:0C1929001008741126FDE40836FE088644
:0E193500078D828E838FF012322D90F915E00F
:0C194300FD7070A81008740326FDE40875
:0E194F0036FE0886078D828E838FF012322DB1
:0C195D00A81008741F26FDE40836FE08E0
:0D19690086078D828E838FF0126013FD9033
:0D197600F913E0FEC39D500590F913EDF04C
:0C198300A81008740326FEE40836FF08D4
:0C198F008602ED75F00CA424ADFBE434DE
:0C199B00E0FC7D00C006C007C0028B828B
:0E19A7008C838DF0122DD31581158115818052
:0119B500230E
:0C19B600A81008741126FAE40836FB089B
:0E19C2008604C002C003C00490E0FB75F00074
:0919D000122DD31581158115813A
:0C19D900A81008741F26FAE40836FB086A
:0D19E50086048A828B838CF0126013FA90C6
:0E19F200F90BE0FBA3E0FCA3E0FD741F2BFB50
:0E1A0000E43CFC8B828C838DF0126013FBC3E0
:091A0E00EA9B400575820180038A
:031A1700758200D5
:061A1A00851081D01022AE
:051A2000121BF880FB21
:0A1A2500C010858110C082C083C08C
:0C1A2F00F0A81008742C26FDE40836FE18
:0C1A3B000886078D828E838FF0E5102452
:0D1A4700FCF8E6125996A308E6125996A87D
:0C1A54001008742426FDE40836FE088605
:0C1A6000077408C0E0E4C0E0E51024F9C1
:0E1A6C00F8E6C0E008E6C0E008E6C0E08D82C3
:0E1A7A008E838FF0125F44E58124FBF581A876
:0C1A88001008742426FDE40836FE0886D1
:0E1A94000774072DFDE43EFE8D828E838FF0D9
:0C1AA200E4125996E51024F8F8B6040090
:091AAE004007E51024F8F8760366
:0C1AB700A81008741F26FDE40836FE0885
:0C1AC30086078D828E838FF0E51024F8DA
:0C1ACF00F8E6125996A81008740326FDD2
:0E1ADB00E40836FE0886078D828E838FF01297
:0C1AE9002DB2A81008741126FDE4083688
:0E1AF500FE0886078D828E838FF0122DB2A818
:0C1B03001008740326FDE40836FE088676
:0E1B0F000774082DFDE43EFE8D828E838FF05C
:0B1B1D00A81008E6125996A308E61273
:091B28005996A308E6125996A88B
:0C1B31001008741126FDE40836FE08863A
:0C1B3D0007E51024F8F886027B00740411
:0E1B4900C39AFAE49BFB8D828E838FF0EA1222
:081B57005996A3EB125996A860
:0C1B5F001008741126FAE40836FB088612
:0E1B6B000474082AFAE43BFB8A828B838CF018
:0B1B7900A81008E6125996A308E61217
:091B84005996A308E61259968552
:051B8D001081D01022C0
:021B92007A00D7
:031B9400BA040090
:0C1B9700501EEA75F00CA424ADFBE434F1
:0C1BA300E0FC7D008B828C838DF0C00282
:081BAF00122CE0D0020A80DDD7
:0A1BB70090E0DD75F000122CE090C4
:091BC100E0E975F000122CE0903F
:091BCA00E0FB75F000122CE09024
:091BD300E10775F000122CE0900E
:071BDC00E0F574DDF0A374D5
:0A1BE300E0F0A37400F090E0F87445
:0A1BED00E9F0A374E0F0A37400F027
:011BF70022CB
:081BF80090F90EE0FA700122E1
:0D1C000012121390E107E0FAE4BA000104AB
:0C1C0D00FAC00212122CD002EA60012280
:0E1C1900C0E0C0A8C2AF90E107E0FAE4BA0054
:021C27000104B6
:041C2900FAB4010008
:0E1C2D00E433FA603190E10D75F0001260139F
:0E1C3B00FAA3126013FBA3126013FC74082AB4
:0E1C4900FAE43BFB8A828B838CF0126013FA64
:0C1C5700A3126013FBA3126013FC8006B4
:061C63007A007B007C000A
:0E1C690074032AFDE43BFE8C078D828E838F70
:0E1C7700F0C002C003C00412322DD004D0030E
:0C1C8500D00290F90FE01490F90FF090DD
:0E1C9100F90EE01490F90EF0D0E053E080E57B
:0E1C9F00E042A8D0E08A828B838CF0021D9375
:0A1CAD00C010858110C082C08305BD
:0E1CB700810581058190002E123942AC82AD6C
:0C1CC50083AEF0A810080808A60408A6CA
:0C1CD1000508A606A810080808B6000BBD
:0B1CDD0008B6000708B60003021D80D7
:0C1CE800A810080808742026FFE4083645
:0C1CF400FA088603A81008868208868380
:0E1D0000C002C003C007123942AC82AD83AEF0
:0E1D0E00F0D007D003D0028F828A838BF0ECD6
:0B1D1C00125996A3ED125996A3EE1287
:0C1D27005996BC0023BD0020BE001DA882
:0C1D33001008080886820886830886F0E5
:0C1D3F00123CAEA810080808E4F608F6F4
:041D4B0008F68031E5
:0E1D4F008F828A838BF0126013FFA312601341
:0C1D5D00FAA3126013FBA81008E6C0E017
:0E1D690008E6C0E074A5C0E08F828A838BF08C
:091D7700125E3B158115811581F6
:0C1D8000A81008080886820886830886E0
:071D8C00F0851081D0102248
:0E1D9300AA82AB83ACF074202AFDE43BFE8CE8
:0D1DA100078D828E838FF0126013FDA31258
:0E1DAE006013FEA3126013FF8D828E838FF0F0
:0E1DBC00C002C003C004123CAED004D003D05D
:0A1DCA00028A828B838CF0023CAE8B
:0577A10049444C4500C5
:037857000000002E
:01785A00002D
:01785B00002C
:02785C0000002A
:01785E000029
:01785F000028
:017860000027
:017861000026
:017862000025
:017863000024
:0A1DD400C010858110C082E5812453
:0C1DDE0009F581A81008E6700302202916
:0D1DEA00900029123942AB82AC83ADF0A805
:0C1DF700100808A60308A60408A605A80A
:0C1E0300100808B6000B08B6000708B66F
:051E0F00000302202980
:0A1E1400A81008A91019191986F08A
:0E1E1E00E7A4FEAFF074012EFAE43FFB8A82C7
:0E1E2C008B83C006C007123942AA82AB83AC7A
:0C1E3A00F0D007D006A810080886820827
:0E1E460086830886F0EA125996A3EB1259968D
:0E1E5400A3EC125996BA0009BB0006BC0003AD
:031E620002201A41
:0A1E6500A8100808E5102405F97420
:0D1E6F000326F7E4083609F70809E6F7A88E
:0C1E7C0010080886820886830886F01291
:0A1E88006013FDA3126013FAA31209
:0C1E92006013FBEE2DFEEF3AFF8B04E521
:0C1E9E00102405F886820886830886F070
:0C1EAA00EE125996A3EF125996A3EC1209
:0C1EB6005996A8100808742426FCE408C3
:0D1EC20036FE0886078C828E838FF0E412B6
:0C1ECF005996A8100808740626FCE408C8
:0D1EDB0036FE0886078C828E838FF0ED1294
:0A1EE8005996A3EA125996A3EB12D3
:071EF2005996A8100808E54D
:0C1EF900102405F9740926F7E4083609E6
:0C1F0500F70809E6F7A8100886047E0023
:0C1F1100E5102408F8EC24FFF6EE34FF85
:0C1F1D0008F6A81018181886077C00C0F1
:0C1F290002C003C005C007C004E510247E
:0E1F350008F88682088683125B49AC82AE8370
:0E1F430015811581D005D003D002EC2DFDEEE6
:0C1F51003AFAE5102405F8868208868321
:0E1F5D000886F0ED125996A3EA125996A3EBEE
:0C1F6B00125996A8100808742526FAE404
:0D1F77000836FB0886048A828B838CF0A854
:071F84001008E6125996A8AF
:0C1F8B00100808742626FAE40836FB084B
:0C1F970086048A828B838CF0A810181836
:0C1FA30018E6125996A8100808742726AA
:0E1FAF00FAE40836FB0886048A828B838CF0E5
:0C1FBD0074FF125996A81008087428261A
:0E1FC900FAE40836FB0886048A828B838CF0CB
:0C1FD70074FF125996A8100808740C261C
:0E1FE300FAE40836FB0886048A828B838CF0B1
:0C1FF100122CE0A8100808741826FAE46E
:0D1FFD000836FB0886048A828B838CF01264
:0C200A002CE0A8100808868208868308D5
:0420160086F08015BB
:0C201A00A810080886820886830886F05B
:03202600123CAEBB
:0620290090000075F000BC
:06202F00851081D0102293
:0A203500C010858110C082C083C076
:0E203F00F0E581240CF581121213C0E0C0A858
:0C204D00C2AFA81008742726FDE4083676
:0E205900FE0886078D828E838FF0126013FAC8
:0C2067000A8D828E838FF0EA125996A831
:0C2073001008742826FAE40836FB0886E2
:0E207F00048A828B838CF0126013FD0D8A821E
:0E208D008B838CF0ED125996D0E053E080E585
:0C209B00E042A8D0E0A810088682088669
:0E20A700830886F0122C98E582700302216CEB
:0B20B500E51024F9F8E608467003026D
:0220C000216C91
:0C20C200A81008740C26FAE40836FB088D
:0C20CE008604E51024F9F8E6C0E008E6FE
:0E20DA00C0E08A828B838CF01217B31581153B
:0C20E80081C0E0C0A8C2AFA8100886822A
:0E20F4000886830886F0122B3412122CE58227
:0521020070031236A07D
:0C210700121213C0E0C0A8C2AFA810085C
:0E211300742726FAE40836FB0886048A828BBD
:0E212100838CF0126013FD0D8A828B838CF08C
:0C212F00ED125996A81008742826FAE456
:0D213B000836FB0886048A828B838CF01224
:0E2148006013FD0D8A828B838CF0ED12599688
:0E215600D0E053E080E5E042A8D0E0D0E053B6
:08216400E080E5E042A8D0E0B4
:0C216C00C0E0C0A8C2AFA8100874242670
:0E217800FAE40836FB0886048A828B838CF01A
:0A218600E5102404F8126013F6A817
:0C2190001008742526FEE40836FF0886BF
:0C219C00058E828F838DF0126013FEE52B
:0C21A800102404F8C3E69E400302233913
:0A21B400A81008E5102405F97426B0
:0C21BE0026F7E4083609F70809E6F7E503
:0C21CA00102405F886820886830886F041
:0C21D600126013FDE510240BF8A60508AC
:0A21E2007600A81008E5102408F9A3
:0E21EC00740626F7E4083609F70809E6F7E559
:0C21FA00102408F886820886830886F00E
:0B220600126013FFA3126013FDA3126F
:0C2211006013FEC002C003C004E51024EE
:0C221D000BF8E6C0E008E6C0E0E5102485
:0E222900FBF8E6C0E008E6C0E008E6C0E08F83
:0E223700828D838EF0125EA6E58124FBF58178
:0D224500D004D003D0028A828B838CF0126B
:0E2252006013FD0D8A828B838CF0ED1259967D
:0C226000E5102408F886820886830886B2
:0C226C00F0126013FAA3126013FBA3121F
:0C2278006013FCE5102405F8868208863F
:0D228400830886F01260132AFAE43BFBE5A4
:0C229100102408F886820886830886F076
:0C229D00EA125996A3EB125996A3EC121A
:0C22A9005996A81008740326FDE40836BE
:0E22B500FE0886078D828E838FF0126013FD67
:0E22C300A3126013FEA3126013FFC3EA9DEB8B
:0E22D1009EEC64808FF063F08095F04034A89E
:0B22DF00100886820886830886F01233
:0A22EA006013FAA3126013FBA312A5
:0C22F4006013FCE5102408F886820886C0
:0E230000830886F0EA125996A3EB125996A3B1
:04230E00EC125996DE
:0C2312007A01A81008742826FBE40836A5
:0E231E00FC0886058B828C838DF0126013FE06
:0D232C000E8B828C838DF0EE12599680028C
:022339007AFD2B
:0C233B00D0E053E080E5E042A8D0E0A82C
:0C234700100886820886830886F0C00219
:0E235300122B34E582D0026010C00212122C50
:0B236100E582D002700C1236A080074D
:07236C00C00212122CD00286
:082373008A82851081D010223E
:0A237B00C010858110C082C083C02D
:0C238500F0E581240CF581A810087424F8
:0E23910026FDE40836FE0886078D828E838FB7
:0B239F00F0E5102404F8126013F6A80B
:0C23AA001008742526FBE40836FC0886A9
:0C23B600028B828C838AF0126013FBE51E
:0C23C200102404F8C3E69B40030225A48D
:0A23CE00A81008E5102405F9742694
:0C23D80026F7E4083609F70809E6F7E5E7
:0C23E400102405F886820886830886F025
:0C23F000126013FAE510240BF8A6020896
:0A23FC007600A81008E5102408F987
:0E240600740626F7E4083609F70809E6F7E53C
:0C241400102408F886820886830886F0F1
:0B242000126013FCA3126013FAA31259
:0C242B006013FBC005C006C007E51024CC
:0C2437000BF8E6C0E008E6C0E0E5102469
:0E244300FBF8E6C0E008E6C0E008E6C0E08C6A
:0E245100828A838BF0125EA6E58124FBF58162
:0D245F00D007D006D0058D828E838FF0123D
:0E246C006013FA0A8D828E838FF0EA12599661
:0C247A00E5102408F88682088683088696
:0C248600F0126013FAA3126013FBA31203
:0C2492006013FCE5102405F88682088623
:0D249E00830886F01260132AFAE43BFBE588
:0C24AB00102408F886820886830886F05A
:0C24B700EA125996A3EB125996A3EC12FE
:0C24C3005996A81008740326FDE40836A2
:0E24CF00FE0886078D828E838FF0126013FD4B
:0E24DD00A3126013FEA3126013FFC3EA9DEB6F
:0E24EB009EEC64808FF063F08095F04034A882
:0B24F900100886820886830886F01217
:0A2504006013FAA3126013FBA31288
:0C250E006013FCE5102408F886820886A3
:0E251A00830886F0EA125996A3EB125996A395
:04252800EC125996C2
:0C252C00A81008742826FAE40836FB0802
:0E25380086048A828B838CF0126013FDBDFF37
:0A25460052E51024FAF8E67055A8DB
:0C2550001008741826FAE40836FB088610
:0D255C00048A828B838CF0126013603CA80F
:0A2569001008E5102408F974182684
:0C257300F7E4083609F70809E6F7E51060
:0E257F002408F886820886830886F01218B5B4
:07258D00AE82BE00028010C7
:052594007582018012B8
:0B2599000D8A828B838CF0ED125996A6
:0725A400E51024FAF886821D
:0625AB00851081D0102212
:0A25B100C010858110C082C083C0F5
:0E25BB00F0E581240BF581121213C0E0C0A8D8
:0C25C900C2AFA81008742726FDE40836F5
:0E25D500FE0886078D828E838FF0126013FA47
:0C25E3000A8D828E838FF0EA125996A8B0
:0C25EF001008742826FAE40836FB088661
:0E25FB00048A828B838CF0126013FD0D8A829D
:0E2609008B838CF0ED125996D0E053E080E503
:0C261700E042A8D0E0A8100886820886E7
:0E262300830886F0122C67E58270030226E819
:0B263100E51024F9F8E60846700302EB
:02263C0026E88E
:0C263E00A81008741826FAE40836FB08FF
:0C264A008604E51024F9F8E6C0E008E67C
:0E265600C0E08A828B838CF01217B3158115B9
:0C26640081C0E0C0A8C2AFA810088682A8
:0E2670000886830886F0122B3412122CE582A5
:05267E0070031236A0FC
:0C268300121213C0E0C0A8C2AFA81008DB
:0E268F00742726FAE40836FB0886048A828B3C
:0E269D00838CF0126013FD0D8A828B838CF00B
:0C26AB00ED125996A81008742826FAE4D5
:0D26B7000836FB0886048A828B838CF012A3
:0E26C4006013FD0D8A828B838CF0ED12599607
:0E26D200D0E053E080E5E042A8D0E0D0E05335
:0826E000E080E5E042A8D0E033
:0C26E800C0E0C0A8C2AFA81008742426EF
:0E26F400FAE40836FB0886048A828B838CF099
:0A270200E510240BF8126013F6E551
:0A270C0010240BF8E6700302288683
:0A271600A81008E5102404F9740966
:0C27200026F7E4083609F70809E6F7E59B
:0C272C00102404F886820886830886F0DA
:0B273800E5102407F9126013F7A3124C
:0B274300601309F7A312601309F7A848
:0C274E001008742626FDE40836FE0886FC
:0C275A00078D828E838FF0E510240AF8B2
:0A276600126013F6E5102407F8E5F1
:0C27700010240AF9E726F6E40836F6E526
:0C277C00102404F886820886830886F08A
:0C278800E5102407F9E7125996A309E7B1
:0A279400125996A309E7125996A8FE
:0C279E001008740326FDE40836FE0886CF
:0D27AA00078D828E838FF0126013FDA31245
:0927B7006013FEA3126013FFE59C
:0C27C000102407F8C3E69D08E69E08E61A
:0C27CC0064808FF063F08095F04034A82A
:0B27D800100886820886830886F01235
:0A27E3006013FEA3126013FFA3129F
:0C27ED006013FDE5102404F886820886C5
:0E27F900830886F0EE125996A3EF125996A3AC
:04280700ED125996DF
:0C280B00E510240BF8E6148A828B838C05
:0C281700F0125996E510240AF886027BA6
:0C28230000E5102404F886820886830873
:0D282F0086F0126013FCA3126013FDA312CB
:0E283C006013FEC002C003C004C005C006E564
:0C284A001024FBF886820886830886F0C4
:0C285600125EA6E58124FBF581A81008A5
:0E286200742726FAE40836FB0886048A828B67
:0E287000838CF0126013FD0D8A828B838CF036
:08287E00ED1259967A01800267
:022886007A00D6
:0C288800D0E053E080E5E042A8D0E0A8DA
:0C289400100886820886830886F0C002C7
:0E28A000122B34E582D0026010C00212122CFE
:0B28AE00E582D002700C1236A08007FB
:0728B900C00212122CD00234
:0828C0008A82851081D01022EC
:0A28C800C010858110C082C083C0DB
:0C28D200F0E5812408F581A810087424AA
:0E28DE0026FDE40836FE0886078D828E838F65
:0B28EC00F0E5102404F8126013F6E57C
:0A28F700102404F8E67003022ACE54
:0A290100C005C006C007A81008E5D5
:0C290B00102405F9740926F7E4083609C9
:0C291700F70809E6F7E5102405F88682B1
:0E2923000886830886F0126013FDA31260136D
:0C293100FEA3126013FFA81008742626F5
:0E293D00FAE40836FB0886048A828B838CF04D
:0A294B00E5102408F8126013F6E509
:0B295500102408F8E62DFDE43EFEE52E
:0C296000102405F886820886830886F0A3
:0C296C00ED125996A3EE125996A3EF123B
:0C2978005996A81008740326FAE40836EB
:0E298400FB0886048A828B838CF0126013FAA3
:0E299200A3126013FBA3126013FCC3ED9AEEB8
:0E29A0009BEF64808CF063F08095F0D007D040
:0C29AE0006D0054034A810088682088678
:0E29BA00830886F0126013FAA3126013FBA3C9
:0C29C800126013FCE5102405F88682085C
:0E29D40086830886F0EA125996A3EB125996F4
:0529E200A3EC12599660
:0C29E700E5102404F8E6148D828E838F26
:0C29F300F0125996E5102408F886027BCB
:0C29FF0000E5102405F886820886830895
:0D2A0B0086F0126013FCA3126013FDA312ED
:0E2A18006013FEC002C003C004C005C006E586
:0C2A26001024FBF886820886830886F0E6
:0C2A3200125EA6E58124FBF581A81008C7
:0E2A3E00742726FAE40836FB0886048A828B89
:0C2A4C00838CF0126013FDBDFF68E510E4
:0E2A580024F8F886020886030886048A828B1A
:0C2A6600838CF0126013705BA8100874E1
:0E2A72000C26FDE40836FE0886078D828E8352
:0C2A80008FF01260136042A81008740C64
:0E2A8C0026FDE40836FE0886078D828E838FB5
:0E2A9A00F0C002C003C0041218B5AE82D00412
:092AA800D003D002BE0002801828
:0D2AB1008A828B838CF07401125996800B81
:0B2ABE000D8A828B838CF0ED1259967C
:052AC90075820180038D
:032ACE007582000E
:062AD100851081D01022E7
:0E2AD700AA82AB83ACF0C0E0C0A8C2AF7424EA
:0E2AE5002AFAE43BFB8A828B838CF01260138A
:0E2AF300FAD0E053E080E5E042A8D0E08A820D
:012B010022B1
:0E2B0200AA82AB83ACF0126013FDA312601325
:0E2B1000FEA3126013FF8D828E838FF0C00231
:0E2B1E00C003C004123CAED004D003D0028A23
:082B2C00828B838CF0023CAEA9
:0A2B3400C010858110C082C083C06C
:0C2B3E00F00581E5102404F87600C0E0EA
:0C2B4A00C0A8C2AFA81008742826FEE442
:0D2B56000836FF0886058E828F838DF012F1
:0E2B63006013FA1A8E828F838DF0EA12599653
:0E2B7100C3747F8AF063F08095F050498E8225
:0C2B7F008F838DF074FF125996A8100887
:0E2B8B00741826FAE40836FB0886048A828B4A
:0C2B9900838CF01260136025A8100874F3
:0E2BA5001826FAE40836FB0886048A828B8321
:0C2BB3008CF01218B5AA82BA000280074C
:072BBF00E5102404F8760183
:0E2BC600D0E053E080E5E042A8D0E0C0E0C0DF
:0C2BD400A8C2AFA81008742726FAE40875
:0E2BE00036FB0886048A828B838CF012601309
:0E2BEE00FD1D8A828B838CF0ED125996C37404
:0E2BFC007F8DF063F08095F050498A828B83C4
:0C2C0A008CF074FF125996A81008740C8E
:0E2C160026FAE40836FB0886048A828B838C3B
:0C2C2400F01260136025A81008740C2644
:0E2C3000FAE40836FB0886048A828B838CF057
:0A2C3E001218B5AA82BA000280073E
:072C4800E5102404F87601F9
:0C2C4F00D0E053E080E5E042A8D0E0E5D2
:0A2C5B00102404F88682851081D051
:022C650010223B
:0E2C6700AA82AB83ACF0C0E0C0A8C2AF742458
:0E2C75002AFAE43BFB8A828B838CF0126013F8
:062C8300FAE4BA000104AE
:0E2C8900FAD0E053E080E5E042A8D0E08A8275
:012C9700221A
:0E2C9800AA82AB83ACF0C0E0C0A8C2AF742427
:0E2CA6002AFDE43BFE8C078D828E838FF01298
:0E2CB4006013FD74252AFAE43BFB8A828B83B1
:0E2CC2008CF0126013FAEDB50204740180016B
:012CD000E41F
:0E2CD100FDD0E053E080E5E042A8D0E08D8227
:012CDF0022D2
:0A2CE000C010858110C082C083C0BF
:0C2CEA00F0058105810581A81008740127
:0C2CF60026FDE40836FE088607A810083A
:0C2D0200E5102404F9740426F7E40836F8
:0D2D0E0009F70809E6F78D828E838FF0E546
:0C2D1B00102404F8E6125996A308E612F2
:092D27005996A308E6125996E53D
:0C2D3000102404F886820886830886F0D0
:0C2D3C0074FF125996A374FF125996E51B
:0C2D4800102404F8740226FBE40836FC9A
:0C2D54000886058B828C838DF0E510242E
:0E2D600004F8E6125996A308E6125996A30845
:0C2D6E00E6125996E5102404F8740526BE
:0E2D7A00FBE40836FC0886058B828C838DF006
:0C2D8800E5102404F8E6125996A308E6B2
:0A2D9400125996A308E6125996A8FA
:0C2D9E00100886820886830886F0E41284
:062DAA005996851081D04E
:022DB0001022EF
:0E2DB200AA82AB83ACF0740B2AFAE43BFB8AD6
:0E2DC000828B838CF0E4125996A3E41259968C
:052DCE00A3E402599688
:0A2DD300C010858110C082C083C0CB
:0B2DDD00F0E581240CF581A81008E54A
:0C2DE800102407F9740126F7E4083609EE
:0C2DF400F70809E6F7E5102407F88682CE
:0E2E00000886830886F0126013FAA31260138E
:0C2E0E00FBA3126013FCE5102404F8A6DE
:0C2E1A000208A60308A604E51024FBF83B
:0C2E26008602088603088604E510240AD2
:0D2E3200F874022AF6E43B08F608A604E551
:0C2E3F00102404F88605088606088607A3
:0E2E4B0074022DFDE43EFE8D828E838FF01208
:0A2E59006013FDA3126013FEA31224
:0C2E63006013FFE510240AF88682088640
:0E2E6F00830886F0ED125996A3EE125996A331
:0C2E7D00EF125996E510240AF874052A9B
:0C2E8900F6E43B08F608A604E510240758
:0E2E9500F886820886830886F0126013FDA37B
:0A2EA300126013FEA3126013FFE596
:0C2EAD0010240AF886820886830886F04C
:0C2EB900ED125996A3EE125996A3EF12E9
:0C2EC5005996E5102404F88605088606DE
:0E2ED10008860774022DFDE43EFE8D828E837E
:0D2EDF008FF0126013FDA3126013FEA3120A
:0E2EEC006013FF74052DFDE43EFE8D828E8383
:0E2EFA008FF0EA125996A3EB125996A3EC1230
:0C2F08005996E5102404F886050886069A
:0E2F140008860774022DFDE43EFE8D828E833A
:0E2F22008FF0EA125996A3EB125996A3EC1207
:0C2F30005996E5102407F8868208868375
:0E2F3C000886F0EA125996A3EB125996A3EC00
:0E2F4A00125996740B2AFAE43BFB8A828B83A1
:0C2F58008CF0A81008E6125996A308E6B9
:0A2F6400125996A308E6125996A828
:0B2F6E00100886820886830886F01297
:0C2F79006013FA0AA810088682088683FC
:0B2F85000886F0EA125996851081D0F2
:022F900010220D
:0A2F9200C010858110C082C083C00A
:0C2F9C00F0E5812409F581E51024FBF824
:0E2FA80086050886060886078D828E838FF0C8
:0E2FB600126013FAA3126013FBBAFF05BBFFF3
:032FC40002800385
:032FC70002307065
:0A2FCA00A81008E5102404F97404AF
:0B2FD40026F7E4083609F70809E6F7C5
:0C2FDF00C005C006C007E5102404F886F9
:0E2FEB000408860508860674022CFCE43DFDF1
:0E2FF9008C828D838EF0126013FCA312601385
:0D300700FDA3126013FE8C828D838EF012EB
:0E3014006013FCA3126013FDC3EC9AED9BD079
:0A30220007D006D005400302311369
:0C302C00C005C006C007E5102404F886AB
:0E3038000408860508860674022CFCE43DFDA3
:0E3046008C828D838EF0126013FCA312601337
:0C305400FDA3126013FEE5102404F8A692
:0E3060000408A60508A606D007D006D0050273
:02306E002FDF52
:0A307000A81008E5102404F9740408
:0B307A0026F7E4083609F70809E6F71E
:0C308500C005C006C007E5102404F88652
:0E3091000408860508860674022CFCE43DFD4A
:0E309F008C828D838EF0126013FCA3126013DE
:0D30AD00FDA3126013FE8C828D838EF01245
:0E30BA006013FCA3126013FDC3EA9CEB9DD0D3
:0E30C80007D006D0054044C005C006C007E58D
:0C30D600102404F886040886050886060D
:0E30E20074022CFCE43DFD8C828D838EF01276
:0A30F0006013FCA3126013FDA3128D
:0C30FA006013FEE5102404F8A60408A6EC
:0D3106000508A606D007D006D005023085CA
:0C311300E5102407F874022DF6E43E08D5
:0C311F00F608A607E5102404F886020854
:0E312B00860308860474022AFAE43BFB8A82BB
:0E3139008B838CF0126013FAA3126013FBA3B9
:0C314700126013FCE5102407F8868208D3
:0E31530086830886F0EA125996A3EB1259966D
:0C316100A3EC125996E5102407F88682B2
:0E316D000886830886F0126013FAA31260131E
:0E317B00FBA3126013FC74052AFAE43BFB8AE6
:0E318900828B838CF0ED125996A3EE125996AC
:0E319700A3EF12599674052DFAE43EFB8F0447
:0C31A5008A828B838CF0E5102404F8E68D
:0D31B100125996A308E6125996A308E612DB
:0C31BE005996E5102404F88602088603E8
:0E31CA0008860474022AFAE43BFB8A828B8397
:0E31D8008CF0ED125996A3EE125996A3EF1249
:0E31E6005996740B2DFDE43EFE8D828E838F74
:0C31F400F0A81008E6125996A308E61295
:093200005996A308E6125996A89C
:0B320900100886820886830886F012F9
:0C3214006013FA0AA8100886820886835E
:0B3220000886F0EA125996851081D054
:02322B0010226F
:0A322D00C010858110C082C083C06C
:0C323700F0E581240CF581A81008740259
:0E32430026FDE40836FE0886078D828E838FF6
:0C325100F0126013FAA3126013FBA3122A
:0C325D006013FCE510240AF874052AF642
:0B326900E43B08F608A604A81008E5E6
:0C327400102407F9740526F7E408360959
:0C328000F70809E6F7E5102407F886823D
:0E328C000886830886F0126013FAA3126013FE
:0C329A00FBA3126013FCE510240AF88668
:0E32A600820886830886F0EA125996A3EB127E
:0832B4005996A3EC125996E5AE
:0C32BC00102407F886820886830886F03C
:0B32C800126013FAA3126013FBA312A4
:0E32D3006013FC74022AFAE43BFB8D828E83AA
:0D32E1008FF0126013FDA3126013FEA31204
:0E32EE006013FF8A828B838CF0ED125996A339
:0A32FC00EE125996A3EF125996A89E
:0C3306001008740B26FAE40836FB088659
:0D331200048A828B838CF0126013FDA312DD
:09331F006013FEA3126013FFE528
:0C332800102404F8A60508A60608A60755
:0A333400E5102404F8E510240AF95E
:0E333E00740126F7E4083609F70809E6F7E5FA
:0C334C0010240AF886820886830886F0A8
:0B335800126013FDA3126013FEA3120D
:0C3363006013FFA81008E6B5050C08E692
:0A336F00B5060708E6B50702800264
:0233790080369C
:0C337B00E5102407F88682088683088687
:0C338700F0126013FDA3126013FEA312ED
:0C3393006013FFE510240AF8868208860B
:0E339F00830886F0ED125996A3EE125996A3FC
:0433AD00EF1259962C
:0D33B1008A828B838CF0E4125996A3E412FB
:0833BE005996A3E4125996E5AB
:0C33C600102404F886820886830886F034
:0C33D200126013FA1AE5102404F8868239
:0C33DE000886830886F0EA1259968510D4
:0433EA0081D010225C
:0A33EE00C010858110C082C083C0AA
:0B33F800F0058105810581A81008E5A3
:0C340300102404F9E6F70809E6F70809B0
:0B340F00E6F7A8100806B60002080649
:0C341A00E51024FCF886050886067F00FB
:0C3426007A008D03A810088682088683B7
:0E3432000886F0EB125996A31818A68208A679
:0C344000838E058F068A078D03A81008F4
:0E344C0086820886830886F0EB125996A31834
:0C345A0018A68208A683A8100886820825
:0E34660086830886F074AA125996A31818A639
:0C3474008208A683A810088682088683C0
:0E3480000886F07480125996A31818A68208C8
:0C348E00A683E51024F9F88605088606E0
:0C349A000886077A008D03A810088682BF
:0E34A6000886830886F0EB125996A31818A624
:0E34B4008208A6838E058F068A077A008D0394
:0C34C200A8100886820886830886F0EBBC
:0E34CE00125996A31818A68208A6838E058FA1
:0C34DC00068A07A810088682088683086C
:0E34E80086F0ED125996A31818A68208A68346
:0C34F600A8100886820886830886F074FF
:0D35020002125996A31818A68208A683A8E5
:0C350F00100886820886830886F074038A
:0C351B00125996A31818A68208A683A8CF
:0C352700100886820886830886F0740471
:0C353300125996A31818A68208A683A8B7
:0C353F00100886820886830886F0740558
:0C354B00125996A31818A68208A683A89F
:0C355700100886820886830886F074063F
:0C356300125996A31818A68208A683A887
:0C356F00100886820886830886F0740726
:0C357B00125996A31818A68208A683A86F
:0C358700100886820886830886F0E41293
:0C3593005996A31818A68208A683A81059
:0E359F000886820886830886F0740112599609
:0C35AD00A31818A68208A683A8100886A0
:0E35B900820886830886F0E4125996A318183B
:0C35C700A68208A683A810088682088649
:0E35D300830886F074BB125996A31818A682BE
:0C35E10008A683A81008868208868308CC
:0B35ED0086F07401125996A81008E542
:0C35F800102404F9E6C397FA08E60997CE
:0C360400E5102404F886820886830886FE
:0C361000F0EA125996E5102404F88682B6
:0A361C000886830886F0851081D02F
:02362600102270
:0E3628001238D490F90BE0FAA3E0FBA3E0FC0B
:0C3636008A828B838CF0126013F50DA3C8
:06364200126013F50E7585
:063648000F21850D8285B3
:05364E000E83E0F50809
:07365300050DE4B50D0205B1
:01365A000E61
:05365B00050FA80F851A
:093660000D82850E83E0FAF615D7
:0636690008E50870E5858C
:0A366F000F81D09FD010D0D0D00101
:0E367900D000D007D006D005D004D003D00278
:0E368700D0F0D083D082D0E020E705C2AF02A1
:02369500369964
:02369700D2AFB0
:06369900D0E07582012261
:01369F002208
:0E36A000C0E0C0A8C2AFC082C083C0F0C002AC
:0E36AE00C003C004C005C006C007C000C001B4
:0C36BC00C0D075D000C010C09F90F90B6A
:0E36C800E0FAA3E0FBA3E0FC8A828B838CF087
:0736D600126013F50DA312B1
:0536DD006013F50E75FD
:0936E2000F22E58124DFF50885C3
:0636EB000D82850E83F044
:0836F100E5086019050DE4B5C0
:0436F9000D02050EAB
:0736FD00850D82850E83A8F4
:073704000FE6FAF0050F15B6
:03370B000880E350
:0E370E0012165390F90BE0FAA3E0FBA3E0FCC7
:0C371C008A828B838CF0126013F50DA3E1
:06372800126013F50E759E
:06372E000F21850D8285CC
:053734000E83E0F50822
:07373900050DE4B50D0205CA
:013740000E7A
:05374100050FA80F8533
:093746000D82850E83E0FAF615F0
:06374F0008E50870E585A5
:0A3755000F81D09FD010D0D0D0011A
:0E375F00D000D007D006D005D004D003D00291
:0E376D00D0F0D083D082D0E020E705C2AF02BA
:02377B00377F96
:02377D00D2AFC9
:02377F00D0E098
:0E378100C2AFC0E0C0A8C2AFC082C083C0F01B
:0E378F00C002C003C004C005C006C007C000D1
:0C379D00C001C0D075D000C010C09F90CB
:0E37A900F90BE0FAA3E0FBA3E0FC8A828B831D
:0937B7008CF0126013F50DA31251
:0537C0006013F50E7519
:0937C5000F22E58124DFF50885DF
:0637CE000D82850E83F060
:0837D400E5086019050DE4B5DC
:0437DC000D02050EC7
:0737E000850D82850E83A810
:0737E7000FE6FAF0050F15D3
:0337EE000880E36D
:0737F100859509750A0075BA
:0A37F8000B00750C00AA967B007C04
:0B380200008C058B048A03E42509F507
:05380D0009EB350AF58E
:053812000AEC350BF586
:053817000BED350CF57E
:0C381C000CAA977B008B058A04E4FB25B6
:0538280009F509EB3574
:05382D000AF50AEC356C
:053832000BF50BED3564
:063837000CF50C744125A4
:05383D0009F509E43566
:053842000AF50AE4355F
:053847000BF50BE43558
:04384C000CF50C85E6
:063850000B97850A968526
:0638560009951214501246
:0E385C00165353C07F90F90BE0FAA3E0FBA3D4
:0C386A00E0FC8A828B838CF0126013F566
:063876000DA3126013F522
:05387C000E750F21850F
:073881000D82850E83E0F5C6
:013888000837
:07388900050DE4B50D020579
:013890000E29
:05389100050FA80F85E2
:093896000D82850E83E0FAF6159F
:06389F0008E50870E58554
:0A38A5000F81D09FD010D0D0D001C9
:0E38AF00D000D007D006D005D004D003D00240
:0E38BD00D0F0D083D082D0E020E705C2AF0269
:0238CB0038CFF4
:0238CD00D2AF78
:0538CF00D0E0D2AF3291
:0A38D40075C6B8859509750A0075E0
:0A38DE000B00750C00AA967B007C1D
:0B38E800008C058B048A03E42509F521
:0538F30009EB350AF5A8
:0538F8000AEC350BF5A0
:0538FD000BED350CF598
:0C3902000CAA977B008B058A04E4FB25CF
:05390E0009F509EB358D
:053913000AF50AEC3585
:053918000BF50BED357D
:06391D000CF50C744125BD
:0539230009F509E4357F
:053928000AF50AE43578
:05392D000BF50BE43571
:043932000CF50C85FF
:063936000B97850A96853F
:06393C00099543A82022BA
:0500EB0090F2B6E4F004
:0A394200C010858110C082C083E52B
:0C394C0081241AF581E5102411F8E4F63E
:0E39580008F608F612121390F2B6E0FF704A5D
:0839660090F2AC7418F0A37498
:0C396E00E1F0A3E4F090F2AFF0A3F090C1
:0E397A00F2B47494F0A37411F090F2B1E4F082
:0D398800A3F0A3F090E11B75F00074941201
:093995005996A374111259969081
:07399E00E11874B1F0A374FD
:0B39A500F2F0A3E4F090F2B67401F021
:0C39B000A81008E6084660149077A6E412
:0C39BC0093FF740193FCA81008EF26F69E
:0439C800EC0836F6DB
:0B39CC00A81008E608467003023C98B3
:0C39D700A81008C3E6949408E694114080
:0439E30003023C9807
:0939E700E5102406F876AC087620
:0C39F000F208760090F2ACE0FAA3E0FBD5
:0C39FC00A3E0FFA810080808A60208A617
:043A08000308A60702
:0C3A0C00A810080808740326FCE4083623
:0E3A1800FD0886068C828D838EF0126013FCF2
:0C3A2600A3126013FDA81008C3EC96ED7D
:0C3A320008965047A81008080886820873
:0E3A3E0086830886F0126013FCA3126013FB4F
:0C3A4C00A3126013FAEC4B4A6027A8108C
:0C3A5800080808E5102406F9E6F7080944
:0C3A6400E6F70809E6F78B058A06A810B3
:0D3A7000080808A60408A60508A606808F11
:0A3A7D00A810080808E6B4B10D080F
:0C3A8700E6B4F20808E6B40003023C9824
:0C3A9300E5102406F88682088683088669
:0C3A9F00F0126013FAA3126013FBA312D4
:073AAB006013FC9077A6E513
:0C3AB200102414F8E493F674019308F655
:0C3ABE00E5102414F8E62AFA08E63BFBA9
:0C3ACA00E5102411F8A60208A60308A6C7
:0C3AD60004A810080808868208868308EF
:0D3AE20086F0126013FFA3126013FCA31204
:0C3AEF006013FDE5102406F886820886AE
:0E3AFB00830886F0EF125996A3EC125996A399
:0C3B0900ED125996A81008080874032655
:0E3B1500FCE40836FD0886068C828D838EF057
:0B3B2300E510240EF8126013F6A31248
:0A3B2E00601308F6E510240EF8A954
:0C3B38001009E6C397C0E008E60997C03A
:0C3B4400E0E5102417F8D0E0F618D0E0FF
:0C3B5000F6E5102414F8860308E6CB25E7
:0C3B5C00E0CB33FAE5102416F8C3EB961A
:083B6800EA08964003023C98B4
:0A3B7000A810080808A91009E726AC
:0C3B7A00FA09E70836FB088607E510246E
:0C3B860009F8A60208A60308A607E5102F
:0C3B92002409F8E5102418F9740326F744
:0C3B9E00E4083609F70809E6F7E51024F2
:0C3BAA000EF8A91009E6C397FA08E60916
:0C3BB60097FBE5102418F886820886832F
:0E3BC2000886F0EA125996A3EB1259968C82EF
:0C3BD0008D838EF0A81008E6125996A311
:0C3BDC0008E6125996E510240CF8A60229
:093BE80008A6037CAC7DF27E000E
:0C3BF1008C828D838EF0E5102418F812F1
:0B3BFD006013F6A312601308F6A31279
:0C3C0800601308F6C004C005C006E510FB
:0E3C14002418F8740326FCE40836FD08860622
:0E3C22008C828D838EF0126013FCA31260134F
:0C3C3000FDE510240CF8C3EC96ED08969E
:0C3C3C00E433D006D005D0046015E5107C
:0E3C48002418F886020886030886078A048B73
:053C5600058F068096B9
:0C3C5B00E5102409F8868208868308869C
:0C3C6700F0E5102418F9E7125996A309A3
:0E3C7300E7125996A309E71259968C828D83A9
:0C3C81008EF0E5102409F8E6125996A315
:0B3C8D0008E6125996A308E6125996AB
:0C3C980012122CE5102411F88682088618
:0A3CA400830886F0851081D01022FD
:0A3CAE00C010E581F5102408F5812F
:0E3CB800AA82AB83ACF0EA4B4C7003023DBD18
:0E3CC6009077A6E493FD740193FEEAC39DFA85
:0C3CD400EB9EFBA81008A60208A603083F
:0E3CE000A604C002C003C004121213D004D008
:0E3CEE0003D00274032AFAE43BFB8A828B8324
:0C3CFC008CF0126013FAA3126013FBE5B9
:0A3D0800102404F8A60208A6037CAC
:053D1200AC7DF27E0013
:0C3D17008C828D838EF0E5102406F812DB
:0B3D23006013F6A312601308F6A31251
:0C3D2E00601308F6C004C005C006E510D4
:0E3D3A002406F8740326FCE40836FD0886060D
:0E3D48008C828D838EF0126013FCA312601328
:0C3D5600FDE5102404F8C3EC96ED08967F
:0C3D6200E433D006D005D0046015E51055
:0E3D6E002406F886020886030886078A048B5E
:053D7C00058F06809692
:0C3D8100A8100886820886830886F0E5FA
:0C3D8D00102406F9E7125996A309E7126A
:0E3D99005996A309E71259968C828D838EF0FD
:0B3DA700A81008E6125996A308E612C7
:093DB2005996A308E61259961275
:023DBB00122CC8
:063DBD00851081D01022E8
:0277A6000500DC
:0E3DC30043C68053C6BE43FD30C291D292D299
:0B3DD1009343FE0E12420F7582012288
:083DDC00E582FA6003C29322A4
:033DE400D2932255
:083DE700E582FA6003D291228B
:033DEF00C291225C
:083DF200E582FA6003D292227F
:033DFA00C2922250
:0A3DFD00C010858110AA82AB83ACD0
:0E3E0700F0C2AF8A828B83E8C0E0EAC0E0E53B
:0C3E1500C7C0E0E51024F9F8E6FA08E662
:0E3E2100F58408E64480F58508E61813E613DC
:083E2F00030354304401F5C700
:0E3E3700759201E493A3759200F0A3DAF3D024
:0E3E4500E0F5C7D0E0FAD0E0F8D2AF8A828B69
:0B3E5300838CF0126013F584D0102265
:083E5E00AA82AB837C007D0009
:0E3E6600C3EC9AED9B5008000CBC00F40D80DC
:013E7400F15C
:013E7500222A
:083E7600AA82AB837C007D00F1
:0E3E7E00C3EC9AED9B501D9003E8C002C003F8
:0E3E8C00C004C005123E5ED005D004D003D0A5
:083E9A00020CBC00DF0D80DC0E
:013EA20022FD
:0A3EA300C010E581F5102404F5813C
:0E3EAD00AA82AB83ACBD8C057C00AEBC7F004E
:0E3EBB00EE2CFCEF3DFD90F918E0FEA3E0FFB9
:0E3EC90090F918EC2EF0ED3FA3F08595BC901B
:0C3ED700F918E0FCA3E0FDA81008A60408
:0E3EE30008A6050876000876007C007D00C069
:0C3EF10002C003C004C005A810088682AF
:0E3EFD000886830886F008E61260B0ACF0FD7F
:0E3F0B00E58124FCF5818C028D038A828B8374
:063F1900851081D010228A
:02786400FACB5D
:020000040001F9
:0E800000AA82AB83ACF0126013FDBD010280BA
:01800E002B46
:05800F00BD0202800328
:03801400BD032386
:0C801700740DC0E0E4C0E0741AC0E07416
:0C802300F9C0E0E4C0E08A828B838CF09E
:0B802F00125EA6E58124FBF581802194
:0C803A00740DC0E0E4C0E07427C0E074E6
:0C804600F9C0E0E4C0E08A828B838CF07B
:09805200125EA6E58124FBF58114
:04805B007582012207
:0E805F00AA82AB83ACF0126013FDBD0102805B
:01806D0025ED
:05806E00BD02028003C9
:03807300BD031D2D
:0E807600740DC0E0E4C0E0C002C003C004907E
:0E808400F91A75F000125EA6E58124FBF58165
:0180920022CB
:0E809300740DC0E0E4C0E0C002C003C0049061
:0E80A100F92775F000125EA6E58124FBF5813B
:0180AF0022AE
:020000040000FA
:0D7866000000000000000000000000000015
:0D7873000000000000000000000000000008
:0A3F1F00C010858110AA828AF00507
:053F2900F074018002AC
:023F2E0025E08C
:0C3F3000D5F0FB540FFB6068EA2A243433
:0C3F3C00FAE434F9FC8A828C83E0FDA3D7
:0C3F4800E0FE4D700F8A828C83E510248F
:083F5400FCF8E6F0A308E6F01A
:0C3F5C008A828C83E0FAA3E0FCE51024CC
:0D3F6800FCF8E6B5020708E6B50402800289
:023F75008029A1
:0C3F7700E51024FBF8E66005438C018097
:013F8300033A
:033F8400538CFE5D
:0E3F8700EBF4FA5289EB54F06005438C108085
:013F95000328
:033F9600438C0851
:073F9900D2BD758201800317
:033FA00075820027
:033FA300D0102219
:0A3FA600C010858110AA828AF00580
:053FB000F07401800225
:023FB50025E005
:073FB700D5F0FBFBBA01008D
:093FBE004007EA24FB40027B00ED
:0A3FC700EB6062EA2A2444FAE434B5
:0C3FD100F9FC8A828C83E0FDA3E0FE4D29
:0C3FDD00700F8A828C83E51024FCF8E64B
:053FE900F0A308E6F062
:0C3FEE008A828C83E0FAA3E0FCE510243A
:0D3FFA00FCF8E6B5020708E6B504028002F7
:02400700802314
:0C400900EBF4FA528DE51024FBF8E660A1
:0640150005438C0280034C
:03401B00538CFDC6
:0E401E00EA528AEB428D439A107582018003AC
:03402C007582009A
:03402F00D010228C
:0C403200C020C0E0C0F0C082C083C0020B
:0E403E00C003C004C005C006C007C000C0011A
:0B404C00C0D075D000C2AF7A017B002D
:03405700BB0800A3
:0C405A00503AEA5589602FEB2B2434F516
:0C40660082E434F9F583E0FCA3E0FD4C9B
:0E4072006017C002C003C004C0058C828D839D
:0B40800012008BD005D004D003D0024A
:05408B00EAF4FC52897B
:06409000EA2AFA0B80C1D0
:0E409600C2C5D2AFD0D0D001D000D007D00626
:0E40A400D005D004D003D002D083D082D0F05B
:0540B200D0E0D0203237
:0C40B700C020C0E0C0F0C082C083C00286
:0E40C300C003C004C005C006C007C000C00195
:0B40D100C0D075D000C2AF7A017B00A8
:0340DC00BB040022
:0C40DF00503AEA558A602FEB2B2444F580
:0C40EB0082E434F9F583E0FCA3E0FD4C16
:0E40F7006017C002C003C004C0058C828D8318
:0B41050012008BD005D004D003D002C4
:05411000EAF4FC528AF4
:06411500EA2AFA0B80C14A
:0E411B00C2EBD2AFD0D0D001D000D007D0067A
:0E412900D005D004D003D002D083D082D0F0D5
:05413700D0E0D02032B1
:0E7880000000000000000000000000000000FA
:02788E000000F8
:0E7890000000000000000000000000000000EA
:02789E000000E8
:0E413C00AA8275CB0075CC008ACDD2BB75CBA4
:05414A00BE7582002299
:04414F0075CB00220A
:0E415300AA8275EB0075EC008AEDD2BC75EB0C
:05416100BE7582002282
:0441660075EB0022D3
:08416A00C2AF75E400D2AF32D0
:0B417200C2AF53C3DF75C300D2AF32F1
:0C417D00C020C0E0C0F0C082C083C002BF
:0E418900C003C004C005C006C007C000C001CE
:0E419700C0D075D000C2AF75D83875CB0012FD
:0E41A5004AF7D2AFD0D0D001D000D007D0065C
:0E41B300D005D004D003D002D083D082D0F04B
:0541C100D0E0D0203227
:0C41C600C020C0E0C0F0C082C083C00276
:0E41D200C003C004C005C006C007C000C00185
:0E41E000C0D075D000C2AF75D80775EB0012C5
:0E41EE006793D2AFD0D0D001D000D007D0065A
:0E41FC00D005D004D003D002D083D082D0F002
:05420A00D0E0D02032DD
:0E420F007420C0E0E4C0E0E4C0E090F2B775B7
:0E421D00F000125E3B1581158115817A007B41
:01422B000092
:0E422C00C3EA9404EB9400501E8A04EBCC25E8
:0B423A00E0CC33FDEC24D7F582ED341E
:0C424500F2F583E4F0A3F00ABA00DC0BF1
:0242510080D912
:0A4253007AB77BF28BD38AD2D2B87F
:01425D00223E
:07425E00C2AFC2C0D2AF32B3
:05426500AA82BAE0008E
:07426A00403DBAE2028008AA
:05427100BAE302800326
:03427600BAE52D79
:0E42790090DF53E0FBA3E08AE1900001C00358
:0E428700123E5ED00390DF53E0FCA3E0FD7E0C
:0A42950000EBB50405EEB5050122AB
:07429F0075E1E675E1E6227E
:0342A6008AE12288
:0C42A900BADE1053E9FD75E1DF75E1FE9F
:0742B500E5E920E10480F9B6
:0242BC008AE195
:0142BE0022DD
:0542BF00AA82BA0B0009
:0742C4004005EA24E5500467
:0442CB007582FF22D7
:0E42CF007582FFC0021242657582E5124265DB
:0E42DD00D0028A037C00EB24F5FBEC34FFFCDE
:0E42EB00C002C003C004900005125B49AD8202
:0E42F900AE83158115818D038E0474652BFB39
:0E43070074013CFC4304408C057E0090DF10E6
:0E431500EDF0A3EEF090DF11EBF0A3E4F075F5
:0E43230082E2124265D00275E1E675E1E68A9B
:024331008222E6
:0B433300E582FA249B50047582FF22F3
:0E433E00EA75F01FA4FBACF0C0027464C0E08E
:0E434C00E4C0E08B828C83125944AD82AE83B4
:0E435A0015811581D0028D038E0474602BFB3B
:0E43680074A13CFC8C057E0090DF0AEDF0A3F2
:0E437600EEF090DF0BEBF0A3E4F090F2DFEA44
:04438400F08A822217
:0E43880090F2E0E0FA20E73E90DF4F747FF005
:0D439600E4A3F090DF0674D2F0E4A3F090F1
:0E43A300F2E074804AF090DF17E0FAA3E0FB2E
:0A43B10090DF1774F75AF0A3EBF049
:0843BB00E5E930E7FB53BEFB0E
:0B43C300E5BE30E6FB7582E2124265A9
:0A43CE0075E1E675E1E67582012253
:0D43D8007582FF1242657582E51242659004
:0E43E500DF17E0FAA3E0FB90DF1774084AF040
:0C43F300A3EBF090F2E0E4F075820122F0
:0743FF0075D68175820122D1
:0B44060090F954E0FA60047582012276
:0E44110090DF17E0FAA3E0FB90DF1774F75A74
:04441F00F0A3EBF02B
:0E44230090DF17E0FAA3E05302107B00BA010D
:0644310005BB000280EC57
:08443700E5E930E7FB53BEFB91
:0E443F00E5BE30E6FB90F2E0E4F090F2E3F030
:0E444D0090DF547401F0E4A3F090DF027402DB
:0E445B00F0E4A3F090DF0374E2F0E4A3F0902D
:0E446900DF047430F0E4A3F090DF05E4F0A36C
:0E447700F090DF0C7432F0E4A3F090DF0D74CF
:0E448500F5F0E4A3F090DF60E0FAA3E08A0314
:0E4493007A0090DF61E0FCA3E0FD90F2E1EC26
:0E44A1002AF0ED3BA3F07582121242BF758225
:0E44AF00641243337582E71242657582E6128D
:0E44BD00426575912053E9DF539BFC439A0141
:0A44CB0090F9547401F0758201228B
:0A44D500C0108581100581058105E6
:0E44DF0081AA82AB83ACF0126013FDBD010216
:0244ED00805AF3
:0644EF00BD02030245CFEF
:0644F500BD03030245892E
:0544FB00BD0402800376
:034500000246016F
:0E45030074012AFDE43BFE8C07C002C003C019
:0E4511000474082DFAE43EFB8F048A828B832B
:0E451F008CF012601390DF4BF0A3E4F07409EF
:0E452D002DFDE43EFE8D828E838FF012601312
:0E453B00FD90DF4CF0A3E4F0D004D003D002DA
:0C454900A8100874012AF6E43B08F608EC
:08455500A6047A437BDF7C0021
:03455D00BC080097
:054560004003024601CA
:0C456500A81008EC26FEE40836FF0886CB
:0E457100058E828F838DF0126013FE8A828B7E
:0A457F0083F0A3AA82AB830C80D462
:0E45890074012AFDE43BFE8C07C002C003C093
:0E4597000474022DFAE43EFB8F048A828B83AB
:0E45A5008CF012601390DF4BF0A3E4F074036F
:0E45B3002DFDE43EFE8D828E838FF01260138C
:0E45C100FD90DF4CF0A3E4F0D004D003D00254
:0545CF000ABA00010B17
:0D45D4008A058B068C078D828E838FF01276
:0E45E1006013FD90DF4DF0A3E4F00ABA000174
:0145EF000BC0
:0E45F0008A828B838CF0126013FA90DF4EF0FB
:0345FE00A3E4F043
:06460100851081D010229B
:0C460700AA8290F2E3E4F0BA0102803BCA
:05461300BA0202800A5A
:05461800BA0302800B53
:05461D00BA057A80528D
:0646220090F2E37401F0C8
:0E46280090DF02E0FAA3E0FB90DF0274104A7C
:0D463600F0A3EBF090DF03E0FAA3E0FB90AF
:0B464300DF0374EF5AF0A3EBF080706F
:0E464E0090DF02E0FAA3E0FB90DF0274184A4E
:0D465C00F0A3EBF090DF03E0FAA3E0FB9089
:0B466900DF0374104AF0A3EBF0804A5E
:0E46740090DF02E0FAA3E0FB90DF0274084A38
:0D468200F0A3EBF090DF03E0FAA3E0FB9063
:0B468F00DF0374EF5AF0A3EBF080246F
:0E469A0090DF02E0FAA3E0FB90DF0274E75A23
:0D46A800F0A3EBF090DF03E0FAA3E0FB903D
:0946B500DF0374EF5AF0A3EBF0EF
:0446BE0075820122DE
:0E46C200900080123E5E90DF07E0FAA3E0EA6F
:0546D00024D3F5822255
:0A46D500C0108581107A017582E2A1
:0E46DF00C002124265900010123E5E90001064
:0D46ED00123E5E900010123E5E9000101212
:0C46FA003E5ED002A810181818B600028E
:02470600804DE4
:0C470800A810181818B6015390DF62E0EA
:0C471400FBA3E0FCEB30E0357B017C00F7
:05472000BB0002803E19
:07472500EC24FE50027B00B2
:0E472C009000FAC002C003C004123E5ED0042A
:0E473A00D003D00290DF62E0FDA3E0FEED2090
:06474800E0047B007A0092
:03474E000C80CF0D
:044751007A00800E5C
:0E47550090DF62E0FBA3E0FCEB20E0027A00C4
:054763008A82D0102243
:0B476800E582FA60067582E9024265F6
:064773007582E8024265B8
:0A477900C010858110C082C083C00B
:0C478300F0E581240CF581E5102404F819
:0C478F007601A81008742226FEE408360B
:0E479B00FF0886058E828F838DF0126013FE5C
:0947A900A3126013FFA81008E53B
:0C47B20010240AF9742026F7E4083609E8
:0C47BE00F70809E6F7E510240AF88682E7
:0E47CA000886830886F0126013FDA3126013A8
:0C47D800FAEEC39DFEEF9AFFE5102405E9
:0E47E400F8A60608A60790F2E0E0FC30E60614
:0647F20075820002492956
:0747F800EC20E703124388E7
:0C47FF00E5102405F8C37480967480084F
:0D480B0086F063F08095F0E433FC6003025A
:02481800491045
:0C481A00C004A81008742C26FDE4083629
:0C482600FE088607E510240AF8868208C8
:0E48320086830886F0126013FCA3126013FA4E
:0C484000EC2DFDEA3EFEE5102407F8A672
:0D484C000508A60608A6077582E7C004123D
:0C4859004265D004E5102405F8860274C6
:0C486500022AF5D9D004E5102407F886DB
:09487100020886030886057E009A
:0C487A00C0048E077C00E5102405F8C384
:0E488600EF96EC64800886F063F08095F0E415
:0E48940033D00460138A828B838DF012601380
:0A48A200F5D9A3AA82AB830E80CEE5
:0E48AC0075D90075D900C004E4C0E075820023
:0E48BA001246D5AA821581D004EA7004F58258
:0248C800805F0F
:0E48CA0053E9BF7582E3C004124265D0047A40
:0148D80000DF
:0E48D90090DF62E0FBA3E0FDEB20E4188A0311
:0448E7000ABB030005
:0E48EB00501090000AC002C004123E5ED004BD
:0448F900D00280DC8D
:0D48FD0090DF62E0FAA3E0FBEA20E407E5AB
:06490A00102404F8760001
:0C491000E5102404F8B6010AEC6007E58D
:06491C00102404F87600EF
:07492200E5102404F8868271
:06492900851081D0102270
:0A492F00C010858110C082C083C053
:0C493900F0058105810581A81008868228
:0C4945000886830886F01267E7A81008B7
:0E49510086820886830886F0126013600302D7
:02495F004AED1F
:0E4961007408C0E074F8C0E074FFC0E0740198
:0E496F00C0E0E4C0E090F2E975F000123DFDFA
:0C497D00E58124FBF581A81008740126D8
:0A498900FDE40836FE0886077A00F8
:03499300BA08005F
:0C49960050337407C39AA81008080808E2
:0C49A2002DF6E43E08F608A607EA24E91A
:0A49AE00F582E434F2F583E0FCE545
:0C49B800102404F886820886830886F02C
:0749C400EC1259960A80C8AD
:0C49CB00A8100886820886830886F07415
:0C49D70004125996A81008740126FDE493
:0E49E3000836FE0886077401C0E08D828E83C0
:0E49F1008FF012683BAD821581BD010280037C
:0349FF00024AABBE
:074A02009077A8124E61A895
:0C4A09001008740126FDE40836FE088643
:0E4A1500078D028E038F048A828B838CF0E45F
:0E4A230012599674012DFAE43EFB8F048A822C
:0E4A31008B838CF0E412599674022DFAE43E49
:0E4A3F00FB8F048A828B838CF0E412599674EC
:0E4A4D00032DFAE43EFB8F048A828B838CF0EB
:0E4A5B00E412599674042DFAE43EFB8F048A8F
:0E4A6900828B838CF0E412599674052DFAE4CA
:0E4A77003EFB8F048A828B838CF0E4125996EA
:0E4A850074062DFAE43EFB8F048A828B838C2C
:0E4A9300F0744412599674072DFDE43EFE8D1A
:0A4AA100828E838FF0744412599640
:0C4AAB00A81008740126FDE40836FE087F
:0E4AB700860774082DFAE43EFB8F048A828B7A
:0E4AC500838CF074FF12599674092DFDE43EA7
:0D4AD300FE8D828E838FF074FF125996A81D
:0B4AE000100886820886830886F0120A
:024AEB00688FD2
:094AED00758201851081D01022B0
:014AF600229D
:084AF70090F2E0E054BFF02250
:0C4AFF00C020C0E0C0F0C082C083C00234
:0E4B0B00C003C004C005C006C007C000C00142
:0A4B1900C0D075D000C010E581F592
:0C4B2300102407F581C2AFE5E930E6126E
:0E4B2F0090F2E0E0FA30E50790F2E074206AC0
:014B3D00F087
:034B3E0053E9BF79
:084B4100E5E920E503024DD473
:0D4B490090DF62E0FAA3E0FBEA20E3030244
:024B56004DC54B
:0A4B5800A81008A6D9A81008E6541A
:0B4B62007FF6A81008E624FB400302C9
:024B6D004DB742
:0E4B6F0090F2E4E5D9F0E0FB53030790F2F278
:0E4B7D00EBF0BB022C90F2E5E5D9F090F2E6E9
:0E4B8B00E5D9F090F2E7E5D9F090F2E8E5D92F
:094B9900F0E0FB20E703024DD11E
:0A4BA20090F2E6E0F5821268E302EB
:024BAC004DD1E9
:0B4BAE00A8100808E4F608F608F6A8B6
:0A4BB900100816A81008E660151297
:094BC3006937AE82BE0102800BCD
:0B4BCC00A8100876007582E612426512
:0C4BD700A81008E6601512698BAE82AFD2
:0C4BE30083AAF0A8100808A60608A60780
:034BEF0008A60213
:094BF200A81008E67003024DAFA3
:0C4BFB00A8100808E608460846700302EF
:024C07004DAFAF
:0C4C0900A8100808742C26FAE40836FEF7
:0E4C150008860790F2E4E0FB8A828E838FF01F
:0E4C2300125996A3AA82AE83EB54206003754B
:024C3100E1E8B8
:074C3300A8100816167B0013
:0C4C3A00A81008C3EB9650138A828E83EA
:0E4C46008FF0E5D9125996A3AA82AE830B8097
:014C5400E57A
:0C4C5500A8100808742626FAE40836FBB4
:0C4C6100088604E5102405F874012AF60A
:0D4C6D00E43B08F608A604E5D924D3FDE5D4
:0C4C7A00102405F886820886830886F066
:0E4C8600ED12599674022AFAE43BFB8A828BE7
:0E4C9400838CF0E5D91259968A828B838CF0BE
:0A4CA200126013FA20E703024D80B0
:0A4CAC00A8100806A81008087426D6
:0E4CB60026FAE40836FB0886048A828B838C7B
:0C4CC400F0E4125996A810080886820837
:0E4CD00086830886F0E4125996A3E4125996E2
:0C4CDE00A3E4125996A8100808742026C0
:0E4CEA00FAE40836FB0886048A828B838CF07D
:0A4CF800E4125996A3E4125996A89D
:0C4D0200100808742226FAE40836FB08AA
:0C4D0E008604A8100886057E008A828BAF
:0D4D1A00838CF0ED125996A3EE125996A865
:0C4D2700100808742626FAE40836FB0881
:0E4D3300860474022AFAE43BFB8A828B838C8E
:0E4D4100F0126013FD53057F8A828B838CF085
:0C4D4F00ED125996A8100808741F26FAEF
:0E4D5B00E40836FB0886048A828B838CF0E421
:0C4D6900125996A810080886820886835C
:0B4D75000886F01269DF126A338051DB
:0C4D8000A8100808742226FAE40836FB8C
:0E4D8C000886048A828B838CF0E4125996A369
:0C4D9A00E4125996A810080886820886CA
:094DA600830886F0126A8780225E
:084DAF007582E6124265801ACC
:0E4DB7007582E61242657582E6124265800C36
:0C4DC5007582E61242657582E6124265B6
:034DD10053E9DFC4
:0C4DD400539BFC439120D2AF851081D08E
:0C4DE00010D0D0D001D000D007D006D0F9
:0E4DEC0005D004D003D002D083D082D0F0D006
:044DFA00E0D02032B3
