:020000040000FA
:0600000002008B024251D8
:01000B0032C2
:0100130032BA
:03001B000244FBA1
:0100230032AA
:03002B00022D841F
:01003300329A
:01003B003292
:0300430002364939
:03004B0002355526
:0300530002355D16
:03005B0002356803
:030063000235B1B2
:01006B003262
:01007300325A
:01007B003252
:03008300023F3603
:0300EE0002008687
:050086001200F180FEF4
:0E00F1001233CBD284D285124D10E4C0E0C091
:0E00FF00E0C0E0E4C0E0E4C0E0C0E0C0E074B7
:0B010D00DCC0E0E4C0E0748CC0E074D3
:0B0118005CC0E07480C0E09001321277
:0E012300018EE58124F4F5811208C6900000DB
:0101310022AB
:04013200C285C2843C
:0E01360090F3CCE0FA70089003E812055C80AC
:01014400F1C9
:0E01450090F3CCE0FA60EA7B00C002C00390A9
:0E01530003E8124760AA82AB8315811581E490
:0E016100FCFD740AC0E0E4C0E0C0E0C0E08A2B
:0E016F00828B838CF0ED1248BDAA82AB83E533
:0D017D008124FCF5818A828B8312055C12BF
:04018A004D6480B789
:055C8C004D61696E008E
:0500E40090E066E4F06D
:0A018E00C010858110C082C08305F7
:0C0198008105810581E51024F9F88682BC
:0D01A4000886831212F1AC82AD83AEF0A884
:0C01B10010080808A60408A60508A60609
:0C01BD00A810080808B6000B08B60007E0
:0701C90008B6000302037FEA
:0A01D000E51024F5F8E6C0E0E510A4
:0E01DA0024FBF8E6C0E008E6C0E008E6C0E05E
:0C01E800E51024F9F8E6C0E008E6C0E0ED
:0C01F400A8100808088682088683088688
:0C020000F012111DE58124FAF581A81010
:0E020C00080808742026FFE40836FA08860366
:0E021A008F828A838BF0124B0CFFA3124B0CC9
:0C022800FAA3124B0CFBE51024F6F8E6DC
:0C023400C0E008E6C0E008E6C0E0A8104A
:0E02400008E6C0E008E6C0E08F828A838BF0FB
:0E024E001229F1AA82AB83AFF0E58124FBF503
:0C025C0081A81008080886820886830824
:0E02680086F0EA1245ADA3EB1245ADA3EF12EE
:0E02760045ADC0E0C0A8C2AF90F5E6E024019F
:0C028400F090F5E6E0FABA0117A81008A7
:0E029000080890F5E3E6F008A3E6F008A3E600
:06029E00F012128A803FFD
:0E02A40090F5EBE0FA703890F5E3E0FAA3E095
:0E02B200FBA3E0FF741F2AFAE43BFB8A828B59
:0C02C000838FF0124B0CFAE51024F5F8C7
:0B02CC00C3E69A4012A8100808089032
:0C02D700F5E3E6F008A3E6F008A3E6F06B
:0C02E300A810080808741F26FAE408366A
:0E02EF00FB0886078A828B838FF0124B0CFA75
:0E02FD0090F5E9E0FBC39A500590F5E9EAF0B0
:0C030B00A810080808742326FBE408363C
:0E031700FF08860490E066E0FD8B828F838CE9
:0B032500F01245AD90E066ED04F09092
:0D033000F5EAE0FBC39A500590F5EAEAF00B
:0C033D00A810080808740326FBE408362A
:0C034900FC088605EA75F00CA42400FAFC
:0C035500E434E0FE7F00C003C004C005DB
:0E0361008A828E838FF01223D61581158115A6
:0E036F00817A01D0E053E080E5E042A8D0E0C2
:02037D008002FC
:02037F007AFF03
:0C038100BA0163E51024F2F88603088638
:0E038D0004088605BB0008BC0005BD00028008
:01039B001B46
:0C039C008B828C838DF0A810080808E606
:0D03A8001245ADA308E61245ADA308E6120C
:0203B50045AD54
:0E03B70090F5EBE0FB602990F5E3E0FBA3E09E
:0E03C500FCA3E0FD741F2BFBE43CFC8B828C40
:0C03D300838DF0124B0CFBE51024F5F8B4
:0803DF00C3EB965003122CA39E
:0803E7008A82851081D01022EA
:0A03EF00C010858110C082C083C0D9
:0B03F900F00581E5102404F8760012E6
:0C0404000918A810088682088683088664
:0B041000F0124B0CFEA3124B0CFFE59A
:0C041B001024FCF8E62EFD08E63FFA8DE8
:0E0427000390F5E7E0FCA3E0FDC3EC9EED9F23
:0E043500501FC3EB9EEA9F503590F5E7E0FCA8
:0C044300A3E0FDC3EC9BED9A5026E510F1
:07044F002404F87601801D72
:0E045600C3EB9EEA9F400F90F5E7E0FCA3E0A9
:08046400FDC3EC9BED9A50076B
:07046C00E5102404F87601FD
:0C047300A8100886820886830886F0EB3B
:09047F001245ADA3EA1245ADE5FA
:0A048800102404F8E6700302054B8F
:0E04920090F5E3E0FCA3E0FDA3E0FE74032C74
:0E04A000FCE43DFD8C828D838EF0C002C00313
:0E04AE00122830D003D00290F5E3E0FCA3E06A
:0E04BC00FDA3E0FE74032CFCE43DFD8C828D5C
:0D04CA00838EF0EB1245ADA3EA1245AD9014
:0E04D700F5E7E0FCA3E0FDC3EB9CEA9D50348A
:0E04E50090F5E3E0FAA3E0FBA3E0FC74032A29
:0E04F300FAE43BFB90E04BE0FDA3E0FEA3E04B
:0E050100FFC002C003C0048D828E838FF012F3
:0A050F0025951581158115818032B4
:0E05190090F5E3E0FAA3E0FBA3E0FC74032AF4
:0E052700FAE43BFB90E048E0FDA3E0FEA3E019
:0E053500FFC002C003C0048D828E838FF012BF
:08054300259515811581158134
:0B054B00120931E582FA7003122CA3A4
:06055600851081D0102287
:0D055C00AA82AB837C00EA4B7003020642CA
:0E056900C002C003120918D003D00290F5E7BB
:0E057700E0FDA3E0FEEA2DFAEB3EFB90F5E37B
:0E058500E0FDA3E0FEA3E0FF74032DFDE43EC5
:0E059300FE8D828E838FF0C002C003122830CE
:0E05A100D003D00290F5E3E0FDA3E0FEA3E05E
:0E05AF00FF74032DFDE43EFE8D828E838FF0DF
:0A05BD00EA1245ADA3EB1245AD9024
:0E05C700F5E7E0FDA3E0FEC3EA9DEB9E503495
:0E05D50090F5E3E0FAA3E0FBA3E0FD74032A37
:0E05E300FCE43BFB90E04BE0FEA3E0FFA3E056
:0E05F100FAC004C003C0058E828F838AF01208
:0A05FF0025951581158115818032C4
:0E06090090F5E3E0FAA3E0FBA3E0FD74032A02
:0E061700FCE43BFB90E048E0FEA3E0FFA3E024
:0E062500FAC004C003C0058E828F838AF012D3
:08063300259515811581158143
:07063B00120931AA828A04B2
:06064200EC7003022CA382
:01064800228F
:0A064900C010E581F5102406F581CC
:0D065300AA82AB83ACF0C0E0C0A8C2AF909B
:0E066000F5E3E0FDA3E0FEA3E0FFEAB5050E22
:0E066E00EBB5060AECB507067A007B007C00AF
:0B067C00E4BA0007BB0004BC0001044E
:0C068700FD601290F5E3A81008E0F6A357
:09069300E008F6A3E008F6800B74
:0B069C00A81008A60208A60308A60488
:0C06A700C005A81008860208860308861B
:0E06B3000474032AFEE43BFF8C058E828F83C5
:0E06C1008DF0C002C003C004C005122830D066
:0C06CF0005D004D003D002E5102404F88C
:0C06DB0074112AF6E43B08F608A604E5BA
:0C06E700102404F8740B26FDE40836FE15
:0E06F3000886078D828E838FF0124B0CFDA3BC
:0E070100124B0CFEA3124B0CFFED4E4FD00519
:0C070F006020E5102404F8868208868330
:0E071B000886F0C002C003C004C005122830DA
:08072900D005D004D003D0027A
:0E07310074032AFAE43BFBC005C002C003C0FB
:0E073F000490E05A75F0001223D61581158142
:0E074D001581D005D0E053E080E5E042A8D051
:07075B00E0ED6003122CA386
:06076200851081D0102279
:0A076800C010858110C082C083C05C
:0B077200F0E5812408F581A81008E5DF
:0C077D00102404F9E6F70809E6F7080963
:0C078900E6F7A81008B6000B08B6000741
:0707950008B600030208C0D2
:0E079C00C0E0C0A8C2AF90F5ECE0FD60030223
:0207AA000880C5
:0C07AC00A81008741F26FDE40836FE08A3
:0C07B80086078D828E838FF0E5102408E8
:0E07C400F8124B0CF690F5E3E0FBA3E0FCA36B
:0E07D200E0FA741F2BFBE43CFC8B828C838AC4
:0C07E000F0124B0CFBE5102408F8C3E6F7
:0C07EC009BB3E433FBE5102407F8A603E0
:0C07F800A81008740326FBE40836FC0877
:0E08040086028B828C838AF0C005C006C00776
:0E081200122830D007D006D0058D828E838F3D
:0E082000F0124B0CFA90F5EAE0FBC39A50057B
:05082E0090F5EAEAF07C
:0C083300E5102404F8740326FAE40836EB
:0C083F00FB088604E5102404F8741F2652
:0E084B00FDE40836FE0886078D828E838FF04E
:0C085900124B0C75F00CA42400FDE434DC
:0C086500E0FE7F00C002C003C0048D82D2
:0E0871008E838FF01223D6158115811581809C
:01087F002A4E
:0A088000E5102407F87600A8100820
:0E088A00741126FAE40836FB088604C002C08A
:0E08980003C00490E04E75F0001223D61581C7
:0408A6001581158122
:0C08AA00D0E053E080E5E042A8D0E0E59B
:0A08B600102407F8E66003122CA3DB
:0608C000851081D010221A
:0E08C600E4C0E0C0E0C0E0E4C0E0E4C0E0C098
:0C08D400E0C0E07450C0E0E4C0E07491AB
:0B08E000C0E0745CC0E07480C0E090D9
:0E08EB00111812018EAA82E58124F4F581BA5B
:0E08F9000112C2AF90F5EB7401F090F5E7E448
:06090700F0A3F0022C2B0E
:01090D0022C7
:0A090E00C2AF90F5EBE4F0022CA25A
:0E091800C0E0C0A8C2AF90F5ECE02401F0D022
:0B092600E053E080E5E042A8D0E022B2
:0A093100C010E581F5102406F581E1
:0C093B00A810087600C0E0C0A8C2AF9071
:09094700F5ECE01490F5ECF090E1
:09095000F5ECE0FB6003020B086A
:0A09590090F5E6E0FB7003020B08C6
:06096300A8100808760050
:0A09690090E04EE0FCE4BC00010445
:04097300FCB40100CF
:0E097700E433FC603190E05475F000124B0C3C
:0E098500FCA3124B0CFDA3124B0CFE74082CAD
:0E099300FCE43DFD8C828D838EF0124B0CFC3B
:0C09A100A3124B0CFDA3124B0CFE8006B1
:0609AD007C007D007E00CD
:0E09B3008C078D038E02BC0009BD0006BE003D
:0409C10003020AC85B
:0E09C50074112FFCE43BFD8A068C828D838E1C
:0E09D300F0C002C003C007122830D007D003C6
:0E09E100D00274032FFCE43BFD8A068C828D4D
:0E09EF00838EF0C002C003C007122830D0076C
:0E09FD00D003D002741F2FFCE43BFD8A068C51
:0B0A0B00828D838EF0A81008080812EE
:0E0A16004B0CF6C007C003C00290F5EAE0FAF0
:0C0A2400A810080808C3EA96E433D002CA
:0C0A3000D003D007600AA8100808089046
:040A3C00F5EAE6F001
:0C0A4000E5102404F874032FF6E43B08D2
:0E0A4C00F608A6028C828D838EF0124B0C757C
:0A0A5A00F00CA42400FAE434E0FBE1
:0C0A64007F00C004C005C006E51024049B
:0E0A7000F8E6C0E008E6C0E008E6C0E08A82D2
:0E0A7E008B838FF01223D6158115811581D040
:0E0A8C0006D005D0048C828D838EF0124B0CA8
:0E0A9A00FC90F5E3E0FAA3E0FBA3E0FD741F7F
:0E0AA8002AFAE43BFB8A828B838DF0124B0C02
:090AB600FAC3EC9A50030209692D
:090ABF00A810080876010209697B
:070AC80090F5EDE0FA601B60
:0B0ACF0090F5EDE0FA600E120B559060
:0A0ADA00F5EDE01490F5EDF080EB6F
:060AE400A81008087601CD
:090AEA00A8100808B601028008FA
:080AF30090F5EEE0FABA010DE6
:0B0AFB00A81008760190F5EEE4F01260
:020B06002CA31E
:0C0B0800D0E053E080E5E042A8D0E0A877
:080B140010088682851081D0D3
:020B1C001022A5
:0E0B1E00C0E0C0A8C2AF90F5E7E0FAA3E0FB8C
:0E0B2C00D0E053E080E5E042A8D0E08A828B62
:020B3A00832214
:0E0B3C00C0E0C0A8C2AF90F5E6E0FAD0E053EA
:0B0B4A00E080E5E042A8D0E08A8222B3
:080B5500C0108581100581909C
:090B5D00F5ECE0FA6003020D3E24
:0D0B660090F5E7E02401F0A3E03400F090EA
:0E0B7300F5E7E0FAA3E0FB4A702C90E048E0C2
:0E0B8100FAA3E0FBA3E0FC90E04BE0FDA3E054
:0E0B8F00FEA3E0FF90E048EDF0A3EEF0A3EF30
:0C0B9D00F090E04BEAF0A3EBF0A3ECF0CA
:0E0BA90090E048E0FAA3E0FBA3E0FC8A828B18
:0C0BB700838CF0124B0CFAE4BA0001042D
:040BC300FAB401007F
:0E0BC700E433FA604A90E048E0FAA3E0FBA3B2
:0E0BD500E0FC74042AFAE43BFB74022AFAE402
:0E0BE3003BFB8A828B838CF0124B0CFAA31220
:0E0BF1004B0CFBA3124B0CFC74082AFAE43BDD
:0D0BFF00FB8A828B838CF0124B0CFAA31240
:0A0C0C004B0CFBA3124B0CFC8006FE
:060C16007A007B007C0067
:0E0C1C008A058B068C07BA0009BB0006BC00D7
:040C2A0003020D456F
:0E0C2E0074032DFAE43EFB8F048A828B838CC4
:0E0C3C00F0124B0CFAA3124B0CFBC005C006C5
:0E0C4A00C00790F5E7E0FCA3E0FDC3EC9AEDD7
:0E0C58009BE433D007D006D0056003020D45A3
:0E0C660074032DFAE43EFB8F048A828B838C8C
:0E0C7400F0C005C006C007122830D007D00619
:0E0C8200D00574112DFAE43EFB8F04C005C0AE
:0E0C900006C007740B2AFDE43BFE8C078D8224
:0E0C9E008E838FF0124B0CFDA3124B0CFEA3A5
:0E0CAC00124B0CFFED4E4FD007D006D0056066
:0E0CBA00158A828B838CF0C005C006C007121D
:080CC8002830D007D006D0054A
:0E0CD000741F2DFAE43EFB8F048A828B838C06
:0C0CDE00F0A81008124B0CF6C005C00670
:0C0CEA00C00790F5EAE0FDA81008C3ED7B
:0C0CF60096E433D007D006D0056008A8B3
:070D0200100890F5EAE6F08D
:0E0D090074032DFDE43EFE8A828B838CF01273
:0B0D17004B0C75F00CA42400FAE4342F
:0C0D2200E0FB7C00C005C006C0078A8210
:0E0D2E008B838CF01223D6158115811581025E
:020D3C000BA901
:070D3E0090F5EDE02401F047
:060D4500851081D0102290
:0E0D4B0090F5ECE0FA600790F5EE7401F022EE
:0C0D590090F5EAE075F00CA42400FAE428
:0B0D650034E0FB8A828B83E0700B906F
:0A0D7000F5EAE01490F5EAF080DFE8
:0C0D7A0090F5EAE075F00CA42400FAE407
:080D860034E0FB0ABA00010B86
:0C0D8E0090F5EAE075F00CA42400FCE4F1
:0C0D9A0034E0FD8C828D83A3E0FCA3E01C
:0E0DA600FDA3E0FE74022CFCE43DFD8C828D6A
:0E0DB400838EF0124B0CFCA3124B0CFDA3120D
:0E0DC2004B0CFE8A828B83ECF0A3EDF0A3EEC7
:0C0DD000F090F5EAE075F00CA42400FAA5
:0C0DDC00E434E0FB8A828B83A3E0FAA3DE
:0E0DE800E0FBA3E0FC90F5EAE075F00CA4241B
:0A0DF60000FDE434E0FE74042DFD5E
:0E0E0000E43EFE7F00EAB5055FEBB5065BEC55
:0C0E0E00B5075790F5EAE075F00CA4243D
:0A0E1A0000FAE434E0FB0ABA00011C
:010E24000BC2
:0C0E250090F5EAE075F00CA42400FCE459
:0C0E310034E0FD8C828D83A3E0FCA3E084
:0E0E3D00FDA3E0FE74022CFCE43DFD8C828DD2
:0E0E4B00838EF0124B0CFCA3124B0CFDA31275
:0E0E59004B0CFE8A828B83ECF0A3EDF0A3EE2F
:010E6700F09A
:0C0E680090F5EAE075F00CA42400FAE418
:0C0E740034E0FB8A828B83A3E0FAA3E049
:0E0E8000FBA3E0FC74082AFAE43BFB8A828B99
:0E0E8E00838CF0124B0CFAA3124B0CFBA31238
:0E0E9C004B0CFC90F5E3EAF0A3EBF0A3ECF0B6
:010EAA002225
:0A0EAB00C010858110AA82AB83AC51
:0E0EB500F090F5E3E0FDA3E0FEA3E0FF741172
:0E0EC3002DFDE43EFEC005C006C0078A828BEE
:0D0ED100838CF012259515811581158190F7
:0C0EDE00F5E7E0FAA3E0FBE51024FCF8C7
:0E0EEA00E62AFA08E63BFB90F5E3E0FCA3E005
:0E0EF800FDA3E0FE74032CFCE43DFD8C828D16
:0E0F0600838EF0C002C003122830D003D00248
:0E0F140090F5E3E0FCA3E0FDA3E0FE74032CE7
:0E0F2200FCE43DFD8C828D838EF0EA1245AD1D
:0E0F3000A3EB1245AD90F5E7E0FCA3E0FDC396
:0E0F3E00EA9CEB9D503490F5E3E0FAA3E0FB53
:0E0F4C00A3E0FC74032AFAE43BFB90E04BE0C8
:0E0F5A00FDA3E0FEA3E0FFC002C003C0048DB3
:0E0F6800828E838FF0122595158115811581DB
:020F76008032C7
:0E0F780090F5E3E0FAA3E0FBA3E0FC74032A8B
:0E0F8600FAE43BFB90E048E0FDA3E0FEA3E0B0
:0E0F9400FFC002C003C0048D828E838FF01256
:080FA2002595158115811581CB
:030FAA00D0102242
:0A0FAD00C010858110058105810543
:0E0FB70081AA82AB83ACF0124B0CFDE4BD00AE
:020FC500010425
:040FC700FDB4010074
:0E0FCB00E433FD603F74042AFAE43BFB740239
:0E0FD9002AFAE43BFB8A828B838CF0124B0CCD
:0E0FE700FAA3124B0CFBA3124B0CFC74082A4D
:0E0FF500FAE43BFB8A828B838CF0124B0CFAE1
:0C100300A3124B0CFBA3124B0CFC80064C
:06100F007A007B007C006A
:0C101500A81008A60208A60308A604A85C
:0C1021001008741126FDE40836FE088655
:0E102D00078D828E838FF012283090F5ECE054
:0C103B00FD7070A81008740326FDE40886
:0E10470036FE0886078D828E838FF0122830C9
:0C105500A81008741F26FDE40836FE08F1
:0D10610086078D828E838FF0124B0CFD9060
:0D106E00F5EAE0FEC39D500590F5EAEDF0B7
:0C107B00A81008740326FEE40836FF08E5
:0C1087008602ED75F00CA42400FBE4349C
:0C109300E0FC7D00C006C007C0028B829C
:0E109F008C838DF01223D6158115811581806A
:0110AD00231F
:0C10AE00A81008741126FAE40836FB08AC
:0E10BA008604C002C003C00490E04E75F00032
:0910C8001223D615811581158152
:0C10D100A81008741F26FAE40836FB087B
:0D10DD0086048A828B838CF0124B0CFA90F3
:0E10EA00F5E3E0FBA3E0FCA3E0FD741F2BFB8D
:0E10F800E43CFC8B828C838DF0124B0CFBC30E
:09110600EA9B400575820180039B
:03110F00758200E6
:06111200851081D01022BF
:051118001212F080FB43
:0A111D00C010858110C082C083C09D
:0C112700F0A81008742C26FDE40836FE29
:0C1133000886078D828E838FF0E5102463
:0D113F00FCF8E61245ADA308E61245ADA888
:0C114C001008742426FDE40836FE088616
:0C115800077408C0E0E4C0E0E51024F9D2
:0E116400F8E6C0E008E6C0E008E6C0E08D82D4
:0E1172008E838FF0124A55E58124FBF581A88B
:0C1180001008742426FDE40836FE0886E2
:0E118C000774072DFDE43EFE8D828E838FF0EA
:0C119A00E41245ADE51024F8F8B604009E
:0911A6004007E51024F8F8760377
:0C11AF00A81008741F26FDE40836FE0896
:0C11BB0086078D828E838FF0E51024F8EB
:0C11C700F8E61245ADA81008740326FDE0
:0E11D300E40836FE0886078D828E838FF012A8
:0C11E10023B5A81008741126FDE40836A0
:0E11ED00FE0886078D828E838FF01223B5A830
:0C11FB001008740326FDE40836FE088688
:0E1207000774082DFDE43EFE8D828E838FF06D
:0B121500A81008E61245ADA308E61281
:0912200045ADA308E61245ADA896
:0C1229001008741126FDE40836FE08864B
:0C12350007E51024F8F886027B00740422
:0E124100C39AFAE49BFB8D828E838FF0EA1233
:08124F0045ADA3EB1245ADA86B
:0C1257001008741126FAE40836FB088623
:0E1263000474082AFAE43BFB8A828B838CF029
:0B127100A81008E61245ADA308E61225
:09127C0045ADA308E61245AD855D
:051285001081D01022D1
:02128A007A00E8
:03128C00BA0400A1
:0C128F00501EEA75F00CA42400FBE434AF
:0C129B00E0FC7D008B828C838DF0C00293
:0812A7001222E3D0020A80DDEF
:0A12AF0090E03075F0001222E39089
:0912B900E03C75F0001222E39004
:0912C200E04E75F0001222E390E9
:0912CB00E05A75F0001222E390D4
:0712D400E0487430F0A37440
:0A12DB00E0F0A37400F090E04B7403
:0A12E5003CF0A374E0F0A37400F0E5
:0112EF0022DC
:0112F00022DB
:0A12F100C010858110C082C0830583
:0E12FB00810581058190002E122F4AAC82AD34
:0C13090083AEF0A810080808A60408A68F
:0C1315000508A606A810080808B6000B82
:0B13210008B6000708B600030213C462
:0C132C00A810080808742026FFE408360A
:0C133800FA088603A81008868208868345
:0E134400C002C003C007122F4AAC82AD83AEB8
:0E135200F0D007D003D0028F828A838BF0EC9C
:0B1360001245ADA3ED1245ADA3EE1247
:0C136B0045ADBC0023BD0020BE001DA845
:0C1377001008080886820886830886F0AB
:0C1383001232B6A810080808E4F608F6BC
:04138F0008F68031AB
:0E1393008F828A838BF0124B0CFFA3124B0C3F
:0C13A100FAA3124B0CFBA81008E6C0E0F9
:0E13AD0008E6C0E074A5C0E08F828A838BF052
:0913BB001249EA15811581158122
:0C13C400A81008080886820886830886A6
:0713D000F0851081D010220E
:055C910049444C4500F0
:035CA600000000FB
:015CA90000FA
:025CAA000000F8
:015CAC0000F7
:015CAD0000F6
:015CAE0000F5
:015CAF0000F4
:015CB00000F3
:015CB10000F2
:0A13D700C010858110C082E581245A
:0C13E10009F581A81008E6700302162C24
:0D13ED00900029122F4AAB82AC83ADF0A80E
:0C13FA00100808A60308A60408A605A811
:0C140600100808B6000B08B6000708B676
:05141200000302162C8E
:0A141700A81008A91019191986F091
:0E142100E7A4FEAFF074012EFAE43FFB8A82CE
:0E142F008B83C006C007122F4AAA82AB83AC83
:0C143D00F0D007D006A81008088682082E
:0E14490086830886F0EA1245ADA3EB1245AD8E
:0E145700A3EC1245ADBA0009BB0006BC0003B1
:0314650002161D4F
:0A146800A8100808E5102405F97427
:0D1472000326F7E4083609F70809E6F7A895
:0C147F0010080886820886830886F01298
:0A148B004B0CFDA3124B0CFAA31248
:0C1495004B0CFBEE2DFEEF3AFF8B04E544
:0C14A100102405F886820886830886F077
:0C14AD00EE1245ADA3EF1245ADA3EC120A
:0C14B90045ADA8100808742426FCE408C7
:0D14C50036FE0886078C828E838FF0E412BD
:0C14D20045ADA8100808740626FCE408CC
:0D14DE0036FE0886078C828E838FF0ED129B
:0A14EB0045ADA3EA1245ADA3EB12D4
:0714F50045ADA8100808E551
:0C14FC00102405F9740926F7E4083609ED
:0C150800F70809E6F7A8100886047E002A
:0C151400E5102408F8EC24FFF6EE34FF8C
:0C15200008F6A81018181886077C00C0F8
:0C152C0002C003C005C007C004E5102485
:0E15380008F88682088683124760AC82AE8374
:0E15460015811581D005D003D002EC2DFDEEED
:0C1554003AFAE5102405F8868208868328
:0E1560000886F0ED1245ADA3EA1245ADA3EBEF
:0C156E001245ADA8100808742526FAE408
:0D157A000836FB0886048A828B838CF0A85B
:071587001008E61245ADA8B3
:0C158E00100808742626FAE40836FB0852
:0C159A0086048A828B838CF0A81018183D
:0C15A60018E61245ADA8100808742726AE
:0E15B200FAE40836FB0886048A828B838CF0EC
:0C15C00074FF1245ADA81008087428261E
:0E15CC00FAE40836FB0886048A828B838CF0D2
:0C15DA0074FF1245ADA8100808740C2620
:0E15E600FAE40836FB0886048A828B838CF0B8
:0C15F4001222E3A8100808741826FAE47C
:0D1600000836FB0886048A828B838CF0126A
:0C160D0022E3A8100808868208868308E3
:0416190086F08015C2
:0C161D00A810080886820886830886F062
:031629001232B6C4
:06162C0090000075F000C3
:06163200851081D010229A
:0A163800C010858110C082C083C07D
:0E164200F0E581240CF581120918C0E0C0A863
:0C165000C2AFA81008742726FDE408367D
:0E165C00FE0886078D828E838FF0124B0CFAEB
:0C166A000A8D828E838FF0EA1245ADA835
:0C1676001008742826FAE40836FB0886E9
:0E168200048A828B838CF0124B0CFD0D8A8241
:0E1690008B838CF0ED1245ADD0E053E080E589
:0C169E00E042A8D0E0A810088682088670
:0E16AA00830886F012229BE582700302176F00
:0B16B800E51024F9F8E6084670030274
:0216C300176F9F
:0C16C500A81008740C26FAE40836FB0894
:0C16D1008604E51024F9F8E6C0E008E605
:0E16DD00C0E08A828B838CF0120EAB15811553
:0C16EB0081C0E0C0A8C2AFA81008868231
:0E16F7000886830886F0122137120931E58239
:051705007003122CA38B
:0C170A00120918C0E0C0A8C2AFA8100867
:0E171600742726FAE40836FB0886048A828BC4
:0E172400838CF0124B0CFD0D8A828B838CF0AF
:0C173200ED1245ADA81008742826FAE45A
:0D173E000836FB0886048A828B838CF0122B
:0E174B004B0CFD0D8A828B838CF0ED1245ADA8
:0E175900D0E053E080E5E042A8D0E0D0E053BD
:08176700E080E5E042A8D0E0BB
:0C176F00C0E0C0A8C2AFA8100874242677
:0E177B00FAE40836FB0886048A828B838CF021
:0A178900E5102404F8124B0CF6A83A
:0C1793001008742526FEE40836FF0886C6
:0C179F00058E828F838DF0124B0CFEE54E
:0C17AB00102404F8C3E69E400302193C21
:0A17B700A81008E5102405F97426B7
:0C17C10026F7E4083609F70809E6F7E50A
:0C17CD00102405F886820886830886F048
:0C17D900124B0CFDE510240BF8A60508CF
:0A17E5007600A81008E5102408F9AA
:0E17EF00740626F7E4083609F70809E6F7E560
:0C17FD00102408F886820886830886F015
:0B180900124B0CFFA3124B0CFDA312AE
:0C1814004B0CFEC002C003C004E5102411
:0C1820000BF8E6C0E008E6C0E0E510248C
:0E182C00FBF8E6C0E008E6C0E008E6C0E08F8A
:0E183A00828D838EF012494CE58124FBF581EE
:0D184800D004D003D0028A828B838CF01272
:0E1855004B0CFD0D8A828B838CF0ED1245AD9D
:0C186300E5102408F886820886830886B9
:0C186F00F0124B0CFAA3124B0CFBA3125E
:0C187B004B0CFCE5102405F88682088662
:0D188700830886F0124B0C2AFAE43BFBE5C7
:0C189400102408F886820886830886F07D
:0C18A000EA1245ADA3EB1245ADA3EC121B
:0C18AC0045ADA81008740326FDE40836C2
:0E18B800FE0886078D828E838FF0124B0CFD8A
:0E18C600A3124B0CFEA3124B0CFFC3EA9DEBCA
:0E18D4009EEC64808FF063F08095F04034A8A5
:0B18E200100886820886830886F0123A
:0A18ED004B0CFAA3124B0CFBA312E4
:0C18F7004B0CFCE5102408F886820886E3
:0E190300830886F0EA1245ADA3EB1245ADA3B2
:04191100EC1245ADE2
:0C1915007A01A81008742826FBE40836AC
:0E192100FC0886058B828C838DF0124B0CFE29
:0D192F000E8B828C838DF0EE1245AD800290
:02193C007AFD32
:0C193E00D0E053E080E5E042A8D0E0A833
:0C194A00100886820886830886F0C00220
:0E195600122137E582D0026010C00212093162
:0B196400E582D002700C122CA380075B
:07196F00C002120931D00291
:081976008A82851081D0102245
:0A197E00C010858110C082C083C034
:0C198800F0E581240CF581A810087424FF
:0E19940026FDE40836FE0886078D828E838FBE
:0B19A200F0E5102404F8124B0CF6A82E
:0C19AD001008742526FBE40836FC0886B0
:0C19B900028B828C838AF0124B0CFBE541
:0C19C500102404F8C3E69B4003021BA79B
:0A19D100A81008E5102405F974269B
:0C19DB0026F7E4083609F70809E6F7E5EE
:0C19E700102405F886820886830886F02C
:0C19F300124B0CFAE510240BF8A60208B9
:0A19FF007600A81008E5102408F98E
:0E1A0900740626F7E4083609F70809E6F7E543
:0C1A1700102408F886820886830886F0F8
:0B1A2300124B0CFCA3124B0CFAA31298
:0C1A2E004B0CFBC005C006C007E51024EF
:0C1A3A000BF8E6C0E008E6C0E0E5102470
:0E1A4600FBF8E6C0E008E6C0E008E6C0E08C71
:0E1A5400828A838BF012494CE58124FBF581D8
:0D1A6200D007D006D0058D828E838FF01244
:0E1A6F004B0CFA0A8D828E838FF0EA1245AD81
:0C1A7D00E5102408F8868208868308869D
:0C1A8900F0124B0CFAA3124B0CFBA31242
:0C1A95004B0CFCE5102405F88682088646
:0D1AA100830886F0124B0C2AFAE43BFBE5AB
:0C1AAE00102408F886820886830886F061
:0C1ABA00EA1245ADA3EB1245ADA3EC12FF
:0C1AC60045ADA81008740326FDE40836A6
:0E1AD200FE0886078D828E838FF0124B0CFD6E
:0E1AE000A3124B0CFEA3124B0CFFC3EA9DEBAE
:0E1AEE009EEC64808FF063F08095F04034A889
:0B1AFC00100886820886830886F0121E
:0A1B07004B0CFAA3124B0CFBA312C7
:0C1B11004B0CFCE5102408F886820886C6
:0E1B1D00830886F0EA1245ADA3EB1245ADA396
:041B2B00EC1245ADC6
:0C1B2F00A81008742826FAE40836FB0809
:0E1B3B0086048A828B838CF0124B0CFDBDFF5A
:0A1B490052E51024FAF8E67055A8E2
:0C1B53001008741826FAE40836FB088617
:0D1B5F00048A828B838CF0124B0C603CA832
:0A1B6C001008E5102408F97418268B
:0C1B7600F7E4083609F70809E6F7E51067
:0E1B82002408F886820886830886F0120FADCC
:071B9000AE82BE00028010CE
:051B97007582018012BF
:0B1B9C000D8A828B838CF0ED1245ADAA
:071BA700E51024FAF8868224
:061BAE00851081D0102219
:0A1BB400C010858110C082C083C0FC
:0E1BBE00F0E581240BF581120918C0E0C0A8E3
:0C1BCC00C2AFA81008742726FDE40836FC
:0E1BD800FE0886078D828E838FF0124B0CFA6A
:0C1BE6000A8D828E838FF0EA1245ADA8B4
:0C1BF2001008742826FAE40836FB088668
:0E1BFE00048A828B838CF0124B0CFD0D8A82C0
:0E1C0C008B838CF0ED1245ADD0E053E080E507
:0C1C1A00E042A8D0E0A8100886820886EE
:0E1C2600830886F012226AE5827003021CEB2E
:0B1C3400E51024F9F8E60846700302F2
:021C3F001CEB9C
:0C1C4100A81008741826FAE40836FB0806
:0C1C4D008604E51024F9F8E6C0E008E683
:0E1C5900C0E08A828B838CF0120EAB158115D1
:0C1C670081C0E0C0A8C2AFA810088682AF
:0E1C73000886830886F0122137120931E582B7
:051C81007003122CA30A
:0C1C8600120918C0E0C0A8C2AFA81008E6
:0E1C9200742726FAE40836FB0886048A828B43
:0E1CA000838CF0124B0CFD0D8A828B838CF02E
:0C1CAE00ED1245ADA81008742826FAE4D9
:0D1CBA000836FB0886048A828B838CF012AA
:0E1CC7004B0CFD0D8A828B838CF0ED1245AD27
:0E1CD500D0E053E080E5E042A8D0E0D0E0533C
:081CE300E080E5E042A8D0E03A
:0C1CEB00C0E0C0A8C2AFA81008742426F6
:0E1CF700FAE40836FB0886048A828B838CF0A0
:0A1D0500E510240BF8124B0CF6E574
:0A1D0F0010240BF8E67003021E8991
:0A1D1900A81008E5102404F974096D
:0C1D230026F7E4083609F70809E6F7E5A2
:0C1D2F00102404F886820886830886F0E1
:0B1D3B00E5102407F9124B0CF7A3126F
:0B1D46004B0C09F7A3124B0C09F7A887
:0C1D51001008742626FDE40836FE088603
:0C1D5D00078D828E838FF0E510240AF8B9
:0A1D6900124B0CF6E5102407F8E514
:0C1D730010240AF9E726F6E40836F6E52D
:0C1D7F00102404F886820886830886F091
:0C1D8B00E5102407F9E71245ADA309E7B5
:0A1D97001245ADA309E71245ADA8FF
:0C1DA1001008740326FDE40836FE0886D6
:0D1DAD00078D828E838FF0124B0CFDA31268
:091DBA004B0CFEA3124B0CFFE5DB
:0C1DC300102407F8C3E69D08E69E08E621
:0C1DCF0064808FF063F08095F04034A831
:0B1DDB00100886820886830886F0123C
:0A1DE6004B0CFEA3124B0CFFA312DE
:0C1DF0004B0CFDE5102404F886820886E8
:0E1DFC00830886F0EE1245ADA3EF1245ADA3AD
:041E0A00ED1245ADE3
:0C1E0E00E510240BF8E6148A828B838C0C
:0C1E1A00F01245ADE510240AF886027BAA
:0C1E260000E5102404F88682088683087A
:0D1E320086F0124B0CFCA3124B0CFDA3120A
:0E1E3F004B0CFEC002C003C004C005C006E587
:0C1E4D001024FBF886820886830886F0CB
:0C1E590012494CE58124FBF581A810081B
:0E1E6500742726FAE40836FB0886048A828B6E
:0E1E7300838CF0124B0CFD0D8A828B838CF059
:081E8100ED1245AD7A0180026B
:021E89007A00DD
:0C1E8B00D0E053E080E5E042A8D0E0A8E1
:0C1E9700100886820886830886F0C002CE
:0E1EA300122137E582D0026010C00212093110
:0B1EB100E582D002700C122CA3800709
:071EBC00C002120931D0023F
:081EC3008A82851081D01022F3
:0A1ECB00C010858110C082C083C0E2
:0C1ED500F0E5812408F581A810087424B1
:0E1EE10026FDE40836FE0886078D828E838F6C
:0B1EEF00F0E5102404F8124B0CF6E59F
:0A1EFA00102404F8E670030220D162
:0A1F0400C005C006C007A81008E5DC
:0C1F0E00102405F9740926F7E4083609D0
:0C1F1A00F70809E6F7E5102405F88682B8
:0E1F26000886830886F0124B0CFDA3124B0CAC
:0C1F3400FEA3124B0CFFA8100874262618
:0E1F4000FAE40836FB0886048A828B838CF054
:0A1F4E00E5102408F8124B0CF6E52C
:0B1F5800102408F8E62DFDE43EFEE535
:0C1F6300102405F886820886830886F0AA
:0C1F6F00ED1245ADA3EE1245ADA3EF123C
:0C1F7B0045ADA81008740326FAE40836EF
:0E1F8700FB0886048A828B838CF0124B0CFAC6
:0E1F9500A3124B0CFBA3124B0CFCC3ED9AEEF7
:0E1FA3009BEF64808CF063F08095F0D007D047
:0C1FB10006D0054034A81008868208867F
:0E1FBD00830886F0124B0CFAA3124B0CFBA308
:0C1FCB00124B0CFCE5102405F88682087F
:0E1FD70086830886F0EA1245ADA3EB1245ADF5
:051FE500A3EC1245AD64
:0C1FEA00E5102404F8E6148D828E838F2D
:0C1FF600F01245ADE5102408F886027BCF
:0C20020000E5102405F88682088683089B
:0D200E0086F0124B0CFCA3124B0CFDA3122C
:0E201B004B0CFEC002C003C004C005C006E5A9
:0C2029001024FBF886820886830886F0ED
:0C20350012494CE58124FBF581A810083D
:0E204100742726FAE40836FB0886048A828B90
:0C204F00838CF0124B0CFDBDFF68E51007
:0E205B0024F8F886020886030886048A828B21
:0C206900838CF0124B0C705BA810087404
:0E2075000C26FDE40836FE0886078D828E8359
:0C2083008FF0124B0C6042A81008740C87
:0E208F0026FDE40836FE0886078D828E838FBC
:0E209D00F0C002C003C004120FADAE82D0042A
:0920AB00D003D002BE000280182F
:0D20B4008A828B838CF074011245AD800B85
:0B20C1000D8A828B838CF0ED1245AD80
:0520CC00758201800394
:0320D10075820015
:0620D400851081D01022EE
:0E20DA00AA82AB83ACF0C0E0C0A8C2AF7424F1
:0E20E8002AFAE43BFB8A828B838CF0124B0CAD
:0E20F600FAD0E053E080E5E042A8D0E08A8214
:0121040022B8
:0E210500AA82AB83ACF0124B0CFDA3124B0C64
:0E211300FEA3124B0CFF8D828E838FF0C00254
:0E212100C003C0041232B6D004D003D0028A2C
:08212F00828B838CF00232B6B2
:0A213700C010858110C082C083C073
:0C214100F00581E5102404F87600C0E0F1
:0C214D00C0A8C2AFA81008742826FEE449
:0D2159000836FF0886058E828F838DF012F8
:0E2166004B0CFA1A8E828F838DF0EA1245AD73
:0E217400C3747F8AF063F08095F050498E822C
:0C2182008F838DF074FF1245ADA810088B
:0E218E00741826FAE40836FB0886048A828B51
:0C219C00838CF0124B0C6025A810087416
:0E21A8001826FAE40836FB0886048A828B8328
:0C21B6008CF0120FADAA82BA0002800764
:0721C200E5102404F876018A
:0E21C900D0E053E080E5E042A8D0E0C0E0C0E6
:0C21D700A8C2AFA81008742726FAE4087C
:0E21E30036FB0886048A828B838CF0124B0C2C
:0E21F100FD1D8A828B838CF0ED1245ADC37408
:0E21FF007F8DF063F08095F050498A828B83CB
:0C220D008CF074FF1245ADA81008740C92
:0E22190026FAE40836FB0886048A828B838C42
:0C222700F0124B0C6025A81008740C2667
:0E223300FAE40836FB0886048A828B838CF05E
:0A224100120FADAA82BA0002800756
:07224B00E5102404F8760100
:0C225200D0E053E080E5E042A8D0E0E5D9
:0A225E00102404F88682851081D058
:02226800102242
:0E226A00AA82AB83ACF0C0E0C0A8C2AF74245F
:0E2278002AFAE43BFB8A828B838CF0124B0C1B
:06228600FAE4BA000104B5
:0E228C00FAD0E053E080E5E042A8D0E08A827C
:01229A002221
:0E229B00AA82AB83ACF0C0E0C0A8C2AF74242E
:0E22A9002AFDE43BFE8C078D828E838FF0129F
:0E22B7004B0CFD74252AFAE43BFB8A828B83D4
:0E22C5008CF0124B0CFAEDB50204740180018E
:0122D300E426
:0E22D400FDD0E053E080E5E042A8D0E08D822E
:0122E20022D9
:0A22E300C010858110C082C083C0C6
:0C22ED00F0058105810581A8100874012E
:0C22F90026FDE40836FE088607A8100841
:0C230500E5102404F9740426F7E40836FF
:0D23110009F70809E6F78D828E838FF0E54D
:0C231E00102404F8E61245ADA308E612F6
:09232A0045ADA308E61245ADE53E
:0C233300102404F886820886830886F0D7
:0C233F0074FF1245ADA374FF1245ADE51C
:0C234B00102404F8740226FBE40836FCA1
:0C2357000886058B828C838DF0E5102435
:0E23630004F8E61245ADA308E61245ADA30846
:0C237100E61245ADE5102404F8740526C2
:0E237D00FBE40836FC0886058B828C838DF00D
:0C238B00E5102404F8E61245ADA308E6B6
:0A2397001245ADA308E61245ADA8FB
:0C23A100100886820886830886F0E4128B
:0623AD0045AD851081D052
:0223B3001022F6
:0E23B500AA82AB83ACF0740B2AFAE43BFB8ADD
:0E23C300828B838CF0E41245ADA3E41245AD8D
:0523D100A3E40245AD8C
:0A23D600C010858110C082C083C0D2
:0B23E000F0E581240CF581A81008E551
:0C23EB00102407F9740126F7E4083609F5
:0C23F700F70809E6F7E5102407F88682D5
:0E2403000886830886F0124B0CFAA3124B0CCD
:0C241100FBA3124B0CFCE5102404F8A601
:0C241D000208A60308A604E51024FBF842
:0C2429008602088603088604E510240AD9
:0D243500F874022AF6E43B08F608A604E558
:0C244200102404F88605088606088607AA
:0E244E0074022DFDE43EFE8D828E838FF0120F
:0A245C004B0CFDA3124B0CFEA31263
:0C2466004B0CFFE510240AF88682088663
:0E247200830886F0ED1245ADA3EE1245ADA332
:0C248000EF1245ADE510240AF874052A9F
:0C248C00F6E43B08F608A604E51024075F
:0E249800F886820886830886F0124B0CFDA39E
:0A24A600124B0CFEA3124B0CFFE5D5
:0C24B00010240AF886820886830886F053
:0C24BC00ED1245ADA3EE1245ADA3EF12EA
:0C24C80045ADE5102404F88605088606E2
:0E24D40008860774022DFDE43EFE8D828E8385
:0D24E2008FF0124B0CFDA3124B0CFEA31249
:0E24EF004B0CFF74052DFDE43EFE8D828E83A6
:0E24FD008FF0EA1245ADA3EB1245ADA3EC1231
:0C250B0045ADE5102404F886050886069E
:0E25170008860774022DFDE43EFE8D828E8341
:0E2525008FF0EA1245ADA3EB1245ADA3EC1208
:0C25330045ADE5102407F8868208868379
:0E253F000886F0EA1245ADA3EB1245ADA3EC01
:0E254D001245AD740B2AFAE43BFB8A828B83A5
:0C255B008CF0A81008E61245ADA308E6BD
:0A2567001245ADA308E61245ADA829
:0B257100100886820886830886F0129E
:0C257C004B0CFA0AA8100886820886831F
:0B2588000886F0EA1245AD851081D0F6
:02259300102214
:0A259500C010858110C082C083C011
:0C259F00F0E5812409F581E51024FBF82B
:0E25AB0086050886060886078D828E838FF0CF
:0E25B900124B0CFAA3124B0CFBBAFF05BBFF32
:0325C7000280038C
:0325CA0002267373
:0A25CD00A81008E5102404F97404B6
:0B25D70026F7E4083609F70809E6F7CC
:0C25E200C005C006C007E5102404F88600
:0E25EE000408860508860674022CFCE43DFDF8
:0E25FC008C828D838EF0124B0CFCA3124B0CC4
:0D260A00FDA3124B0CFE8C828D838EF0120E
:0E2617004B0CFCA3124B0CFDC3EC9AED9BD0B8
:0A26250007D006D005400302271677
:0C262F00C005C006C007E5102404F886B2
:0E263B000408860508860674022CFCE43DFDAA
:0E2649008C828D838EF0124B0CFCA3124B0C76
:0C265700FDA3124B0CFEE5102404F8A6B5
:0E2663000408A60508A606D007D006D005027A
:0226710025E260
:0A267300A81008E5102404F974040F
:0B267D0026F7E4083609F70809E6F725
:0C268800C005C006C007E5102404F88659
:0E2694000408860508860674022CFCE43DFD51
:0E26A2008C828D838EF0124B0CFCA3124B0C1D
:0D26B000FDA3124B0CFE8C828D838EF01268
:0E26BD004B0CFCA3124B0CFDC3EA9CEB9DD012
:0E26CB0007D006D0054044C005C006C007E594
:0C26D900102404F8860408860508860614
:0E26E50074022CFCE43DFD8C828D838EF0127D
:0A26F3004B0CFCA3124B0CFDA312CC
:0C26FD004B0CFEE5102404F8A60408A60F
:0D2709000508A606D007D006D005022688D8
:0C271600E5102407F874022DF6E43E08DC
:0C272200F608A607E5102404F88602085B
:0E272E00860308860474022AFAE43BFB8A82C2
:0E273C008B838CF0124B0CFAA3124B0CFBA3F8
:0C274A00124B0CFCE5102407F8868208F6
:0E27560086830886F0EA1245ADA3EB1245AD6E
:0C276400A3EC1245ADE5102407F88682B6
:0E2770000886830886F0124B0CFAA3124B0C5D
:0E277E00FBA3124B0CFC74052AFAE43BFB8A09
:0E278C00828B838CF0ED1245ADA3EE1245ADAD
:0E279A00A3EF1245AD74052DFAE43EFB8F044B
:0C27A8008A828B838CF0E5102404F8E694
:0D27B4001245ADA308E61245ADA308E612DC
:0C27C10045ADE5102404F88602088603EC
:0E27CD0008860474022AFAE43BFB8A828B839E
:0E27DB008CF0ED1245ADA3EE1245ADA3EF124A
:0E27E90045AD740B2DFDE43EFE8D828E838F78
:0C27F700F0A81008E61245ADA308E61299
:0928030045ADA308E61245ADA89D
:0B280C00100886820886830886F01200
:0C2817004B0CFA0AA81008868208868381
:0B2823000886F0EA1245AD851081D058
:02282E00102276
:0A283000C010858110C082C083C073
:0C283A00F0E581240CF581A81008740260
:0E28460026FDE40836FE0886078D828E838FFD
:0C285400F0124B0CFAA3124B0CFBA31269
:0C2860004B0CFCE510240AF874052AF665
:0B286C00E43B08F608A604A81008E5ED
:0C287700102407F9740526F7E408360960
:0C288300F70809E6F7E5102407F8868244
:0E288F000886830886F0124B0CFAA3124B0C3D
:0C289D00FBA3124B0CFCE510240AF8868B
:0E28A900820886830886F0EA1245ADA3EB1282
:0828B70045ADA3EC1245ADE5AF
:0C28BF00102407F886820886830886F043
:0B28CB00124B0CFAA3124B0CFBA312E3
:0E28D6004B0CFC74022AFAE43BFB8D828E83CD
:0D28E4008FF0124B0CFDA3124B0CFEA31243
:0E28F1004B0CFF8A828B838CF0ED1245ADA359
:0A28FF00EE1245ADA3EF1245ADA89F
:0C2909001008740B26FAE40836FB088660
:0D291500048A828B838CF0124B0CFDA31200
:092922004B0CFEA3124B0CFFE567
:0C292B00102404F8A60508A60608A6075C
:0A293700E5102404F8E510240AF965
:0E294100740126F7E4083609F70809E6F7E501
:0C294F0010240AF886820886830886F0AF
:0B295B00124B0CFDA3124B0CFEA3124C
:0C2966004B0CFFA81008E6B5050C08E6B5
:0A297200B5060708E6B5070280026B
:02297C008036A3
:0C297E00E5102407F8868208868308868E
:0C298A00F0124B0CFDA3124B0CFEA3122C
:0C2996004B0CFFE510240AF8868208862E
:0E29A200830886F0ED1245ADA3EE1245ADA3FD
:0429B000EF1245AD30
:0D29B4008A828B838CF0E41245ADA3E412FF
:0829C10045ADA3E41245ADE5AC
:0C29C900102404F886820886830886F03B
:0C29D500124B0CFA1AE5102404F886825C
:0C29E1000886830886F0EA1245AD8510D8
:0429ED0081D0102263
:0A29F100C010858110C082C083C0B1
:0B29FB00F0058105810581A81008E5AA
:0C2A0600102404F9E6F70809E6F70809B7
:0B2A1200E6F7A8100806B60002080650
:0C2A1D00E51024FCF886050886067F0002
:0C2A29007A008D03A810088682088683BE
:0E2A35000886F0EB1245ADA31818A68208A67D
:0C2A4300838E058F068A078D03A81008FB
:0E2A4F0086820886830886F0EB1245ADA31838
:0C2A5D0018A68208A683A810088682082C
:0E2A690086830886F074AA1245ADA31818A63D
:0C2A77008208A683A810088682088683C7
:0E2A83000886F074801245ADA31818A68208CC
:0C2A9100A683E51024F9F88605088606E7
:0C2A9D000886077A008D03A810088682C6
:0E2AA9000886830886F0EB1245ADA31818A628
:0E2AB7008208A6838E058F068A077A008D039B
:0C2AC500A8100886820886830886F0EBC3
:0E2AD1001245ADA31818A68208A6838E058FA5
:0C2ADF00068A07A8100886820886830873
:0E2AEB0086F0ED1245ADA31818A68208A6834A
:0C2AF900A8100886820886830886F07406
:0D2B0500021245ADA31818A68208A683A8E9
:0C2B1200100886820886830886F0740391
:0C2B1E001245ADA31818A68208A683A8D3
:0C2B2A00100886820886830886F0740478
:0C2B36001245ADA31818A68208A683A8BB
:0C2B4200100886820886830886F074055F
:0C2B4E001245ADA31818A68208A683A8A3
:0C2B5A00100886820886830886F0740646
:0C2B66001245ADA31818A68208A683A88B
:0C2B7200100886820886830886F074072D
:0C2B7E001245ADA31818A68208A683A873
:0C2B8A00100886820886830886F0E4129A
:0C2B960045ADA31818A68208A683A8105D
:0E2BA2000886820886830886F074011245AD0D
:0C2BB000A31818A68208A683A8100886A7
:0E2BBC00820886830886F0E41245ADA318183F
:0C2BCA00A68208A683A810088682088650
:0E2BD600830886F074BB1245ADA31818A682C2
:0C2BE40008A683A81008868208868308D3
:0B2BF00086F074011245ADA81008E546
:0C2BFB00102404F9E6C397FA08E60997D5
:0C2C0700E5102404F88682088683088605
:0C2C1300F0EA1245ADE5102404F88682BA
:0A2C1F000886830886F0851081D036
:022C2900102277
:0E2C2B00122EDB90F5E3E0FAA3E0FBA3E0FC41
:0C2C39008A828B838CF0124B0CF50DA3EB
:062C4500124B0CF50E75A8
:062C4B000F21850D8285BA
:052C51000E83E0F50810
:072C5600050DE4B50D0205B8
:012C5D000E68
:052C5E00050FA80F8521
:092C63000D82850E83E0FAF615DE
:062C6C0008E50870E58593
:0A2C72000F81D09FD010D0D0D00108
:0E2C7C00D000D007D006D005D004D003D0027F
:0E2C8A00D0F0D083D082D0E020E705C2AF02A8
:022C98002C9C72
:022C9A00D2AFB7
:062C9C00D0E07582012268
:012CA200220F
:0E2CA300C0E0C0A8C2AFC082C083C0F0C002B3
:0E2CB100C003C004C005C006C007C000C001BB
:0C2CBF00C0D075D000C010C09F90F5E39D
:0E2CCB00E0FAA3E0FBA3E0FC8A828B838CF08E
:072CD900124B0CF50DA312D4
:052CE0004B0CF50E7520
:092CE5000F22E58124DFF50885CA
:062CEE000D82850E83F04B
:082CF400E5086019050DE4B5C7
:042CFC000D02050EB2
:072D0000850D82850E83A8FA
:072D07000FE6FAF0050F15BD
:032D0E000880E357
:0E2D1100120D4B90F5E3E0FAA3E0FBA3E0FC0B
:0C2D1F008A828B838CF0124B0CF50DA304
:062D2B00124B0CF50E75C1
:062D31000F21850D8285D3
:052D37000E83E0F50829
:072D3C00050DE4B50D0205D1
:012D43000E81
:052D4400050FA80F853A
:092D49000D82850E83E0FAF615F7
:062D520008E50870E585AC
:0A2D58000F81D09FD010D0D0D00121
:0E2D6200D000D007D006D005D004D003D00298
:0E2D7000D0F0D083D082D0E020E705C2AF02C1
:022D7E002D82A4
:022D8000D2AFD0
:022D8200D0E09F
:0E2D8400C2AFC0E0C0A8C2AFC082C083C0F022
:0E2D9200C002C003C004C005C006C007C000D8
:0C2DA000C001C0D075D000C010C09F90D2
:0E2DAC00F5E3E0FAA3E0FBA3E0FC8A828B8350
:092DBA008CF0124B0CF50DA31274
:052DC3004B0CF50E753C
:092DC8000F22E58124DFF50885E6
:062DD1000D82850E83F067
:082DD700E5086019050DE4B5E3
:042DDF000D02050ECE
:072DE300850D82850E83A817
:072DEA000FE6FAF0050F15DA
:032DF1000880E374
:072DF400859509750A0075C1
:0A2DFB000B00750C00AA967B007C0B
:0B2E0500008C058B048A03E42509F50E
:052E100009EB350AF595
:052E15000AEC350BF58D
:052E1A000BED350CF585
:0C2E1F000CAA977B008B058A04E4FB25BD
:052E2B0009F509EB357B
:052E30000AF50AEC3573
:052E35000BF50BED356B
:062E3A000CF50C744725A5
:062E400009F509740135DB
:052E46000AF50AE43565
:052E4B000BF50BE4355E
:042E50000CF50C85EC
:062E54000B97850A96852C
:062E5A000995120B551250
:092E600044BD120D4B53C07F90DC
:0E2E6900F5E3E0FAA3E0FBA3E0FC8A828B8392
:092E77008CF0124B0CF50DA312B6
:052E80004B0CF50E757E
:062E85000F21850D82857E
:052E8B000E83E0F508D4
:072E9000050DE4B50D02057C
:012E97000E2C
:052E9800050FA80F85E5
:092E9D000D82850E83E0FAF615A2
:062EA60008E50870E58557
:0A2EAC000F81D09FD010D0D0D001CC
:0E2EB600D000D007D006D005D004D003D00243
:0E2EC400D0F0D083D082D0E020E705C2AF026C
:022ED2002ED6FA
:022ED400D2AF7B
:052ED600D0E0D2AF3294
:0A2EDB0075C6B8859509750A0075E3
:0A2EE5000B00750C00AA967B007C20
:0B2EEF00008C058B048A03E42509F524
:052EFA0009EB350AF5AB
:052EFF000AEC350BF5A3
:052F04000BED350CF59A
:0C2F09000CAA977B008B058A04E4FB25D2
:052F150009F509EB3590
:052F1A000AF50AEC3588
:052F1F000BF50BED3580
:062F24000CF50C744725BA
:062F2A0009F509740135F0
:052F30000AF50AE4357A
:052F35000BF50BE43573
:042F3A000CF50C8501
:062F3E000B97850A968541
:062F4400099543A82022BC
:0500E90090EE21E4F09F
:0A2F4A00C010858110C082C083E52D
:0C2F540081241AF581E5102411F8E4F640
:0E2F600008F608F612091890EE21E0FF704AFC
:082F6E0090EE17746BF0A374E0
:0C2F7600E0F0A3E4F090EE1AF0A3F0905D
:0E2F8200EE1F74ACF0A3740DF090EE1CE4F0A2
:0D2F9000A3F0A3F090E06E75F00074AC1299
:092F9D0045ADA3740D1245AD9081
:072FA600E06B741CF0A37442
:0B2FAD00EEF0A3E4F090EE217401F0C0
:0C2FB800A81008E608466014905C96E43F
:0C2FC40093FF740193FCA81008EF26F6A0
:042FD000EC0836F6DD
:0B2FD400A81008E6084670030232A0B7
:0C2FDF00A81008C3E694AC08E6940D406E
:042FEB00030232A00B
:092FEF00E5102406F876170876B7
:0C2FF800EE08760090EE17E0FAA3E0FB74
:0C300400A3E0FFA810080808A60208A618
:043010000308A60704
:0C301400A810080808740326FCE4083625
:0E302000FD0886068C828D838EF0124B0CFC10
:0C302E00A3124B0CFDA81008C3EC96ED9B
:0C303A0008965047A81008080886820875
:0E30460086830886F0124B0CFCA3124B0CFB89
:0C305400A3124B0CFAEC4B4A6027A810AA
:0C306000080808E5102406F9E6F7080946
:0C306C00E6F70809E6F78B058A06A810B5
:0D307800080808A60408A60508A606808F13
:0A308500A810080808E6B41C0D08A6
:0C308F00E6B4EE0808E6B400030232A02C
:0C309B00E5102406F8868208868308866B
:0C30A700F0124B0CFAA3124B0CFBA3120E
:0730B3004B0CFC905C96E55C
:0C30BA00102414F8E493F674019308F657
:0C30C600E5102414F8E62AFA08E63BFBAB
:0C30D200E5102411F8A60208A60308A6C9
:0C30DE0004A810080808868208868308F1
:0D30EA0086F0124B0CFFA3124B0CFCA3123E
:0C30F7004B0CFDE5102406F886820886CC
:0E310300830886F0EF1245ADA3EC1245ADA394
:0C311100ED1245ADA81008080874032654
:0E311D00FCE40836FD0886068C828D838EF059
:0B312B00E510240EF8124B0CF6A31266
:0A3136004B0C08F6E510240EF8A972
:0C3140001009E6C397C0E008E60997C03C
:0C314C00E0E5102417F8D0E0F618D0E001
:0C315800F6E5102414F8860308E6CB25E9
:0C316400E0CB33FAE5102416F8C3EB961C
:08317000EA089640030232A0B8
:0A317800A810080808A91009E726AE
:0C318200FA09E70836FB088607E5102470
:0C318E0009F8A60208A60308A607E51031
:0C319A002409F8E5102418F9740326F746
:0C31A600E4083609F70809E6F7E51024F4
:0C31B2000EF8A91009E6C397FA08E60918
:0C31BE0097FBE5102418F8868208868331
:0E31CA000886F0EA1245ADA3EB1245AD8C82EB
:0C31D8008D838EF0A81008E61245ADA310
:0C31E40008E61245ADE510240CF8A60228
:0931F00008A6037C177DEE7E00A9
:0C31F9008C828D838EF0E5102418F812F3
:0B3205004B0CF6A3124B0C08F6A312B2
:0C3210004B0C08F6C004C005C006E51019
:0E321C002418F8740326FCE40836FD08860624
:0E322A008C828D838EF0124B0CFCA3124B0C89
:0C323800FDE510240CF8C3EC96ED0896A0
:0C324400E433D006D005D0046015E5107E
:0E3250002418F886020886030886078A048B75
:05325E00058F068096BB
:0C326300E5102409F8868208868308869E
:0C326F00F0E5102418F9E71245ADA309A2
:0E327B00E71245ADA309E71245AD8C828D83A5
:0C3289008EF0E5102409F8E61245ADA314
:0B32950008E61245ADA308E61245ADA7
:0C32A000120931E5102411F8868208861E
:0A32AC00830886F0851081D01022FF
:0A32B600C010E581F5102408F58131
:0E32C000AA82AB83ACF0EA4B4C70030233C51C
:0E32CE00905C96E493FD740193FEEAC39DFAB2
:0C32DC00EB9EFBA81008A60208A6030841
:0E32E800A604C002C003C004120918D004D00E
:0E32F60003D00274032AFAE43BFB8A828B8326
:0C3304008CF0124B0CFAA3124B0CFBE5F2
:0A331000102404F8A60208A6037CAE
:05331A00177DEE7E00AE
:0C331F008C828D838EF0E5102406F812DD
:0B332B004B0CF6A3124B0C08F6A3128B
:0C3336004B0C08F6C004C005C006E510F2
:0E3342002406F8740326FCE40836FD0886060F
:0E3350008C828D838EF0124B0CFCA3124B0C62
:0C335E00FDE5102404F8C3EC96ED089681
:0C336A00E433D006D005D0046015E51057
:0E3376002406F886020886030886078A048B60
:05338400058F06809694
:0C338900A8100886820886830886F0E5FC
:0C339500102406F9E71245ADA309E71269
:0E33A10045ADA309E71245AD8C828D838EF0F9
:0B33AF00A81008E61245ADA308E612C6
:0933BA0045ADA308E61245AD1271
:0233C3000931CE
:0633C500851081D01022EA
:025C9600050007
:0E33CB0043C68053C6BE43FD30C291D292D29B
:0B33D9009343FE0E1235FA75820122AC
:0833E400E582FA6003C29322A6
:0333EC00D2932257
:0833EF00E582FA6003D291228D
:0333F700C291225E
:0833FA00E582FA6003D2922281
:03340200C2922251
:0A340500C010858110AA82AB83ACD1
:0E340F00F0C2AF8A828B83E8C0E0EAC0E0E53D
:0C341D00C7C0E0E51024F9F8E6FA08E664
:0E342900F58408E64480F58508E61813E613DE
:08343700030354304401F5C702
:0E343F00759201E493A3759200F0A3DAF3D026
:0E344D00E0F5C7D0E0FAD0E0F8D2AF8A828B6B
:0B345B00838CF0124B0CF584D0102283
:08346600AA82AB837C007D000B
:0E346E00C3EC9AED9B5008000CBC00F40D80DE
:01347C00F15E
:01347D00222C
:08347E00AA82AB837C007D00F3
:0E348600C3EC9AED9B501D9003E8C002C003FA
:0E349400C004C005123466D005D004D003D0A9
:0834A200020CBC00DF0D80DC10
:0134AA0022FF
:0A34AB00C010E581F5102404F5813E
:0E34B500AA82AB83ACBD8C057C00AEBC7F0050
:0E34C300EE2CFCEF3DFD90F5EFE0FEA3E0FFE8
:0E34D10090F5EFEC2EF0ED3FA3F08595BC904A
:0C34DF00F5EFE0FCA3E0FDA81008A60437
:0E34EB0008A6050876000876007C007D00C06B
:0C34F90002C003C004C005A810088682B1
:0E3505000886830886F008E6124B28ACF0FD1D
:0E351300E58124FCF5818C028D038A828B8376
:06352100851081D010228C
:025CB200FACB2B
:020000040001F9
:0E800000AA82AB83ACF0124B0CFDBD010280D6
:01800E002B46
:05800F00BD0202800328
:03801400BD032386
:0C801700740DC0E0E4C0E074F1C0E0743F
:0C802300F5C0E0E4C0E08A828B838CF0A2
:0B802F0012494CE58124FBF581802103
:0C803A00740DC0E0E4C0E074FEC0E0740F
:0C804600F5C0E0E4C0E08A828B838CF07F
:0980520012494CE58124FBF58183
:04805B007582012207
:0E805F00AA82AB83ACF0124B0CFDBD01028077
:01806D0025ED
:05806E00BD02028003C9
:03807300BD031D2D
:0E807600740DC0E0E4C0E0C002C003C004907E
:0E808400F5F175F00012494CE58124FBF58101
:0180920022CB
:0E809300740DC0E0E4C0E0C002C003C0049061
:0E80A100F5FE75F00012494CE58124FBF581D7
:0180AF0022AE
:020000040000FA
:0D5CB40000000000000000000000000000E3
:0D5CC10000000000000000000000000000D6
:0E352700AA8275CB0075CC008ACDD2BB75CBC5
:05353500BE75820022BA
:04353A0075CB00222B
:0E353E00AA8275EB0075EC008AEDD2BC75EB2D
:05354C00BE75820022A3
:0435510075EB0022F4
:08355500C2AF75E400D2AF32F1
:0B355D00C2AF53C3DF75C300D2AF3212
:0C356800C020C0E0C0F0C082C083C002E0
:0E357400C003C004C005C006C007C000C001EF
:0E358200C0D075D000C2AF75D83875CB00121E
:0E3590003F2ED2AFD0D0D001D000D007D00651
:0E359E00D005D004D003D002D083D082D0F06C
:0535AC00D0E0D0203248
:0C35B100C020C0E0C0F0C082C083C00297
:0E35BD00C003C004C005C006C007C000C001A6
:0E35CB00C0D075D000C2AF75D80775EB0012E6
:0E35D9004DB8D2AFD0D0D001D000D007D00670
:0E35E700D005D004D003D002D083D082D0F023
:0535F500D0E0D02032FF
:0E35FA007420C0E0E4C0E0E4C0E090EE227572
:0E360800F0001249EA1581158115817A007BC8
:0136160000B3
:0E361700C3EA9404EB9400501E8A04EBCC2509
:0B362500E0CC33FDEC2442F582ED34D4
:0C363000EEF583E4F0A3F00ABA00DC0B16
:02363C0080D933
:0A363E007A227BEE8BD38AD2D2B839
:01364800225F
:0C364900C020C0E0C0F0C082C083C002FE
:0E365500C003C004C005C006C007C000C0010D
:0E366300C0D075D000C2AF741055D1FA600609
:0636710053D1EF12455495
:0E367700C2C0D2AFD0D0D001D000D007D00654
:0E368500D005D004D003D002D083D082D0F084
:05369300D0E0D0203260
:05369800AA82BAE00067
:07369D00403DBAE202800883
:0536A400BAE3028003FF
:0336A900BAE52D52
:0E36AC0090DF53E0FBA3E08AE1900001C00331
:0E36BA00123466D00390DF53E0FCA3E0FD7EE7
:0A36C80000EBB50405EEB505012284
:0736D20075E1E675E1E62257
:0336D9008AE12261
:0C36DC00BADE1053E9FD75E1DF75E1FE78
:0736E800E5E920E10480F98F
:0236EF008AE16E
:0136F10022B6
:0536F200AA82BA0B00E2
:0736F7004005EA24E5500440
:0436FE007582FF22B0
:0E3702007582FFC0021236987582E512369865
:0E371000D0028A037C00EB24F5FBEC34FFFCB6
:0E371E00C002C003C004900005124760AD82D7
:0E372C00AE83158115818D038E0474652BFB11
:0E373A0074013CFC4304408C057E0090DF10BF
:0E374800EDF0A3EEF090DF11EBF0A3E4F075CE
:0E37560082E2123698D00275E1E675E1E68A4D
:023764008222BF
:0B376600E582FA249B50047582FF22CC
:0E377100EA75F01FA4FBACF0C0027464C0E067
:0E377F00E4C0E08B828C8312455BAD82AE838A
:0E378D0015811581D0028D038E0474602BFB14
:0E379B0074A13CFC8C057E0090DF0AEDF0A3CB
:0E37A900EEF090DF0BEBF0A3E4F090EE4AEAB6
:0437B700F08A8222F0
:0E37BB0090EE4BE0FA20E73E90DF4F747FF077
:0D37C900E4A3F090DF0674D2F0E4A3F090CA
:0E37D600EE4B74804AF090DF17E0FAA3E0FBA0
:0A37E40090DF1774F75AF0A3EBF022
:0837EE00E5E930E7FB53BEFBE7
:0B37F600E5BE30E6FB7582E21236985B
:0A38010075E1E675E1E6758201222B
:0D380B007582FF1236987582E5123698908E
:0E381800DF17E0FAA3E0FB90DF1774084AF018
:0C382600A3EBF090EE4BE4F07582012261
:0738320075D68175820122A9
:0B38390090F60BE0FA6004758201229B
:0E38440090DF17E0FAA3E0FB90DF1774F75A4D
:04385200F0A3EBF004
:0E38560090DF17E0FAA3E05302107B00BA01E6
:0638640005BB000280EC30
:08386A00E5E930E7FB53BEFB6A
:0E387200E5BE30E6FB90EE4BE4F090EE4EF03B
:0E38800090DF547401F0E4A3F090DF027402B4
:0E388E00F0E4A3F090DF0374E2F0E4A3F09006
:0E389C00DF047430F0E4A3F090DF05E4F0A345
:0E38AA00F090DF0C7432F0E4A3F090DF0D74A8
:0E38B800F5F0E4A3F090DF60E0FAA3E08A03ED
:0E38C6007A0090DF61E0FCA3E0FD90EE4CEC98
:0E38D4002AF0ED3BA3F07582121236F27582D7
:0E38E200641237667582E71236987582E61218
:0E38F000369875912053E9DF539BFC439A01F3
:0E38FE00C285C28590F60B7401F0758201221E
:0A390C00C0108581100581058105BA
:0E39160081AA82AB83ACF0124B0CFDBD010206
:02392400805AC7
:06392600BD0203023A0697
:06392C00BD03030239C0D7
:05393200BD040280034A
:03393700023A3819
:0E393A0074012AFDE43BFE8C07C002C003C0EE
:0E3948000474082DFAE43EFB8F048A828B8300
:0E3956008CF0124B0C90DF4BF0A3E4F07409E0
:0E3964002DFDE43EFE8D828E838FF0124B0C03
:0E397200FD90DF4CF0A3E4F0D004D003D002AF
:0C398000A8100874012AF6E43B08F608C1
:08398C00A6047A437BDF7C00F6
:03399400BC08006C
:053997004003023A3874
:0C399C00A81008EC26FEE40836FF0886A0
:0E39A800058E828F838DF0124B0CFE8A828B6F
:0A39B60083F0A3AA82AB830C80D437
:0E39C00074012AFDE43BFE8C07C002C003C068
:0E39CE000474022DFAE43EFB8F048A828B8380
:0E39DC008CF0124B0C90DF4BF0A3E4F0740360
:0E39EA002DFDE43EFE8D828E838FF0124B0C7D
:0E39F800FD90DF4CF0A3E4F0D004D003D00229
:053A06000ABA00010BEB
:0D3A0B008A058B068C078D828E838FF0124A
:0E3A18004B0CFD90DF4DF0A3E4F00ABA000164
:013A26000B94
:0E3A27008A828B838CF0124B0CFA90DF4EF0EB
:033A3500A3E4F017
:063A3800851081D0102270
:0C3A3E00AA8290EE4EE4F0BA0102803B38
:053A4A00BA0202800A2F
:053A4F00BA0302800B28
:053A5400BA057A805262
:063A590090EE4E7401F036
:0E3A5F0090DF02E0FAA3E0FB90DF0274104A51
:0D3A6D00F0A3EBF090DF03E0FAA3E0FB9084
:0B3A7A00DF0374EF5AF0A3EBF0807044
:0E3A850090DF02E0FAA3E0FB90DF0274184A23
:0D3A9300F0A3EBF090DF03E0FAA3E0FB905E
:0B3AA000DF0374104AF0A3EBF0804A33
:0E3AAB0090DF02E0FAA3E0FB90DF0274084A0D
:0D3AB900F0A3EBF090DF03E0FAA3E0FB9038
:0B3AC600DF0374EF5AF0A3EBF0802444
:0E3AD10090DF02E0FAA3E0FB90DF0274E75AF8
:0D3ADF00F0A3EBF090DF03E0FAA3E0FB9012
:093AEC00DF0374EF5AF0A3EBF0C4
:043AF50075820122B3
:0E3AF90090008012346690DF07E0FAA3E0EA46
:053B070024D3F5822229
:0A3B0C00C0108581107A017582E275
:0E3B1600C00212369890001012346690001013
:0D3B240012346690001012346690001012EA
:0C3B31003466D002A810181818B6000264
:023B3D00804DB9
:0C3B3F00A810181818B6015390DF62E0BF
:0C3B4B00FBA3E0FCEB30E0357B017C00CC
:053B5700BB0002803EEE
:073B5C00EC24FE50027B0087
:0E3B63009000FAC002C003C004123466D00401
:0E3B7100D003D00290DF62E0FDA3E0FEED2065
:063B7F00E0047B007A0067
:033B85000C80CFE2
:043B88007A00800E31
:0E3B8C0090DF62E0FBA3E0FCEB20E0027A0099
:053B9A008A82D0102218
:0B3B9F00E582FA60067582E9023698A4
:063BAA007582E802369866
:0A3BB000C010858110C082C083C0E0
:0C3BBA00F0E581240CF581E5102404F8EE
:0C3BC6007601A81008742226FEE40836E0
:0E3BD200FF0886058E828F838DF0124B0CFE4D
:093BE000A3124B0CFFA81008E52C
:0C3BE90010240AF9742026F7E4083609BD
:0C3BF500F70809E6F7E510240AF88682BC
:0E3C01000886830886F0124B0CFDA3124B0CB4
:0C3C0F00FAEEC39DFEEF9AFFE5102405BD
:0E3C1B00F8A60608A60790EE4BE0FC30E60681
:063C2900758200023D66F9
:073C2F00EC20E7031237BB94
:0C3C3600E5102405F8C374809674800823
:0D3C420086F063F08095F0E433FC6003022F
:023C4F003D4DE9
:0C3C5100C004A81008742C26FDE40836FE
:0C3C5D00FE088607E510240AF88682089D
:0E3C690086830886F0124B0CFCA3124B0CFA5B
:0C3C7700EC2DFDEA3EFEE5102407F8A647
:0D3C83000508A60608A6077582E7C0041212
:0C3C90003698D004E5102405F886027474
:0C3C9C00022AF5D9D004E5102407F886B0
:093CA800020886030886057E006F
:0C3CB100C0048E077C00E5102405F8C359
:0E3CBD00EF96EC64800886F063F08095F0E4EA
:0E3CCB0033D00460138A828B838DF0124B0C71
:0A3CD900F5D9A3AA82AB830E80CEBA
:0E3CE30075D90075D900C004E4C0E0758200F8
:0E3CF100123B0CAA821581D004EA7004F58201
:023CFF008065DE
:0E3D010053E9BF7582E3C004123698D0047AED
:013D0F0000B3
:0E3D100090DF62E0FBA3E0FDEB20E4188A03E5
:043D1E000ABB0300D9
:0E3D2200501090000AC002C004123466D00493
:043D3000D00280DC61
:0D3D340090DF62E0FAA3E0FBEA20E409E57D
:083D4100102404F87600800450
:043D4900C285D285D8
:0C3D4D00E5102404F8B6010AEC6007E55C
:063D5900102404F87600BE
:073D5F00E5102404F8868240
:063D6600851081D010223F
:0A3D6C00C010858110C082C083C022
:0C3D7600F0058105810581A810088682F7
:0C3D82000886830886F0124E0CA810087A
:0E3D8E0086820886830886F0124B0C600302C2
:023D9C003F24C2
:0E3D9E007408C0E074F8C0E074FFC0E0740167
:0E3DAC00C0E0E4C0E090EE5475F00012340563
:0C3DBA00E58124FBF581A81008740126A7
:0A3DC600FDE40836FE0886077A00C7
:033DD000BA08002E
:0C3DD30050337407C39AA81008080808B1
:0C3DDF002DF6E43E08F608A607EA24547E
:0A3DEB00F582E434EEF583E0FCE518
:0C3DF500102404F886820886830886F0FB
:073E0100EC1245AD0A80C878
:0C3E0800A8100886820886830886F074E3
:0C3E1400041245ADA81008740126FDE45E
:0E3E20000836FE0886077401C0E08D828E838E
:0E3E2E008FF0124E60AD821581BD010280033F
:033E3C00023EE261
:0C3E3F00A81008740126FDE40836FE08F7
:0E3E4B0086078D028E038F048A828B838CF093
:0E3E5900E41245AD74012DFAE43EFB8F048A9D
:0E3E6700828B838CF0E41245AD74022DFAE4D8
:0E3E75003EFB8F048A828B838CF0E41245ADF5
:0E3E830074032DFAE43EFB8F048A828B838C3D
:0E3E9100F0E41245AD74042DFAE43EFB8F04FC
:0E3E9F008A828B838CF0E41245AD74052DFAF7
:0D3EAD00E43EFB8F048A828B838CF0E412CC
:0E3EBA0045AD74062DFAE43EFB8F048A828B20
:0E3EC800838CF074441245AD74072DFDE43E6A
:0C3ED600FE8D828E838FF074441245AD87
:0C3EE200A81008740126FDE40836FE0854
:0E3EEE00860774082DFAE43EFB8F048A828B4F
:0E3EFC00838CF074FF1245AD74092DFDE43E79
:0D3F0A00FE8D828E838FF074FF1245ADA8EE
:0B3F1700100886820886830886F012DE
:023F22004EB49B
:093F2400758201851081D0102284
:013F2D002271
:083F2E0090EE4BE054BFF022BD
:0C3F3600C020C0E0C0F0C082C083C00208
:0E3F4200C003C004C005C006C007C000C00117
:0A3F5000C0D075D000C010E581F567
:0C3F5A00102407F581C2AFD285E5E930E4
:0E3F6600E61490EE4BE0FA30E50790EE4B7457
:033F7400206AF0D0
:053F7700C28553E9BF03
:083F7C00E5E920E503024227FC
:0E3F8400C28590DF62E0FAA3E0FBEA20E303CF
:033F9200024218D0
:0A3F9500A81008A6D9A81008E654E9
:0B3F9F007FF6A81008E624FB40030298
:023FAA004208CB
:0E3FAC0090EE4FE5D9F0E0FB53030790EE5D79
:0E3FBA00EBF0BB022C90EE50E5D9F090EE51EA
:0E3FC800E5D9F090EE52E5D9F090EE53E5D930
:093FD600F0E0FB20E703024214B5
:0A3FDF0090EE51E0F582124F080247
:023FE900421480
:0B3FEB00A8100808E4F608F608F6A885
:0A3FF600100816A81008E660151266
:094000004F5CAE82BE0102800B90
:0B400900A8100876007582E6123698B9
:0C401400A81008E66015124FB0AE82AF95
:0C40200083AAF0A8100808A60608A6074E
:03402C0008A602E1
:09402F00A81008E670030242002B
:0C403800A8100808E608460846700302BD
:02404400420038
:0C404600A8100808742C26FAE40836FEC6
:0E40520008860790EE4FE0FB8A828E838FF087
:0E4060001245ADA3AA82AE83EB54206017C0B8
:0E406E0002C006C00790EE4EE05402D007D00C
:08407C0006D002700375E1E8B3
:07408400A8100816167B00CE
:0C408B00A81008C3EB9650138A828E83A5
:0E4097008FF0E5D91245ADA3AA82AE830B804F
:0140A500E535
:0C40A600A8100808742626FAE40836FB6F
:0C40B200088604E5102405F874012AF6C5
:0D40BE00E43B08F608A604E5D924D3FDE58F
:0C40CB00102405F886820886830886F021
:0E40D700ED1245AD74022AFAE43BFB8A828B9F
:0E40E500838CF0E5D91245AD8A828B838CF076
:0A40F300124B0CFA20E7030241D142
:0A40FD00A8100806A8100808742691
:0E41070026FAE40836FB0886048A828B838C35
:0C411500F0E41245ADA8100808868208EE
:0E41210086830886F0E41245ADA3E41245AD96
:0C412F00A3E41245ADA810080874202677
:0E413B00FAE40836FB0886048A828B838CF037
:0A414900E41245ADA3E41245ADA851
:0C415300100808742226FAE40836FB0865
:0C415F008604A8100886057E008A828B6A
:0D416B00838CF0ED1245ADA3EE1245ADA81A
:0C417800100808742626FAE40836FB083C
:0E418400860474022AFAE43BFB8A828B838C49
:0E419200F0124B0CFD53057F8A828B838CF05C
:0C41A000ED1245ADA8100808741F26FAA7
:0E41AC00E40836FB0886048A828B838CF0E4DC
:0C41BA001245ADA8100808868208868314
:0B41C6000886F012500412505880438D
:0C41D100A8100808742226FAE40836FB47
:0E41DD000886048A828B838CF0E41245ADA321
:0C41EB00E41245ADA81008088682088682
:0941F700830886F01250AC80141C
:084200007582E6123698800C6D
:0C4208007582E61236987582E612369830
:04421400D285800CC3
:0C4218007582E61236987582E612369820
:0342240053E9DF7C
:0C422700539BFC439120D2AF851081D046
:0C42330010D0D0D001D000D007D006D0B1
:0E423F0005D004D003D002D083D082D0F0D0BE
:04424D00E0D020326B
:0C425100C020C0E0C0F0C082C083C002EA
:0E425D00C003C004C005C006C007C000C001F9
:0D426B00C0D075D000C2AFC2897582E512C7
:0C42780036987582E61236987582E612C0
:0E42840036987582E2123698C285C285D2AF96
:0E429200D0D0D001D000D007D006D005D00487
:0D42A000D003D002D083D082D0F0D0E0D087
:0242AD002032BD
:015CCE0000D5
:020000040003F7
:0E800000AA82AB83ACF0FD740AC0E0E4C0E0DD
:0E800E00C0E0C0E08A828B838CF0ED1248BD8A
:0E801C00AA82AB83E58124FCF5818A828B83E6
:07802A0012055C90FFFF222C
:020000040001F9
:0280B0007A0054
:0B80B200EA75F00DA4FB240CFCE43484
:0C80BD00F6FD74082CF582E43DF583E02C
:0A80C900FC6031EB240CF582E43476
:0C80D300F6F583E0FBA3E0FCC002C00354
:0A80DF00C00474F4C0E07480C0E037
:0B80E900C003C00490000075F00022EE
:0980F400D004D003D0020A80B5CB
:0480FD007582012265
:04810100AA827B00D3
:0A810500EB75F00DA4240CFCE4342B
:0C810F00F6FD74082CF582E43DF583E0D9
:09811B00FC6009ECB502028003CE
:038124000B80DEEF
:0A812700EB75F00DA4240CFAE4340B
:0C813100F6FB74082AF582E43BF583E0BD
:0C813D00FC60097C008A828B838CF0229D
:0781490090000075F0002218
:06815000C0108581101231
:0E8156008101AA82AB83ACF0EA4B4C603A7414
:0D816400022AFAE43BFB8A828B838CF01226
:0B8171004B0CFAA3124B0CFBC0037474
:0A817C0095C0E07481C0E0C002C0AD
:0C81860003E51024FBF8868208868308BD
:0381920086F02252
:08819500AA82D0038A82800354
:03819D00758200E8
:0381A000D01022DA
:020000040000FA
:025CCF00005182
:025CD10054512C
:095CD300A85100000129010000A4
:025CDC00FC5179
:025CDE00505222
:095CE000A45200000208000000BB
:025CE900F8526F
:025CEB004C5318
:095CED00A05300000310000000A8
:025CF600F45365
:025CF80048540E
:095CFA009C540000041704000092
:025D0300F0545A
:025D0500445503
:095D070098550000051000000091
:025D1000EC5550
:025D12004056F9
:0A5D14009456000006000000000095
:0C5D1E0000000000000000000000000079
:020000040001F9
:0281A3007A045C
:0C81A500EA14FB75F018A4FC245EF582BF
:0A81B100E434EEF583E4F0EC245E04
:0C81BB00FCE434EEFD74162CF582E43D6B
:0E81C700F583E4F0A3F08C828D83A3A3E4F093
:0E81D500A3F074132CF582E43DF583E4F0A3CF
:0E81E300F0A3F074062CF582E43DF583E4F081
:0681F1008B02EA70AF22D0
:0A81F700C010E581F510240AF5819F
:0A820100AD82A810087600A810084E
:0C820B0008E4F608F608F67FFFE51024F2
:0482170005F87600F0
:0C821B00E5102405F8E675F005A4FBACA6
:0A822700F0E5102406F8EB246DF6D4
:0A823100EC34F608F6E5102406F818
:0E823B008682088683E0606FEF30E76B7A0082
:078249008B06E5102406F886
:0C825000C007E5102406F886820886832B
:0E825C00E0FFC3EA9FE433D0076042C007EEA4
:0A826A00246DFFEC34F6FB0FBF009B
:02827400010BFC
:0E827600EA2FF582E43BF583E0FBB5050474C6
:0382840001800175
:01828700E412
:0C828800D007601AE5102405F88607A84E
:0A8294001008A602EE246DF582EC3E
:08829E0034F6F583E0FB8B02CE
:0382A6000A80A7A4
:0982A900E5102405F80602821B11
:0282B2007A0050
:0382B400BA040009
:0C82B700501AC007EA75F018A4245EFB02
:0C82C300E434EEFF8B828F83E0D0076074
:0482CF00030A80E13D
:0782D300EF30E7030284A66F
:0382DA00BA0400E3
:0582DD0040030284A62D
:0A82E200EA75F018A4245EFAE434F3
:0A82EC00EEFBA8100808A60208A681
:0C82F60003087600A8100808740626FA99
:0E830200E40836FB0886048A828B838CF0E444
:0C8310001245ADA8100808740126FAE41C
:0E831C000836FB0886048A828B838CF0EF12F1
:0C832A0045ADA8100808740626FAE40807
:0E83360036FB088604740B2AFAE43BFB8A82AD
:0E8344008B838CF0E41245ADA3E41245ADA886
:0C835200100808740426FAE40836FB0842
:0E835E0086048A828B838CF0E41245ADA3E482
:0C836C001245ADA8100808740226FAE4BF
:0E8378000836FB0886048A828B838CF0E412A0
:0883860045ADA3E41245ADA8CA
:0C838E0010080886820886830886F0ED3F
:0C839A001245ADA8100808741626FAE47D
:0D83A6000836FB0886048A828B838CF0E584
:0C83B3001024FCF8E61245ADA308E61209
:0783BF0045ADA8100808E518
:0C83C600102408F9741326F7E4083609A7
:0C83D200F70809E6F7E5102408F8868299
:0E83DE000886830886F0124B0CFDA3124B0C90
:0C83EC00FEA3124B0CFAED4E4A703FE568
:0A83F8001024FCF8E608467035E595
:0C840200102408C0077403C0E07582025B
:0E840E001213D7AD82AE83AAF01581D007E518
:0C841C00102408F886820886830886F089
:0C842800ED1245ADA3EE1245ADA3EA1223
:0284340045AD54
:0D843600C2D575F005EF30E704B2D5F404AF
:0E844300A430D50AF42401C5F0F43400C5F0CD
:0A845100246DFA74F635F0FB0ABA48
:03845B0000010B12
:0C845E00A81008E62AF582E43BF583E054
:0E846A00F582128101AA82AB83ACF0EA4B4C82
:0E847800602C740A2AFAE43BFB8A828B838C08
:0C848600F0124B0CFA6019A810080874E2
:0E8492000626FBE40836FC0886058B828C83E8
:0684A0008DF0EA1245AD6B
:0C84A600A810080886820886830886F06B
:0684B200851081D01022AC
:0D84B800AA82AB83ACF0C002C003C0041266
:0E84C5008671AD82D004D003D002ED20E70E08
:0E84D3008A828B838CF0E41245AD7582012203
:0484E100758200227E
:0A84E500C010858110C082C083C062
:0C84EF00F0E5812409F581E51024FBF87C
:0C84FB008605088606088607E5102404A4
:0D850700F8740B2DF6E43E08F608A607E513
:0C851400102404F886820886830886F094
:0E852000124B0CFAA3124B0CFB4A6011BAFE70
:06852E0005BB00028009FC
:09853400C374BF9A74F09B500659
:06853D0075820002866B4E
:0C854300A81008B6000A08B6000608B62A
:04854F000002804165
:0A855300C005C006C007A81008E527
:0C855D00102407F9740226F7E408360920
:0C856900F70809E6F7E5102407F8868201
:0E8575000886830886F0124B0CFDA3124B0CF7
:09858300FEE4BD0004BE00010489
:08858C00D007D006D0057006EF
:0685940075820002866BF7
:0E859A008D828E838FF0124B0CFA605CC00550
:0C85A800C006C007A81008740626FDE4F9
:0D85B4000836FE0886078D828E838FF01238
:0E85C1004B0CFBD007D006D005EB6004EAB5EA
:0285CF00032C7B
:0C85D100A81008740626FAE40836FB081F
:0E85DD0086047403C0E0E4C0E0C005C006C020
:0E85EB00078A828B838CF012494CE58124FBB9
:0485F900F581802266
:0585FD00758200806999
:0C860200129FCBAA82A81008740126FB6E
:0E860E00E40836FC0886058B828C838DF0EA2A
:03861C001245AD57
:0C861F00E5102404F88682088683088693
:0B862B00F0124B0CFAA3124B0CFBE505
:0C863600102407F886820886830886F06E
:0A864200EA1245ADA3EB1245ADA806
:0C864C001008740426FCE40836FD0886C3
:0E865800068C828D838EF0EA1245ADA3EB12E4
:0586660045AD75820125
:06866B00851081D01022F1
:08867100AA82AB83ACF07D008E
:03867900BD04003D
:0C867C00501FED75F018A4245EFEE434DD
:0C868800EEFF7800EAB5060AEBB5070625
:06869400ECB500028003BA
:03869A000D80DC74
:03869D00BD040019
:0586A00050038D822251
:0486A5007582FF22B9
:0A86A900C010858110C082C083E577
:0C86B300812411F581E5102404F8E4F6A0
:0C86BF0008F608F6E51024FBF886070812
:0C86CB008604088605E5102408F8740BEE
:0C86D7002FF6E43C08F608A605E5102488
:0E86E30008F886820886830886F0124B0CFE8B
:0C86F100A3124B0CFA4E6008A81008E61B
:0486FD0008467009B2
:0987010090000075F000028909E6
:0E870A008F828C838DF0124B0CFA24FB4037CB
:07871800EA2A2A90871F7373
:07871F0002874F02873402BC
:06872600874602873DE5D5
:08872C00102407F876088022F2
:09873400E5102407F8760880190D
:09873D00E5102407F87604801011
:09874600E5102407F87602800713
:07874F00E5102407F8760095
:098756007B00A810080808760059
:08875F00A810080808B6040088
:0587670040030288B18F
:0C876C00C003A810080808E675F018A467
:0A877800C0E0E510240BF8D0E02467
:088782005EF6E434EE08F6E5B2
:0C878A0010240BF88682088683A3A3A3AA
:0C879600A3E0FBA3E0FAA81008E6B5037E
:0A87A2000908E6B502047401800125
:0187AC00E4E8
:0787AD00D00370030288A154
:0C87B400C003E510240BF8740626F6E460
:0C87C0000836F6E510240BF8740B26F5C3
:0C87CC0082E40836F583E510240DF8E087
:0C87D800F6A3E008F6E5102408F88682FD
:0E87E4000886830886F0124B0CFEA3124B0C85
:0C87F200FAE510240DF8E6B5060908E6CB
:0787FE00B5020474018001C3
:01880500E48E
:07880600D00370030288A1FA
:0B880D00E5102407F8E66071C003E5E9
:0A881800102407F8E510240DF9E61E
:0C882200F7097700E510240FF874012F0F
:0C882E00F6E43C08F608A605E510240B53
:0E883A00F8740126FAE40836FB7E00C004C084
:0C88480005C007E510240DF8E6C0E008AC
:0C885400E6C0E0E510240FF8E6C0E008E4
:0E886000E6C0E008E6C0E08A828B838EF0124C
:0E886E004800AA82AB83E58124FBF581D00788
:0A887C00D005D004EA4BD003701BB6
:0A888600EB75F018A4245EFAE43448
:0A889000EEFEE5102404F8A602082D
:07889A00A60608760080101D
:0A88A100A81008080806A81008082F
:0688AB0008860302875F4E
:0C88B100E5102404F8E608460846703F75
:0188BD00FAC0
:0388BE00BA0400F9
:0C88C1005039EA75F018A4245EFBE43482
:0C88CD00EEFC8B828C83A3A3E0FDA3E0F3
:0C88D900FEA81008E6B5050708E6B50685
:0388E5000280020C
:0288E800800FFF
:0C88EA00E5102404F8A60308A604087694
:0388F600008003FC
:0388F9000A80C230
:0C88FC00E5102404F886820886830886B4
:01890800F07E
:06890900851081D0102250
:0A890F00C010858110C082C083C033
:0E891900F0058105810581900014129B7BAD55
:0C89270082AE83AFF0E5102404F8A60532
:0E89330008A60608A607ED4E4F7003028A6FD5
:0C894100E5102404F8868208868308866E
:0C894D00F0A91009E71245ADA309E712DC
:0989590045ADA309E71245ADE5A7
:0C896200102404F8741D26FDE40836FE05
:0E896E000886078D828E838FF074081245AD47
:0C897C00E5102404F8741E26FDE4083603
:0E898800FE0886078D828E838FF0E41245ADC7
:0C899600E5102404F8741F26FDE40836E8
:0D89A200FE0886078D828E838FF07401120F
:0C89AF0045ADE5102404F8742626FDE414
:0E89BB000836FE08860774012DFAE43EFB8F95
:0E89C900048A828B838CF0E41245AD74022D7B
:0E89D700FAE43EFB8F048A828B838CF0E4125C
:0E89E50045AD74052DFAE43EFB8F048A828BAB
:0E89F300838CF0E41245AD8D828E838FF0E40C
:0C8A01001245ADA81008740626FAE4081F
:0C8A0D0036FB088604E5102404F874030E
:0E8A190026FDE40836FE088607740DC0E0E472
:0E8A2700C0E0C002C003C0048D828E838FF0B9
:0C8A350012494CE58124FBF581E510247A
:0E8A410004F8741026FAE40836FB0886047464
:0B8A4F000DC0E0E4C0E074FEC0E07465
:0C8A5A00F5C0E0E4C0E08A828B838CF061
:098A660012494CE58124FBF58165
:0C8A6F00E5102404F8868208868308863F
:078A7B00F0851081D01022EC
:078A8200129CD7758201224E
:0A8A8900C010858110C082C083C0B8
:0C8A9300F0058105810581A8100886828D
:0E8A9F000886830886F0128671E582FD30E7B6
:078AAD0006758200028D50E6
:0C8AB400A81008740126FDE40836FE0836
:0E8AC00086078D828E838FF0124B0CFDC00551
:0D8ACE00129FCBAE82D005EDB506028003ED
:038ADB00028B65A6
:0C8ADE00E51024F8F886050886060886D6
:0E8AEA000774262DFAE43EFB8F048A828B83EC
:0C8AF8008CF074011245ADE5102404F868
:0C8B0400741E2DF6E43E08F608A607A833
:0B8B1000100886820886830886F01299
:0C8B1B004B0CFAE5102404F88682088652
:0E8B2700830886F0EA1245AD741F2DFAE43E75
:0E8B3500FB8F048A828B838CF074011245AD95
:0E8B4300741D2DFAE43EFB8F048A828B838C16
:0D8B5100F074081245AD8D828E838FF012F6
:078B5E0056E8AA82028D50C7
:0C8B6500A81008740226FBE40836FC0887
:0E8B710086058B828C838DF0124B0CFBA312B9
:0C8B7F004B0CFCBB0057BC0054A81008B5
:0E8B8B00740426FDE40836FE0886078D828EEF
:0E8B9900838FF0124B0CFDA3124B0CFE8D03CC
:0C8BA7008E04EB4C702FA810088682088A
:0C8BB30086830886F0128F07A810087453
:0E8BBF000426FDE40836FE0886078D828E83AC
:0E8BCD008FF0124B0CFDA3124B0CFE8D038E8D
:018BDB000495
:0A8BDC00C003C004E51024F8F8E51A
:0C8BE600102404F9E6F70809E6F7080976
:0C8BF200E6F7E5102404F886820886836C
:0C8BFE000886F0A91009E71245ADA30994
:0B8C0A00E71245ADA309E71245ADE5F8
:0C8C1500102404F8741026FBE40836FC60
:0E8C21000886058B828C838DF0124B0CD004DC
:0C8C2F00D003703EE5102404F8741026F9
:0D8C3B00FDE40836FE0886070DBD00010EA1
:0C8C4800C003C0047408C0E0E4C0E07485
:0A8C5400FFC0E074F5C0E0E4C0E0EA
:0E8C5E008D828E838FF012494CE58124FBF548
:058C6C0081D004D003DB
:0C8C7100E5102404F8741026FDE4083619
:0E8C7D00FE088607740B2DFDE43EFE8D828EF0
:0D8C8B00838FF0EB1245ADA3EC1245ADE573
:0C8C9800102404F8741D26FBE40836FCD0
:0E8CA4000886058B828C838DF074081245AD16
:0C8CB200E5102404F8741F26FBE40836CB
:0D8CBE00FC0886058B828C838DF0740112FA
