:020000040000FA
:0600000002008D024AF728
:01000B0032C2
:0100130032BA
:03001B0002518609
:0100230032AA
:03002B0002346834
:01003300329A
:01003B003292
:03004300023F4534
:03004B00023E5121
:03005300023E5911
:03005B00023E64FE
:03006300023EADAD
:03006B00023D193A
:0300730002520333
:03007B00023D9EA5
:030083000247F041
:0300F00002008685
:050086001200F380FEF2
:0E00F30043FD30123AAA90C20075F001E412EB
:0E0101004B55125BBCE4C0E0C0E0C0E07402ED
:0E010F00C0E0E4C0E0C0E0C0E074DCC0E0E4AA
:0A011D00C0E074DCC0E0746DC0E0C7
:0E0127007480C0E090013E12064EE58124F483
:09013500F581120EAC90000022CD
:0A013E00C010E581F510240AF581D8
:0E014800D284900064120B42C2849000001218
:0E0156005C10AA82AB83ACF090E000EAF0A34C
:0E016400EBF0A3ECF0E4C0E0C0E07582021204
:0D0172005C64AA82AB83ACF015811581900E
:0E017F00F3C5EAF0A3EBF0A3ECF0EA4B4C6002
:0A018D001A74B8C0E074F3C0E0E497
:0E019700C0E08A828B838CF0125CB815811553
:0301A50081158140
:0A01A80090F3C374BEF0A374F0F0EE
:0E01B20090F3C8E0FA702290F3C9E0FA701BD7
:0E01C000C28490F3C97401F0121104E5828527
:0D01CE0083F090E003F0A3E5F0F0125D0C6B
:0E01DB0090F3C5E0FAA3E0FBA3E0FC74C8C0FB
:0E01E900E0E4C0E08A828B838CF0125D60AA95
:0C01F70082AB83ACF015811581A81008C4
:0C020300A60208A60308A604A81008E63E
:0D020F00084608466014906DE0124B5EA892
:0B021C00100886820886830886F01216
:020227005DB4C4
:0A02290090F3C8E0FD70030204A288
:0E023300121104AA82AB8390F3CAE0FFA3E08D
:0C024100FDEAC39FFFEB9DFDE5102404C7
:0D024D00F8A60708A605087600087600E56B
:0C025A00102404F8E6C0E008E6C0E0084C
:0E026600E6C0E008E6C0E0900005E4F5F01206
:0C02740058C9A81008080808A68208A6AF
:0D0280008308A6F008F6E58124FCF581E571
:0C028D00102404F8C3741096742708961F
:0B029900E40896E4089640030204A865
:0E02A40090F3C5E0FDA3E0FEA3E0FF8D828E87
:0D02B200838FF0125E08AD82AE83AFF0A81E
:0B02BF001008A60508A60608A607A860
:0C02CA001008E608460846700302043CD9
:0C02D600A81008742226FDE40836FE087B
:0E02E20086078D828E838FF0E41252B5A3E45E
:0C02F0001252B5A81008742026FAE40889
:0D02FC0036FB0886048A828B838CF0E412A6
:0803090052B5A3E41252B5A89D
:0A0311001008E5102408F9742C26EA
:0E031B00F7E4083609F70809E6F78A828B83B3
:0C0329008CF012582CFAA312582CFBE5A3
:0C033500102408F8EA26FAEB0836FB0852
:0E03410086048A828B838CF074011252B5A35D
:0D034F008CF074011252B5A38CF0740112F1
:0E035C0052B5A38CF074021252B5A38CF0744B
:0E036A00011252B5A38CF074021252B5A38C8E
:0E037800F074011252B5A38CF0740F1252B53E
:0D038600A38CF074F51252B5A38CF0E412B4
:0E03930052B5A38CF074011252B5A38CF07415
:0E03A100F31252B5A38CF074081252B5A38C5F
:0E03AF00F074011252B5A38CF074F91252B51D
:0D03BD00A38CF074011252B5A38CF0E41271
:0E03CA0052B5A38CF074F61252B5A38CF074E9
:0E03D800011252B5A38CF0E41252B5A38CF0C2
:0E03E60074FA1252B5A38CF074051252B5A32E
:0D03F4008CF074041252B5A38CF0745412F6
:0E04010052B5A38CF074651252B5A38CF07442
:0E040F00731252B5A38CF074741252B5A3AAE6
:0C041D0082AB83E5102408F8EAC396FACD
:0E042900EB0896FB8D828E838FF0EA1252B59F
:05043700A3EB1252B519
:0C043C0090F3C5E0FAA3E0FBA3E0FCA8ED
:0C0448001008E6C0E008E6C0E008E6C0CE
:0A045400E074B8C0E074F3C0E0E407
:0E045E00C0E08A828B838CF0125E5CAA82E57D
:0E046C008124FAF581BA0118906DF1124B5EF1
:0E047A00121104E5828583F090F3CAF0A3E529
:04048800F0F0801CF4
:0C048C00A8100886820886830886F012FB
:060498005DB4906E051238
:04049E004B5E80062B
:0604A200906E18124B5E83
:0D04A8009000C8125EB0AA82AB83ACF0A831
:0B04B5001008A60208A60308A604A871
:0C04C0001008E60846084670030205DD3F
:0C04CC00A8100886820886830886F012BB
:0A04D8005F04AA82BA020302055F66
:0504E200BA06028003D0
:0304E7000205CF3C
:0C04EA00A81008740326FAE40836FB088A
:0C04F6008604E5102408F8740B2AF6E4D4
:0E0502003B08F608A60490F3C3E0FDA3E0FE5C
:0C051000E5102408F8868208868308861F
:0E051C00F0ED1252B5A3EE1252B50ABA00016C
:01052A000BC5
:0E052B007408C0E0E4C0E0C002C003C0049049
:0E053900F3B975F000125508AA82AB83E58174
:0B05470024FBF581EA4B60030205CFA6
:0D05520090F3C8E4F090F3B8F0C28480701C
:0D055F0090F3C9E4F090F3C8E0FA7064A8CE
:0C056C001008741026FAE40836FB08861C
:0E0578000474012AFDE43BFE8C07C002C003A0
:0E058600C0047408C0E0E4C0E0C005C006C0B8
:0E0594000790F3B975F0001256BFE58124FB05
:0E05A200F581D004D003D0028A828B838CF0C6
:0805B00012582C90F3B8F090F2
:0E05B800F3C87401F0121104E5828583F090FF
:0905C600F3CAF0A3E5F0F0D284C1
:0C05CF00A8100886820886830886F012B7
:0205DB005DB40D
:0E05DD0090F3C9E0FABA0158121104AA82ABD9
:0E05EB008390E003E0FCA3E0FDEAC39CFAEB82
:0E05F9009DFB7C007D00C002C003C004C00555
:0E060700900005E4F5F01258C9AA82AB83AC4E
:0E061500F0FDE58124FCF581C374E89A7403BE
:0E0623009BE49CE49D5013125F58121104E5F5
:0C063100828583F090E003F0A3E5F0F078
:0C063D00900064120B42B2850201B285ED
:050649001081D0102219
:046DDC004170700092
:0E6DE00052582074657374207061636B657483
:036DEE000D0A008B
:0E6DF1005061636B65742073656E7420746F5F
:066DFF002047570D0A00B9
:0E6E0500536F636B65742073656E6420666165
:056E1300696C0D0A008E
:0E6E1800475720646973636F7665722E2E2EC5
:036E26000D0A0052
:0D6E830004FFFFFFFFFFFFFFFFFFFFB9F05F
:036E9000000000FF
:016E930000FE
:016E940000FD
:026E95000000FB
:0500E60090E077E4F05A
:0A064E00C010858110C082C0830532
:0C0658008105810581E51024F9F88682F7
:0D066400088683121994AC82AD83AEF0A815
:0C06710010080808A60408A60508A60644
:0C067D00A810080808B6000B08B600071B
:0706890008B6000302083F60
:0A069000E51024F5F8E6C0E0E510DF
:0E069A0024FBF8E6C0E008E6C0E008E6C0E099
:0C06A800E51024F9F8E6C0E008E6C0E028
:0C06B400A81008080886820886830886C3
:0C06C000F0121703E58124FAF581A81060
:0E06CC00080808742026FFE40836FA088603A2
:0E06DA008F828A838BF012582CFFA312582CAB
:0C06E800FAA312582CFBE51024F6F8E6EB
:0C06F400C0E008E6C0E008E6C0E0A81086
:0E07000008E6C0E008E6C0E08F828A838BF036
:0E070E001230D5AA82AB83AFF0E58124FBF553
:0C071C0081A8100808088682088683085F
:0E07280086F0EA1252B5A3EB1252B5A3EF12FF
:0E07360052B5C0E0C0A8C2AF90F3D0E02401DD
:0C074400F090F3D0E0FABA0117A81008FA
:0E075000080890F3CCE6F008A3E6F008A3E654
:06075E00F0121870803F4C
:0E07640090F3D5E0FA703890F3CCE0FAA3E001
:0E077200FBA3E0FF741F2AFAE43BFB8A828B94
:0C078000838FF012582CFAE51024F5F8D5
:0B078C00C3E69A4012A810080808906D
:0C079700F3CCE6F008A3E6F008A3E6F0BF
:0C07A300A810080808741F26FAE40836A5
:0E07AF00FB0886078A828B838FF012582CFA83
:0E07BD0090F3D3E0FBC39A500590F3D3EAF01B
:0C07CB00A810080808742326FBE4083678
:0E07D700FF08860490E077E0FD8B828F838C14
:0B07E500F01252B590E077ED04F090A8
:0D07F000F3D4E0FBC39A500590F3D4EAF077
:0C07FD00A810080808740326FBE4083666
:0C080900FC088605EA75F00CA42405FA32
:0C081500E434E0FE7F00C003C004C00516
:0E0821008A828E838FF0122ABA1581158115F6
:0E082F00817A01D0E053E080E5E042A8D0E0FD
:02083D00800237
:02083F007AFF3E
:0C084100BA0163E51024F2F88603088673
:0E084D0004088605BB0008BC0005BD00028043
:01085B001B81
:0C085C008B828C838DF0A810080808E641
:0D0868001252B5A308E61252B5A308E6121D
:0208750052B57A
:0E08770090F3D5E0FB602990F3CCE0FBA3E00A
:0E088500FCA3E0FD741F2BFBE43CFC8B828C7B
:0C089300838DF012582CFBE51024F5F8C2
:08089F00C3EB965003123387EE
:0808A7008A82851081D0102225
:0A08AF00C010E581F5102406F58164
:0D08B900AA82AB83ACF0C0E0C0A8C2AF9033
:0E08C600F3CCE0FDA3E0FEA3E0FFEAB5050ED3
:0E08D400EBB5060AECB507067A007B007C0047
:0B08E200E4BA0007BB0004BC000104E6
:0C08ED00FD601290F3CCA81008E0F6A308
:0908F900E008F6A3E008F6800B0C
:0B090200A81008A60208A60308A6041F
:0C090D00C005A8100886020886030886B2
:0E0919000474032AFEE43BFF8C058E828F835C
:0E0927008DF0C002C003C004C005122F14D012
:0C09350005D004D003D002E5102404F823
:0C09410074112AF6E43B08F608A604E551
:0C094D00102404F8740B26FDE40836FEAC
:0E0959000886078D828E838FF012582CFDA326
:0E09670012582CFEA312582CFFED4E4FD00557
:0C0975006020E5102404F88682088683C8
:0E0981000886F0C002C003C004C005122F1487
:08098F00D005D004D003D00212
:0E09970074032AFAE43BFBC005C002C003C093
:0E09A5000490E05F75F000122ABA15811581EA
:0E09B3001581D00590F3CFE02401F0D0E05381
:0E09C100E080E5E042A8D0E0ED60031233874D
:0609CF00851081D010220A
:0A09D500C010858110C082C083C0ED
:0B09DF00F00581E5102404F8760012FA
:0C09EA000EFEA81008868208868308868E
:0B09F600F012582CFEA312582CFFE555
:0C0A01001024FCF8E62EFD08E63FFA8DFC
:0E0A0D000390F3D1E0FCA3E0FDC3EC9EED9F4F
:0E0A1B00501FC3EB9EEA9F503590F3D1E0FCD4
:0C0A2900A3E0FDC3EC9BED9A5026E51005
:070A35002404F87601801D86
:0E0A3C00C3EB9EEA9F400F90F3D1E0FCA3E0D5
:080A4A00FDC3EC9BED9A50077F
:070A5200E5102404F8760111
:0C0A5900A8100886820886830886F0EB4F
:090A65001252B5A3EA1252B5E5E4
:0A0A6E00102404F8E67003020B31B7
:0E0A780090F3CCE0FCA3E0FDA3E0FE74032CA1
:0E0A8600FCE43DFD8C828D838EF0C002C00327
:0E0A9400122F14D003D00290F3CCE0FCA3E0AC
:0E0AA200FDA3E0FE74032CFCE43DFD8C828D70
:0D0AB000838EF0EB1252B5A3EA1252B590FE
:0E0ABD00F3D1E0FCA3E0FDC3EB9CEA9D5034B6
:0E0ACB0090F3CCE0FAA3E0FBA3E0FC74032A56
:0E0AD900FAE43BFB90E050E0FDA3E0FEA3E05A
:0E0AE700FFC002C003C0048D828E838FF01208
:0A0AF5002C791581158115818032DE
:0E0AFF0090F3CCE0FAA3E0FBA3E0FC74032A22
:0E0B0D00FAE43BFB90E04DE0FDA3E0FEA3E028
:0E0B1B00FFC002C003C0048D828E838FF012D3
:080B29002C791581158115815D
:0B0B3100120F17E582FA7003123387E1
:060B3C00851081D010229B
:0D0B4200AA82AB837C00EA4B7003020C28F2
:0E0B4F00C002C003120EFED003D00290F3D1FC
:0E0B5D00E0FDA3E0FEEA2DFAEB3EFB90F3CCA8
:0E0B6B00E0FDA3E0FEA3E0FF74032DFDE43ED9
:0E0B7900FE8D828E838FF0C002C003122F14F7
:0E0B8700D003D00290F3CCE0FDA3E0FEA3E08B
:0E0B9500FF74032DFDE43EFE8D828E838FF0F3
:0A0BA300EA1252B5A3EB1252B5900E
:0E0BAD00F3D1E0FDA3E0FEC3EA9DEB9E5034C1
:0E0BBB0090F3CCE0FAA3E0FBA3E0FD74032A64
:0E0BC900FCE43BFB90E050E0FEA3E0FFA3E065
:0E0BD700FAC004C003C0058E828F838AF0121C
:0A0BE5002C791581158115818032ED
:0E0BEF0090F3CCE0FAA3E0FBA3E0FD74032A30
:0E0BFD00FCE43BFB90E04DE0FEA3E0FFA3E034
:0E0C0B00FAC004C003C0058E828F838AF012E7
:080C19002C791581158115816C
:070C2100120F17AA828A04DA
:060C2800EC7003023387AB
:010C2E0022A3
:0A0C2F00C010E581F5102406F581E0
:0D0C3900AA82AB83ACF0C0E0C0A8C2AF90AF
:0E0C4600F3CCE0FDA3E0FEA3E0FFEAB5050E4F
:0E0C5400EBB5060AECB507067A007B007C00C3
:0B0C6200E4BA0007BB0004BC00010462
:0C0C6D00FD601290F3CCA81008E0F6A384
:090C7900E008F6A3E008F6800B88
:0B0C8200A81008A60208A60308A6049C
:0C0C8D00C005A81008860208860308862F
:0E0C99000474032AFEE43BFF8C058E828F83D9
:0E0CA7008DF0C002C003C004C005122F14D08F
:0C0CB50005D004D003D002E5102404F8A0
:0C0CC10074112AF6E43B08F608A604E5CE
:0C0CCD00102404F8740B26FDE40836FE29
:0E0CD9000886078D828E838FF012582CFDA3A3
:0E0CE70012582CFEA312582CFFED4E4FD005D4
:0C0CF5006020E5102404F8868208868345
:0E0D01000886F0C002C003C004C005122F1403
:080D0F00D005D004D003D0028E
:0E0D170074032AFAE43BFBC005C002C003C00F
:0E0D25000490E06B75F000122ABA158115815A
:0E0D33001581D005D0E053E080E5E042A8D065
:070D4100E0ED6003123387AF
:060D4800851081D010228D
:0A0D4E00C010858110C082C083C070
:0B0D5800F0E5812408F581A81008E5F3
:0C0D6300102404F9E6F70809E6F7080977
:0C0D6F00E6F7A81008B6000B08B6000755
:070D7B0008B60003020EA6FA
:0E0D8200C0E0C0A8C2AF90F3D6E0FD6003024F
:020D90000E66ED
:0C0D9200A81008741F26FDE40836FE08B7
:0C0D9E0086078D828E838FF0E5102408FC
:0E0DAA00F812582CF690F3CCE0FBA3E0FCA36B
:0E0DB800E0FA741F2BFBE43CFC8B828C838AD8
:0C0DC600F012582CFBE5102408F8C3E6DE
:0C0DD2009BB3E433FBE5102407F8A603F4
:0C0DDE00A81008740326FBE40836FC088B
:0E0DEA0086028B828C838AF0C005C006C0078B
:0E0DF800122F14D007D006D0058D828E838F67
:0E0E0600F012582CFA90F3D4E0FBC39A50057A
:050E140090F3D4EAF0A8
:0C0E1900E5102404F8740326FAE40836FF
:0C0E2500FB088604E5102404F8741F2666
:0E0E3100FDE40836FE0886078D828E838FF062
:0C0E3F0012582C75F00CA42405FDE434BE
:0C0E4B00E0FE7F00C002C003C0048D82E6
:0E0E57008E838FF0122ABA15811581158180C5
:010E65002A62
:0A0E6600E5102407F87600A8100834
:0E0E7000741126FAE40836FB088604C002C09E
:0E0E7E0003C00490E05375F000122ABA1581EB
:040E8C001581158136
:0C0E9000D0E053E080E5E042A8D0E0E5AF
:0A0E9C00102407F8E6600312338704
:060EA600851081D010222E
:0E0EAC00E4C0E0C0E0C0E0E4C0E0E4C0E0C0AC
:0C0EBA00E0C0E07450C0E0E4C0E0742927
:0B0EC600C0E0746EC0E07480C0E090DB
:0E0ED10016FE12064EAA82E58124F4F581BABF
:0E0EDF000112C2AF90F3D57401F090F3D1E48C
:060EED00F0A3F002330F38
:010EF30022DC
:0A0EF400C2AF90F3D5E4F00233869C
:0E0EFE00C0E0C0A8C2AF90F3D6E02401F0D04F
:0B0F0C00E053E080E5E042A8D0E022C6
:0A0F1700C010E581F5102406F581F5
:0C0F2100A810087600C0E0C0A8C2AF9085
:090F2D00F3D6E01490F3D6F09025
:090F3600F3D6E0FB60030210EEAB
:0A0F3F0090F3D0E0FB70030210EE07
:060F4900A8100808760064
:0A0F4F0090E053E0FCE4BC00010454
:040F5900FCB40100E3
:0E0F5D00E433FC603190E05975F00012582C1E
:0E0F6B00FCA312582CFDA312582CFE74082C67
:0E0F7900FCE43DFD8C828D838EF012582CFC22
:0C0F8700A312582CFDA312582CFE80066B
:060F93007C007D007E00E1
:0E0F99008C078D038E02BC0009BD0006BE0051
:040FA700030210AE83
:0E0FAB0074112FFCE43BFD8A068C828D838E30
:0E0FB900F0C002C003C007122F14D007D003EF
:0E0FC700D00274032FFCE43BFD8A068C828D61
:0E0FD500838EF0C002C003C007122F14D00795
:0E0FE300D003D002741F2FFCE43BFD8A068C65
:0B0FF100828D838EF0A8100808081203
:0E0FFC00582CF6C007C003C00290F3D4E0FAF0
:0C100A00A810080808C3EA96E433D002DE
:0C101600D003D007600AA810080808905A
:04102200F3D4E6F02D
:0C102600E5102404F874032FF6E43B08E6
:0E103200F608A6028C828D838EF012582C7563
:0A104000F00CA42405FAE434E0FBF0
:0C104A007F00C004C005C006E5102404AF
:0E105600F8E6C0E008E6C0E008E6C0E08A82E6
:0E1064008B838FF0122ABA158115811581D069
:0E10720006D005D0048C828D838EF012582C8F
:0E108000FC90F3CCE0FAA3E0FBA3E0FD741FAC
:0E108E002AFAE43BFB8A828B838DF012582CE9
:09109C00FAC3EC9A5003020F4F55
:0910A500A81008087601020F4FA3
:0710AE0090F3D7E0FA601B8C
:0B10B50090F3D7E0FA600E12113B90A0
:0A10C000F3D7E01490F3D7F080EBB3
:0610CA00A81008087601E1
:0910D000A8100808B6010280080E
:0810D90090F3D8E0FABA010D12
:0B10E100A81008760190F3D8E4F0128C
:0210EC00338748
:0C10EE00D0E053E080E5E042A8D0E0A88C
:0810FA0010088682851081D0E8
:021102001022B9
:0E110400C0E0C0A8C2AF90F3D1E0FAA3E0FBB8
:0E111200D0E053E080E5E042A8D0E08A828B76
:02112000832228
:0E112200C0E0C0A8C2AF90F3D0E0FAD0E05316
:0B113000E080E5E042A8D0E08A8222C7
:08113B00C010858110058190B0
:09114300F3D6E0FA600302132464
:0D114C0090F3D1E02401F0A3E03400F09016
:0E115900F3D1E0FAA3E0FB4A702C90E04DE0E9
:0E116700FAA3E0FBA3E0FC90E050E0FDA3E063
:0E117500FEA3E0FF90E04DEDF0A3EEF0A3EF3F
:0C118300F090E050EAF0A3EBF0A3ECF0D9
:0E118F0090E04DE0FAA3E0FBA3E0FC8A828B27
:0C119D00838CF012582CFAE4BA00010414
:0411A900FAB4010093
:0E11AD00E433FA604A90E04DE0FAA3E0FBA3C1
:0E11BB00E0FC74042AFAE43BFB74022AFAE416
:0E11C9003BFB8A828B838CF012582CFAA31207
:0E11D700582CFBA312582CFC74082AFAE43B97
:0D11E500FB8A828B838CF012582CFAA31227
:0A11F200582CFBA312582CFC8006B9
:0611FC007A007B007C007C
:0E1202008A058B068C07BA0009BB0006BC00EB
:041210000302132B97
:0E12140074032DFAE43EFB8F048A828B838CD8
:0E122200F012582CFAA312582CFBC005C0067F
:0E123000C00790F3D1E0FCA3E0FDC3EC9AED03
:0E123E009BE433D007D006D005600302132BCB
:0E124C0074032DFAE43EFB8F048A828B838CA0
:0E125A00F0C005C006C007122F14D007D00642
:0E126800D00574112DFAE43EFB8F04C005C0C2
:0E12760006C007740B2AFDE43BFE8C078D8238
:0E1284008E838FF012582CFDA312582CFEA35F
:0E12920012582CFFED4E4FD007D006D005604D
:0E12A000158A828B838CF0C005C006C0071231
:0812AE002F14D007D006D00573
:0E12B600741F2DFAE43EFB8F048A828B838C1A
:0C12C400F0A8100812582CF6C005C00657
:0C12D000C00790F3D4E0FDA81008C3EDA7
:0C12DC0096E433D007D006D0056008A8C7
:0712E800100890F3D4E6F0BA
:0E12EF0074032DFDE43EFE8A828B838CF01288
:0B12FD00582C75F00CA42405FAE43412
:0C130800E0FB7C00C005C006C0078A8224
:0E1314008B838CF0122ABA1581158115810287
:02132200118F29
:0713240090F3D7E02401F073
:06132B00851081D01022A4
:0E13310090F3D6E0FA600790F3D87401F02232
:0C133F0090F3D4E075F00CA42405FAE44F
:0B134B0034E0FB8A828B83E0700B9083
:0A135600F3D4E01490F3D4F080DF2C
:0C13600090F3D4E075F00CA42405FAE42E
:08136C0034E0FB0ABA00010B9A
:0C13740090F3D4E075F00CA42405FCE418
:0C13800034E0FD8C828D83A3E0FCA3E030
:0E138C00FDA3E0FE74022CFCE43DFD8C828D7E
:0E139A00838EF012582CFCA312582CFDA312C7
:0E13A800582CFE8A828B83ECF0A3EDF0A3EEAE
:0C13B600F090F3D4E075F00CA42405FACC
:0C13C200E434E0FB8A828B83A3E0FAA3F2
:0E13CE00E0FBA3E0FC90F3D4E075F00CA42447
:0A13DC0005FDE434E0FE74042DFD6D
:0E13E600E43EFE7F00EAB5055FEBB5065BEC6A
:0C13F400B5075790F3D4E075F00CA4246A
:0A14000005FAE434E0FB0ABA00012B
:01140A000BD6
:0C140B0090F3D4E075F00CA42405FCE480
:0C14170034E0FD8C828D83A3E0FCA3E098
:0E142300FDA3E0FE74022CFCE43DFD8C828DE6
:0E143100838EF012582CFCA312582CFDA3122F
:0E143F00582CFE8A828B83ECF0A3EDF0A3EE16
:01144D00F0AE
:0C144E0090F3D4E075F00CA42405FAE43F
:0C145A0034E0FB8A828B83A3E0FAA3E05D
:0E146600FBA3E0FC74082AFAE43BFB8A828BAD
:0E147400838CF012582CFAA312582CFBA312F2
:0E148200582CFC90F3CCEAF0A3EBF0A3ECF0B6
:011490002239
:0A149100C010858110AA82AB83AC65
:0E149B00F090F3CCE0FDA3E0FEA3E0FF74119F
:0E14A9002DFDE43EFEC005C006C0078A828B02
:0D14B700838CF0122C791581158115819020
:0C14C400F3D1E0FAA3E0FBE51024FCF8F3
:0E14D000E62AFA08E63BFB90F3CCE0FCA3E032
:0E14DE00FDA3E0FE74032CFCE43DFD8C828D2A
:0E14EC00838EF0C002C003122F14D003D00272
:0E14FA0090F3CCE0FCA3E0FDA3E0FE74032C15
:0E150800FCE43DFD8C828D838EF0EA1252B51C
:0E151600A3EB1252B590F3D1E0FCA3E0FDC3AD
:0E152400EA9CEB9D503490F3CCE0FAA3E0FB80
:0E153200A3E0FC74032AFAE43BFB90E050E0D7
:0E154000FDA3E0FEA3E0FFC002C003C0048DC7
:0E154E00828E838FF0122C7915811581158104
:02155C008032DB
:0E155E0090F3CCE0FAA3E0FBA3E0FC74032AB8
:0E156C00FAE43BFB90E04DE0FDA3E0FEA3E0BF
:0E157A00FFC002C003C0048D828E838FF0126A
:081588002C79158115811581F4
:03159000D0102256
:0A159300C010858110058105810557
:0E159D0081AA82AB83ACF012582CFDE4BD0095
:0215AB00010439
:0415AD00FDB4010088
:0E15B100E433FD603F74042AFAE43BFB74024D
:0E15BF002AFAE43BFB8A828B838CF012582CB4
:0E15CD00FAA312582CFBA312582CFC74082A07
:0E15DB00FAE43BFB8A828B838CF012582CFAC8
:0C15E900A312582CFBA312582CFC800607
:0615F5007A007B007C007F
:0C15FB00A81008A60208A60308A604A871
:0C1607001008741126FDE40836FE088669
:0E161300078D828E838FF0122F1490F3D6E095
:0C162100FD7070A81008740326FDE4089A
:0E162D0036FE0886078D828E838FF0122F14F2
:0C163B00A81008741F26FDE40836FE0805
:0D16470086078D828E838FF012582CFD9047
:0D165400F3D4E0FEC39D500590F3D4EDF0FB
:0C166100A81008740326FEE40836FF08F9
:0C166D008602ED75F00CA42405FBE434AB
:0C167900E0FC7D00C006C007C0028B82B0
:0E1685008C838DF0122ABA1581158115818093
:011693002333
:0C169400A81008741126FAE40836FB08C0
:0E16A0008604C002C003C00490E05375F00041
:0916AE00122ABA1581158115817B
:0C16B700A81008741F26FAE40836FB088F
:0D16C30086048A828B838CF012582CFA90DA
:0E16D000F3CCE0FBA3E0FCA3E0FD741F2BFBBA
:0E16DE00E43CFC8B828C838DF012582CFBC3F5
:0916EC00EA9B40057582018003B0
:0316F500758200FB
:0616F800851081D01022D4
:0516FE001218DF80FB63
:0A170300C010858110C082C083C0B1
:0C170D00F0A81008742C26FDE40836FE3D
:0C1719000886078D828E838FF0E5102477
:0D172500FCF8E61252B5A308E61252B5A872
:0C1732001008742426FDE40836FE08862A
:0C173E00077408C0E0E4C0E0E51024F9E6
:0E174A00F8E6C0E008E6C0E008E6C0E08D82E8
:0E1758008E838FF012575DE58124FBF581A88A
:0C1766001008742426FDE40836FE0886F6
:0E1772000774072DFDE43EFE8D828E838FF0FE
:0C178000E41252B5E51024F8F8B604009D
:09178C004007E51024F8F876038B
:0C179500A81008741F26FDE40836FE08AA
:0C17A10086078D828E838FF0E51024F8FF
:0C17AD00F8E61252B5A81008740326FDDF
:0E17B900E40836FE0886078D828E838FF012BC
:0C17C7002A99A81008741126FDE40836C9
:0E17D300FE0886078D828E838FF0122A99A859
:0C17E1001008740326FDE40836FE08869C
:0E17ED000774082DFDE43EFE8D828E838FF082
:0B17FB00A81008E61252B5A308E61281
:0918060052B5A308E61252B5A880
:0C180F001008741126FDE40836FE08865F
:0C181B0007E51024F8F886027B00740436
:0E182700C39AFAE49BFB8D828E838FF0EA1247
:0818350052B5A3EB1252B5A855
:0C183D001008741126FAE40836FB088637
:0E1849000474082AFAE43BFB8A828B838CF03D
:0B185700A81008E61252B5A308E61224
:0918620052B5A308E61252B58547
:05186B001081D01022E5
:021870007A00FC
:03187200BA0400B5
:0C187500501EEA75F00CA42405FBE434BE
:0C188100E0FC7D008B828C838DF0C002A7
:08188D001229C7D0020A80DD18
:0A18950090E03575F0001229C790AD
:09189F00E04175F0001229C79028
:0918A800E05375F0001229C7900D
:0918B100E05F75F0001229C790F8
:0918BA00E06B75F0001229C790E3
:0718C300E04D7435F0A37441
:0A18CA00E0F0A37400F090E0507409
:0A18D40041F0A374E0F0A37400F0EB
:0118DE0022E7
:0818DF0090F3CFE0FA70012242
:0D18E700120EFE90E05FE0FAE4BA0001048A
:0C18F400FAC002120F17D002EA600122B5
:0E190000C0E0C0A8C2AF90E05FE0FAE4BA0019
:02190E000104D2
:04191000FAB4010024
:0E191400E433FA603190E06575F00012582C53
:0E192200FAA312582CFBA312582CFC74082AAE
:0E193000FAE43BFB8A828B838CF012582CFA6F
:0C193E00A312582CFBA312582CFC8006AE
:06194A007A007B007C0026
:0E19500074032AFDE43BFE8C078D828E838F8C
:0E195E00F0C002C003C004122F14D004D00346
:0C196C00D00290F3D0E01490F3D0F09083
:0E197800F3CFE01490F3CFF0D0E053E080E521
:0E198600E042A8D0E08A828B838CF0021A7AAD
:0A199400C010858110C082C08305D9
:0E199E00810581058190002E123629AC82ADA4
:0C19AC0083AEF0A810080808A60408A6E6
:0C19B8000508A606A810080808B6000BD9
:0B19C40008B6000708B60003021A670F
:0C19CF00A810080808742026FFE4083661
:0C19DB00FA088603A8100886820886839C
:0E19E700C002C003C007123629AC82AD83AE29
:0E19F500F0D007D003D0028F828A838BF0ECF3
:0B1A03001252B5A3ED1252B5A3EE1273
:0C1A0E0052B5BC0023BD0020BE001DA886
:0C1A1A001008080886820886830886F001
:0C1A2600123995A810080808E4F608F62C
:041A320008F6803101
:0E1A36008F828A838BF012582CFFA312582C3B
:0C1A4400FAA312582CFBA81008E6C0E022
:0E1A500008E6C0E074A5C0E08F828A838BF0A8
:091A5E0012565415811581158101
:0C1A6700A81008080886820886830886FC
:071A7300F0851081D0102264
:0E1A7A00AA82AB83ACF074202AFDE43BFE8C04
:0D1A8800078D828E838FF012582CFDA31263
:0E1A9500582CFEA312582CFF8D828E838FF0EA
:0E1AA300C002C003C004123995D004D003D095
:0A1AB100028A828B838CF0023995C3
:056E290049444C450046
:036E9700000000F8
:016E9A0000F7
:016E9B0000F6
:026E9C000000F4
:016E9E0000F3
:016E9F0000F2
:016EA00000F1
:016EA10000F0
:016EA20000EF
:016EA30000EE
:0A1ABB00C010858110C082E581246F
:0C1AC50009F581A81008E67003021D104E
:0D1AD100900029123629AB82AC83ADF0A83D
:0C1ADE00100808A60308A60408A605A826
:0C1AEA00100808B6000B08B6000708B68C
:051AF6000003021D10B9
:0A1AFB00A81008A91019191986F0A7
:0E1B0500E7A4FEAFF074012EFAE43FFB8A82E3
:0E1B13008B83C006C007123629AA82AB83ACB2
:0C1B2100F0D007D006A810080886820843
:0E1B2D0086830886F0EA1252B5A3EB1252B579
:0E1B3B00A3EC1252B5BA0009BB0006BC0003B1
:031B4900021D0179
:0A1B4C00A8100808E5102405F9743C
:0D1B56000326F7E4083609F70809E6F7A8AA
:0C1B630010080886820886830886F012AD
:0A1B6F00582CFDA312582CFAA31203
:0C1B7900582CFBEE2DFEEF3AFF8B04E52C
:0C1B8500102405F886820886830886F08C
:0C1B9100EE1252B5A3EF1252B5A3EC12F5
:0C1B9D0052B5A8100808742426FCE408C7
:0D1BA90036FE0886078C828E838FF0E412D2
:0C1BB60052B5A8100808740626FCE408CC
:0D1BC20036FE0886078C828E838FF0ED12B0
:0A1BCF0052B5A3EA1252B5A3EB12BF
:071BD90052B5A8100808E551
:0C1BE000102405F9740926F7E408360902
:0C1BEC00F70809E6F7A8100886047E0040
:0C1BF800E5102408F8EC24FFF6EE34FFA2
:0C1C040008F6A81018181886077C00C00D
:0C1C100002C003C005C007C004E510249A
:0E1C1C0008F88682088683125468AC82AE8374
:0E1C2A0015811581D005D003D002EC2DFDEE02
:0C1C38003AFAE5102405F886820886833D
:0E1C44000886F0ED1252B5A3EA1252B5A3EBDA
:0C1C52001252B5A8100808742526FAE408
:0D1C5E000836FB0886048A828B838CF0A870
:071C6B001008E61252B5A8B3
:0C1C7200100808742626FAE40836FB0867
:0C1C7E0086048A828B838CF0A810181852
:0C1C8A0018E61252B5A8100808742726AE
:0E1C9600FAE40836FB0886048A828B838CF001
:0C1CA40074FF1252B5A81008087428261E
:0E1CB000FAE40836FB0886048A828B838CF0E7
:0C1CBE0074FF1252B5A8100808740C2620
:0E1CCA00FAE40836FB0886048A828B838CF0CD
:0C1CD8001229C7A8100808741826FAE4A6
:0D1CE4000836FB0886048A828B838CF01280
:0C1CF10029C7A81008088682088683080E
:041CFD0086F08015D8
:0C1D0100A810080886820886830886F077
:031D0D00123995F3
:061D100090000075F000D8
:061D1600851081D01022AF
:0A1D1C00C010858110C082C083C092
:0E1D2600F0E581240CF581120EFEC0E0C0A88D
:0C1D3400C2AFA81008742726FDE4083692
:0E1D4000FE0886078D828E838FF012582CFAD3
:0C1D4E000A8D828E838FF0EA1252B5A835
:0C1D5A001008742826FAE40836FB0886FE
:0E1D6600048A828B838CF012582CFD0D8A8229
:0E1D74008B838CF0ED1252B5D0E053E080E589
:0C1D8200E042A8D0E0A810088682088685
:0E1D8E00830886F012297FE5827003021E533F
:0B1D9C00E51024F9F8E6084670030289
:021DA7001E53C9
:0C1DA900A81008740C26FAE40836FB08A9
:0C1DB5008604E51024F9F8E6C0E008E61A
:0E1DC100C0E08A828B838CF01214911581157C
:0C1DCF0081C0E0C0A8C2AFA81008868246
:0E1DDB000886830886F012281B120F17E58277
:051DE9007003123387B6
:0C1DEE00120EFEC0E0C0A8C2AFA8100892
:0E1DFA00742726FAE40836FB0886048A828BDA
:0E1E0800838CF012582CFD0D8A828B838CF097
:0C1E1600ED1252B5A81008742826FAE45A
:0D1E22000836FB0886048A828B838CF01240
:0E1E2F00582CFD0D8A828B838CF0ED1252B57B
:0E1E3D00D0E053E080E5E042A8D0E0D0E053D2
:081E4B00E080E5E042A8D0E0D0
:0C1E5300C0E0C0A8C2AFA810087424268C
:0E1E5F00FAE40836FB0886048A828B838CF036
:0A1E6D00E5102404F812582CF6A822
:0C1E77001008742526FEE40836FF0886DB
:0C1E8300058E828F838DF012582CFEE536
:0C1E8F00102404F8C3E69E40030220204B
:0A1E9B00A81008E5102405F97426CC
:0C1EA50026F7E4083609F70809E6F7E51F
:0C1EB100102405F886820886830886F05D
:0C1EBD0012582CFDE510240BF8A60508B7
:0A1EC9007600A81008E5102408F9BF
:0E1ED300740626F7E4083609F70809E6F7E575
:0C1EE100102408F886820886830886F02A
:0B1EED0012582CFFA312582CFDA3126A
:0C1EF800582CFEC002C003C004E51024FA
:0C1F04000BF8E6C0E008E6C0E0E51024A1
:0E1F1000FBF8E6C0E008E6C0E008E6C0E08F9F
:0E1F1E00828D838EF01256BFE58124FBF58183
:0D1F2C00D004D003D0028A828B838CF01287
:0E1F3900582CFD0D8A828B838CF0ED1252B570
:0C1F4700E5102408F886820886830886CE
:0C1F5300F012582CFAA312582CFBA31219
:0C1F5F00582CFCE5102405F8868208864A
:0D1F6B00830886F012582C2AFAE43BFBE5AF
:0C1F7800102408F886820886830886F092
:0C1F8400EA1252B5A3EB1252B5A3EC1206
:0C1F900052B5A81008740326FDE40836C2
:0E1F9C00FE0886078D828E838FF012582CFD72
:0E1FAA00A312582CFEA312582CFFC3EA9DEB85
:0E1FB8009EEC64808FF063F08095F04034A8BA
:0B1FC600100886820886830886F0124F
:0A1FD100582CFAA312582CFBA3129F
:0C1FDB00582CFCE5102408F886820886CB
:0E1FE700830886F0EA1252B5A3EB1252B5A39E
:041FF500EC1252B5E3
:0C1FF9007A01A81008742826FBE40836C2
:0E200500FC0886058B828C838DF012582CFE11
:0D2013000E8B828C838DF0EE1252B5800290
:022020007AFD47
:0C202200D0E053E080E5E042A8D0E0A848
:0C202E00100886820886830886F0C00235
:0E203A0012281BE582D0026010C002120F17A0
:0B204800E582D002700C123387800785
:07205300C002120F17D002BA
:08205A008A82851081D010225A
:0A206200C010858110C082C083C049
:0C206C00F0E581240CF581A81008742414
:0E20780026FDE40836FE0886078D828E838FD3
:0B208600F0E5102404F812582CF6A816
:0C2091001008742526FBE40836FC0886C5
:0C209D00028B828C838AF012582CFBE529
:0C20A900102404F8C3E69B400302228BC5
:0A20B500A81008E5102405F97426B0
:0C20BF0026F7E4083609F70809E6F7E503
:0C20CB00102405F886820886830886F041
:0C20D70012582CFAE510240BF8A60208A1
:0A20E3007600A81008E5102408F9A3
:0E20ED00740626F7E4083609F70809E6F7E559
:0C20FB00102408F886820886830886F00E
:0B21070012582CFCA312582CFAA31253
:0C211200582CFBC005C006C007E51024D7
:0C211E000BF8E6C0E008E6C0E0E5102485
:0E212A00FBF8E6C0E008E6C0E008E6C0E08C86
:0E213800828A838BF01256BFE58124FBF5816D
:0D214600D007D006D0058D828E838FF01259
:0E215300582CFA0A8D828E838FF0EA1252B554
:0C216100E5102408F886820886830886B2
:0C216D00F012582CFAA312582CFBA312FD
:0C217900582CFCE5102405F8868208862E
:0D218500830886F012582C2AFAE43BFBE593
:0C219200102408F886820886830886F076
:0C219E00EA1252B5A3EB1252B5A3EC12EA
:0C21AA0052B5A81008740326FDE40836A6
:0E21B600FE0886078D828E838FF012582CFD56
:0E21C400A312582CFEA312582CFFC3EA9DEB69
:0E21D2009EEC64808FF063F08095F04034A89E
:0B21E000100886820886830886F01233
:0A21EB00582CFAA312582CFBA31283
:0C21F500582CFCE5102408F886820886AF
:0E220100830886F0EA1252B5A3EB1252B5A381
:04220F00EC1252B5C6
:0C221300A81008742826FAE40836FB081E
:0E221F0086048A828B838CF012582CFDBDFF42
:0A222D0052E51024FAF8E67055A8F7
:0C2237001008741826FAE40836FB08862C
:0D224300048A828B838CF012582C603CA81A
:0A2250001008E5102408F9741826A0
:0C225A00F7E4083609F70809E6F7E5107C
:0E2266002408F886820886830886F0121593F5
:07227400AE82BE00028010E3
:05227B007582018012D4
:0B2280000D8A828B838CF0ED1252B5AA
:07228B00E51024FAF8868239
:06229200851081D010222E
:0A229800C010858110C082C083C011
:0E22A200F0E581240BF581120EFEC0E0C0A80D
:0C22B000C2AFA81008742726FDE4083611
:0E22BC00FE0886078D828E838FF012582CFA52
:0C22CA000A8D828E838FF0EA1252B5A8B4
:0C22D6001008742826FAE40836FB08867D
:0E22E200048A828B838CF012582CFD0D8A82A8
:0E22F0008B838CF0ED1252B5D0E053E080E508
:0C22FE00E042A8D0E0A810088682088604
:0E230A00830886F012294EE58270030223CF6D
:0B231800E51024F9F8E6084670030207
:0223230023CFC6
:0C232500A81008741826FAE40836FB081B
:0C2331008604E51024F9F8E6C0E008E698
:0E233D00C0E08A828B838CF0121491158115FA
:0C234B0081C0E0C0A8C2AFA810088682C4
:0E2357000886830886F012281B120F17E582F5
:05236500700312338734
:0C236A00120EFEC0E0C0A8C2AFA8100810
:0E237600742726FAE40836FB0886048A828B58
:0E238400838CF012582CFD0D8A828B838CF016
:0C239200ED1252B5A81008742826FAE4D9
:0D239E000836FB0886048A828B838CF012BF
:0E23AB00582CFD0D8A828B838CF0ED1252B5FA
:0E23B900D0E053E080E5E042A8D0E0D0E05351
:0823C700E080E5E042A8D0E04F
:0C23CF00C0E0C0A8C2AFA810087424260B
:0E23DB00FAE40836FB0886048A828B838CF0B5
:0A23E900E510240BF812582CF6E55D
:0A23F30010240BF8E6700302256DBC
:0A23FD00A81008E5102404F9740983
:0C24070026F7E4083609F70809E6F7E5B7
:0C241300102404F886820886830886F0F6
:0B241F00E5102407F912582CF7A31257
:0B242A00582C09F7A312582C09F7A842
:0C2435001008742626FDE40836FE088618
:0C244100078D828E838FF0E510240AF8CE
:0A244D0012582CF6E5102407F8E5FC
:0C24570010240AF9E726F6E40836F6E542
:0C246300102404F886820886830886F0A6
:0C246F00E5102407F9E71252B5A309E7B5
:0A247B001252B5A309E71252B5A8EA
:0C2485001008740326FDE40836FE0886EB
:0D249100078D828E838FF012582CFDA31250
:09249E00582CFEA312582CFFE596
:0C24A700102407F8C3E69D08E69E08E636
:0C24B30064808FF063F08095F04034A846
:0B24BF00100886820886830886F01251
:0A24CA00582CFEA312582CFFA31299
:0C24D400582CFDE5102404F886820886D0
:0E24E000830886F0EE1252B5A3EF1252B5A398
:0424EE00ED1252B5E4
:0C24F200E510240BF8E6148A828B838C22
:0C24FE00F01252B5E510240AF886027BAB
:0C250A0000E5102404F88682088683088F
:0D25160086F012582CFCA312582CFDA312C5
:0E252300582CFEC002C003C004C005C006E56F
:0C2531001024FBF886820886830886F0E0
:0C253D001256BFE58124FBF581A81008B0
:0E254900742726FAE40836FB0886048A828B83
:0E255700838CF012582CFD0D8A828B838CF041
:08256500ED1252B57A0180026B
:02256D007A00F2
:0C256F00D0E053E080E5E042A8D0E0A8F6
:0C257B00100886820886830886F0C002E3
:0E25870012281BE582D0026010C002120F174E
:0B259500E582D002700C123387800733
:0725A000C002120F17D00268
:0825A7008A82851081D0102208
:0A25AF00C010858110C082C083C0F7
:0C25B900F0E5812408F581A810087424C6
:0E25C50026FDE40836FE0886078D828E838F81
:0B25D300F0E5102404F812582CF6E587
:0A25DE00102404F8E670030227B58C
:0A25E800C005C006C007A81008E5F2
:0C25F200102405F9740926F7E4083609E6
:0C25FE00F70809E6F7E5102405F88682CE
:0E260A000886830886F012582CFDA312582C67
:0C261800FEA312582CFFA8100874262600
:0E262400FAE40836FB0886048A828B838CF069
:0A263200E5102408F812582CF6E514
:0B263C00102408F8E62DFDE43EFEE54A
:0C264700102405F886820886830886F0BF
:0C265300ED1252B5A3EE1252B5A3EF1227
:0C265F0052B5A81008740326FAE40836EF
:0E266B00FB0886048A828B838CF012582CFAAE
:0E267900A312582CFBA312582CFCC3ED9AEEB2
:0E2687009BEF64808CF063F08095F0D007D05C
:0C26950006D0054034A810088682088694
:0E26A100830886F012582CFAA312582CFBA3C3
:0C26AF0012582CFCE5102405F886820867
:0E26BB0086830886F0EA1252B5A3EB1252B5E0
:0526C900A3EC1252B564
:0C26CE00E5102404F8E6148D828E838F42
:0C26DA00F01252B5E5102408F886027BCF
:0C26E60000E5102405F8868208868308B1
:0D26F20086F012582CFCA312582CFDA312E8
:0E26FF00582CFEC002C003C004C005C006E592
:0C270D001024FBF886820886830886F002
:0C2719001256BFE58124FBF581A81008D2
:0E272500742726FAE40836FB0886048A828BA5
:0C273300838CF012582CFDBDFF68E510EF
:0E273F0024F8F886020886030886048A828B36
:0C274D00838CF012582C705BA8100874EC
:0E2759000C26FDE40836FE0886078D828E836E
:0C2767008FF012582C6042A81008740C6F
:0E27730026FDE40836FE0886078D828E838FD1
:0E278100F0C002C003C004121593AE82D00453
:09278F00D003D002BE0002801844
:0D2798008A828B838CF074011252B5800B85
:0B27A5000D8A828B838CF0ED1252B580
:0527B0007582018003A9
:0327B5007582002A
:0627B800851081D0102203
:0E27BE00AA82AB83ACF0C0E0C0A8C2AF742406
:0E27CC002AFAE43BFB8A828B838CF012582C95
:0E27DA00FAD0E053E080E5E042A8D0E08A8229
:0127E80022CE
:0E27E900AA82AB83ACF012582CFDA312582C20
:0E27F700FEA312582CFF8D828E838FF0C0023D
:0E280500C003C004123995D004D003D0028A5B
:08281300828B838CF0023995E1
:0A281B00C010858110C082C083C088
:0C282500F00581E5102404F87600C0E006
:0C283100C0A8C2AFA81008742826FEE45E
:0D283D000836FF0886058E828F838DF0120D
:0E284A00582CFA1A8E828F838DF0EA1252B546
:0E285800C3747F8AF063F08095F050498E8241
:0C2866008F838DF074FF1252B5A810088B
:0E287200741826FAE40836FB0886048A828B66
:0C288000838CF012582C6025A8100874FE
:0E288C001826FAE40836FB0886048A828B833D
:0C289A008CF0121593AA82BA000280078D
:0728A600E5102404F876019F
:0E28AD00D0E053E080E5E042A8D0E0C0E0C0FB
:0C28BB00A8C2AFA81008742726FAE40891
:0E28C70036FB0886048A828B838CF012582C14
:0E28D500FD1D8A828B838CF0ED1252B5C37408
:0E28E3007F8DF063F08095F050498A828B83E0
:0C28F1008CF074FF1252B5A81008740C93
:0E28FD0026FAE40836FB0886048A828B838C58
:0C290B00F012582C6025A81008740C264F
:0E291700FAE40836FB0886048A828B838CF073
:0A292500121593AA82BA000280077F
:07292F00E5102404F8760115
:0C293600D0E053E080E5E042A8D0E0E5EE
:0A294200102404F88682851081D06D
:02294C00102257
:0E294E00AA82AB83ACF0C0E0C0A8C2AF742474
:0E295C002AFAE43BFB8A828B838CF012582C03
:06296A00FAE4BA000104CA
:0E297000FAD0E053E080E5E042A8D0E08A8291
:01297E002236
:0E297F00AA82AB83ACF0C0E0C0A8C2AF742443
:0E298D002AFDE43BFE8C078D828E838FF012B4
:0E299B00582CFD74252AFAE43BFB8A828B83BC
:0E29A9008CF012582CFAEDB502047401800176
:0129B700E43B
:0E29B800FDD0E053E080E5E042A8D0E08D8243
:0129C60022EE
:0A29C700C010858110C082C083C0DB
:0C29D100F0058105810581A81008740143
:0C29DD0026FDE40836FE088607A8100856
:0C29E900E5102404F9740426F7E4083615
:0D29F50009F70809E6F78D828E838FF0E563
:0C2A0200102404F8E61252B5A308E612F6
:092A0E0052B5A308E61252B5E529
:0C2A1700102404F886820886830886F0EC
:0C2A230074FF1252B5A374FF1252B5E507
:0C2A2F00102404F8740226FBE40836FCB6
:0C2A3B000886058B828C838DF0E510244A
:0E2A470004F8E61252B5A308E61252B5A30831
:0C2A5500E61252B5E5102404F8740526C2
:0E2A6100FBE40836FC0886058B828C838DF022
:0C2A6F00E5102404F8E61252B5A308E6B6
:0A2A7B001252B5A308E61252B5A8E6
:0C2A8500100886820886830886F0E412A0
:062A910052B5851081D052
:022A970010220B
:0E2A9900AA82AB83ACF0740B2AFAE43BFB8AF2
:0E2AA700828B838CF0E41252B5A3E41252B578
:052AB500A3E40252B58C
:0A2ABA00C010858110C082C083C0E7
:0B2AC400F0E581240CF581A81008E566
:0C2ACF00102407F9740126F7E40836090A
:0C2ADB00F70809E6F7E5102407F88682EA
:0E2AE7000886830886F012582CFAA312582C89
:0C2AF500FBA312582CFCE5102404F8A6EA
:0C2B01000208A60308A604E51024FBF857
:0C2B0D008602088603088604E510240AEE
:0D2B1900F874022AF6E43B08F608A604E56D
:0C2B2600102404F88605088606088607BF
:0E2B320074022DFDE43EFE8D828E838FF01224
:0A2B4000582CFDA312582CFEA3121E
:0C2B4A00582CFFE510240AF8868208864B
:0E2B5600830886F0ED1252B5A3EE1252B5A31D
:0C2B6400EF1252B5E510240AF874052A9F
:0C2B7000F6E43B08F608A604E510240774
:0E2B7C00F886820886830886F012582CFDA386
:0A2B8A0012582CFEA312582CFFE590
:0C2B940010240AF886820886830886F068
:0C2BA000ED1252B5A3EE1252B5A3EF12D5
:0C2BAC0052B5E5102404F88605088606E2
:0E2BB80008860774022DFDE43EFE8D828E839A
:0D2BC6008FF012582CFDA312582CFEA31204
:0E2BD300582CFF74052DFDE43EFE8D828E838E
:0E2BE1008FF0EA1252B5A3EB1252B5A3EC121C
:0C2BEF0052B5E5102404F886050886069F
:0E2BFB0008860774022DFDE43EFE8D828E8357
:0E2C09008FF0EA1252B5A3EB1252B5A3EC12F3
:0C2C170052B5E5102407F8868208868379
:0E2C23000886F0EA1252B5A3EB1252B5A3ECEC
:0E2C31001252B5740B2AFAE43BFB8A828B83A5
:0C2C3F008CF0A81008E61252B5A308E6BD
:0A2C4B001252B5A308E61252B5A814
:0B2C5500100886820886830886F012B3
:0C2C6000582CFA0AA81008868208868307
:0B2C6C000886F0EA1252B5851081D0F6
:022C7700102229
:0A2C7900C010858110C082C083C026
:0C2C8300F0E5812409F581E51024FBF840
:0E2C8F0086050886060886078D828E838FF0E4
:0E2C9D0012582CFAA312582CFBBAFF05BBFFED
:032CAB00028003A1
:032CAE00022D579D
:0A2CB100A81008E5102404F97404CB
:0B2CBB0026F7E4083609F70809E6F7E1
:0C2CC600C005C006C007E5102404F88615
:0E2CD2000408860508860674022CFCE43DFD0D
:0E2CE0008C828D838EF012582CFCA312582C7F
:0D2CEE00FDA312582CFE8C828D838EF012F7
:0E2CFB00582CFCA312582CFDC3EC9AED9BD074
:0A2D090007D006D0054003022DFAA2
:0C2D1300C005C006C007E5102404F886C7
:0E2D1F000408860508860674022CFCE43DFDBF
:0E2D2D008C828D838EF012582CFCA312582C31
:0C2D3B00FDA312582CFEE5102404F8A69D
:0E2D47000408A60508A606D007D006D005028F
:022D55002CC68A
:0A2D5700A81008E5102404F9740424
:0B2D610026F7E4083609F70809E6F73A
:0C2D6C00C005C006C007E5102404F8866E
:0E2D78000408860508860674022CFCE43DFD66
:0E2D86008C828D838EF012582CFCA312582CD8
:0D2D9400FDA312582CFE8C828D838EF01250
:0E2DA100582CFCA312582CFDC3EA9CEB9DD0CD
:0E2DAF0007D006D0054044C005C006C007E5A9
:0C2DBD00102404F8860408860508860629
:0E2DC90074022CFCE43DFD8C828D838EF01292
:0A2DD700582CFCA312582CFDA31287
:0C2DE100582CFEE5102404F8A60408A6F7
:0D2DED000508A606D007D006D005022D6C03
:0C2DFA00E5102407F874022DF6E43E08F2
:0C2E0600F608A607E5102404F886020870
:0E2E1200860308860474022AFAE43BFB8A82D7
:0E2E20008B838CF012582CFAA312582CFBA3B3
:0C2E2E0012582CFCE5102407F8868208DE
:0E2E3A0086830886F0EA1252B5A3EB1252B559
:0C2E4800A3EC1252B5E5102407F88682B6
:0E2E54000886830886F012582CFAA312582C18
:0E2E6200FBA312582CFC74052AFAE43BFB8AF1
:0E2E7000828B838CF0ED1252B5A3EE1252B598
:0E2E7E00A3EF1252B574052DFAE43EFB8F044B
:0C2E8C008A828B838CF0E5102404F8E6A9
:0D2E98001252B5A308E61252B5A308E612C7
:0C2EA50052B5E5102404F88602088603EC
:0E2EB10008860474022AFAE43BFB8A828B83B3
:0E2EBF008CF0ED1252B5A3EE1252B5A3EF1235
:0E2ECD0052B5740B2DFDE43EFE8D828E838F78
:0C2EDB00F0A81008E61252B5A308E61299
:092EE70052B5A308E61252B5A889
:0B2EF000100886820886830886F01216
:0C2EFB00582CFA0AA8100886820886836A
:0B2F07000886F0EA1252B5851081D058
:022F120010228B
:0A2F1400C010858110C082C083C088
:0C2F1E00F0E581240CF581A81008740275
:0E2F2A0026FDE40836FE0886078D828E838F12
:0C2F3800F012582CFAA312582CFBA31224
:0C2F4400582CFCE510240AF874052AF64D
:0B2F5000E43B08F608A604A81008E502
:0C2F5B00102407F9740526F7E408360975
:0C2F6700F70809E6F7E5102407F8868259
:0E2F73000886830886F012582CFAA312582CF8
:0C2F8100FBA312582CFCE510240AF88673
:0E2F8D00820886830886F0EA1252B5A3EB1282
:082F9B0052B5A3EC1252B5E59A
:0C2FA300102407F886820886830886F058
:0B2FAF0012582CFAA312582CFBA3129E
:0E2FBA00582CFC74022AFAE43BFB8D828E83B5
:0D2FC8008FF012582CFDA312582CFEA312FE
:0E2FD500582CFF8A828B838CF0ED1252B5A32C
:0A2FE300EE1252B5A3EF1252B5A88A
:0C2FED001008740B26FAE40836FB088676
:0D2FF900048A828B838CF012582CFDA312E9
:09300600582CFEA312582CFFE522
:0C300F00102404F8A60508A60608A60771
:0A301B00E5102404F8E510240AF97A
:0E302500740126F7E4083609F70809E6F7E516
:0C30330010240AF886820886830886F0C4
:0B303F0012582CFDA312582CFEA31207
:0C304A00582CFFA81008E6B5050C08E69D
:0A305600B5060708E6B50702800280
:023060008036B8
:0C306200E5102407F886820886830886A3
:0C306E00F012582CFDA312582CFEA312E7
:0C307A00582CFFE510240AF88682088616
:0E308600830886F0ED1252B5A3EE1252B5A3E8
:04309400EF1252B530
:0D3098008A828B838CF0E41252B5A3E412FF
:0830A50052B5A3E41252B5E597
:0C30AD00102404F886820886830886F050
:0C30B90012582CFA1AE5102404F8868244
:0C30C5000886830886F0EA1252B58510D8
:0430D10081D0102278
:0A30D500C010858110C082C083C0C6
:0B30DF00F0058105810581A81008E5BF
:0C30EA00102404F9E6F70809E6F70809CD
:0B30F600E6F7A8100806B60002080666
:0C310100E51024FCF886050886067F0017
:0C310D007A008D03A810088682088683D3
:0E3119000886F0EB1252B5A31818A68208A67D
:0C312700838E058F068A078D03A8100810
:0E31330086820886830886F0EB1252B5A31838
:0C31410018A68208A683A8100886820841
:0E314D0086830886F074AA1252B5A31818A63D
:0C315B008208A683A810088682088683DC
:0E3167000886F074801252B5A31818A68208CC
:0C317500A683E51024F9F88605088606FC
:0C3181000886077A008D03A810088682DB
:0E318D000886830886F0EB1252B5A31818A628
:0E319B008208A6838E058F068A077A008D03B0
:0C31A900A8100886820886830886F0EBD8
:0E31B5001252B5A31818A68208A6838E058FA5
:0C31C300068A07A8100886820886830888
:0E31CF0086F0ED1252B5A31818A68208A6834A
:0C31DD00A8100886820886830886F0741B
:0D31E900021252B5A31818A68208A683A8EA
:0C31F600100886820886830886F07403A7
:0C3202001252B5A31818A68208A683A8D3
:0C320E00100886820886830886F074048D
:0C321A001252B5A31818A68208A683A8BB
:0C322600100886820886830886F0740574
:0C3232001252B5A31818A68208A683A8A3
:0C323E00100886820886830886F074065B
:0C324A001252B5A31818A68208A683A88B
:0C325600100886820886830886F0740742
:0C3262001252B5A31818A68208A683A873
:0C326E00100886820886830886F0E412AF
:0C327A0052B5A31818A68208A683A8105D
:0E3286000886820886830886F074011252B50D
:0C329400A31818A68208A683A8100886BC
:0E32A000820886830886F0E41252B5A318183F
:0C32AE00A68208A683A810088682088665
:0E32BA00830886F074BB1252B5A31818A682C2
:0C32C80008A683A81008868208868308E8
:0B32D40086F074011252B5A81008E546
:0C32DF00102404F9E6C397FA08E60997EA
:0C32EB00E5102404F8868208868308861B
:0C32F700F0EA1252B5E5102404F88682BB
:0A3303000886830886F0851081D04B
:02330D0010228C
:0E330F001235BB90F3CCE0FAA3E0FBA3E0FC88
:0C331D008A828B838CF012582CF50DA3D3
:0633290012582CF50E7590
:06332F000F21850D8285CF
:053335000E83E0F50825
:07333A00050DE4B50D0205CD
:013341000E7D
:05334200050FA80F8536
:093347000D82850E83E0FAF615F3
:0633500008E50870E585A8
:0A3356000F81D09FD010D0D0D0011D
:0E336000D000D007D006D005D004D003D00294
:0E336E00D0F0D083D082D0E020E705C2AF02BD
:02337C0033809C
:02337E00D2AFCC
:06338000D0E0758201227D
:013386002224
:0E338700C0E0C0A8C2AFC082C083C0F0C002C8
:0E339500C003C004C005C006C007C000C001D0
:0C33A300C0D075D000C010C09F90F3CCCB
:0E33AF00E0FAA3E0FBA3E0FC8A828B838CF0A3
:0733BD0012582CF50DA312BC
:0533C400582CF50E7508
:0933C9000F22E58124DFF50885DF
:0633D2000D82850E83F060
:0833D800E5086019050DE4B5DC
:0433E0000D02050EC7
:0733E400850D82850E83A810
:0733EB000FE6FAF0050F15D3
:0333F2000880E36D
:0E33F50012133190F3CCE0FAA3E0FBA3E0FC4E
:0C3403008A828B838CF012582CF50DA3EC
:06340F0012582CF50E75A9
:063415000F21850D8285E8
:05341B000E83E0F5083E
:07342000050DE4B50D0205E6
:013427000E96
:05342800050FA80F854F
:09342D000D82850E83E0FAF6150C
:0634360008E50870E585C1
:0A343C000F81D09FD010D0D0D00136
:0E344600D000D007D006D005D004D003D002AD
:0E345400D0F0D083D082D0E020E705C2AF02D6
:023462003466CE
:02346400D2AFE5
:02346600D0E0B4
:0E346800C2AFC0E0C0A8C2AFC082C083C0F037
:0E347600C002C003C004C005C006C007C000ED
:0C348400C001C0D075D000C010C09F90E7
:0E349000F3CCE0FAA3E0FBA3E0FC8A828B837E
:09349E008CF012582CF50DA3125C
:0534A700582CF50E7524
:0934AC000F22E58124DFF50885FB
:0634B5000D82850E83F07C
:0834BB00E5086019050DE4B5F8
:0434C3000D02050EE3
:0734C700850D82850E83A82C
:0734CE000FE6FAF0050F15EF
:0334D5000880E389
:0734D800859509750A0075D6
:0A34DF000B00750C00AA967B007C20
:0B34E900008C058B048A03E42509F524
:0534F40009EB350AF5AB
:0534F9000AEC350BF5A3
:0534FE000BED350CF59B
:0C3503000CAA977B008B058A04E4FB25D2
:05350F0009F509EB3590
:053514000AF50AEC3588
:053519000BF50BED3580
:06351E000CF50C74A3255E
:0535240009F509E43582
:053529000AF50AE4357B
:05352E000BF50BE43574
:043533000CF50C8502
:063537000B97850A968542
:06353D00099512113B127A
:0E354300133153C07F90F3CCE0FAA3E0FBA35A
:0C355100E0FC8A828B838CF012582CF571
:06355D000DA312582CF52D
:053563000E750F21852B
:073568000D82850E83E0F5E2
:01356F000853
:07357000050DE4B50D020595
:013577000E45
:05357800050FA80F85FE
:09357D000D82850E83E0FAF615BB
:0635860008E50870E58570
:0A358C000F81D09FD010D0D0D001E5
:0E359600D000D007D006D005D004D003D0025C
:0E35A400D0F0D083D082D0E020E705C2AF0285
:0235B20035B62C
:0235B400D2AF94
:0535B600D0E0D2AF32AD
:0A35BB0075C6B8859509750A0075FC
:0A35C5000B00750C00AA967B007C39
:0B35CF00008C058B048A03E42509F53D
:0535DA0009EB350AF5C4
:0535DF000AEC350BF5BC
:0535E4000BED350CF5B4
:0C35E9000CAA977B008B058A04E4FB25EC
:0535F50009F509EB35AA
:0535FA000AF50AEC35A2
:0535FF000BF50BED359A
:063604000CF50C74A32577
:05360A0009F509E4359B
:05360F000AF50AE43594
:053614000BF50BE4358D
:043619000CF50C851B
:06361D000B97850A96855B
:06362300099543A82022D6
:0500EB0090EE32E4F08C
:0A362900C010858110C082C083E547
:0C36330081241AF581E5102411F8E4F65A
:0E363F0008F608F6120EFE90EE32E0FF704A1A
:08364D0090EE28747CF0A374D8
:0C365500E0F0A3E4F090EE2BF0A3F09066
:0E366100EE3074ACF0A3740DF090EE2DE4F09A
:0D366F00A3F0A3F090E07F75F00074AC12A2
:09367C0052B5A3740D1252B59071
:07368500E07C742DF0A3743A
:0B368C00EEF0A3E4F090EE327401F0C9
:0C369700A81008E608466014906E2EE4AF
:0C36A30093FF740193FCA81008EF26F6BA
:0436AF00EC0836F6F7
:0B36B300A81008E60846700302397FEB
:0C36BE00A81008C3E694AC08E6940D4088
:0436CA000302397F3F
:0936CE00E5102406F876280876C0
:0C36D700EE08760090EE28E0FAA3E0FB7D
:0C36E300A3E0FFA810080808A60208A633
:0436EF000308A6071F
:0C36F300A810080808740326FCE4083640
:0E36FF00FD0886068C828D838EF012582CFCFE
:0C370D00A312582CFDA81008C3EC96ED88
:0C37190008965047A8100808088682088F
:0E37250086830886F012582CFCA312582CFB49
:0C373300A312582CFAEC4B4A6027A81097
:0C373F00080808E5102406F9E6F7080960
:0C374B00E6F70809E6F78B058A06A810CF
:0D375700080808A60408A60508A606808F2D
:0A376400A810080808E6B42D0D08AF
:0C376E00E6B4EE0808E6B4000302397F60
:0C377A00E5102406F88682088683088685
:0C378600F012582CFAA312582CFBA312CE
:07379200582CFC906E2EE59F
:0C379900102414F8E493F674019308F671
:0C37A500E5102414F8E62AFA08E63BFBC5
:0C37B100E5102411F8A60208A60308A6E3
:0C37BD0004A8100808088682088683080B
:0D37C90086F012582CFFA312582CFCA312FE
:0C37D600582CFDE5102406F886820886B9
:0E37E200830886F0EF1252B5A3EC1252B5A385
:0C37F000ED1252B5A8100808087403265A
:0E37FC00FCE40836FD0886068C828D838EF074
:0B380A00E510240EF812582CF6A31253
:0A381500582C08F6E510240EF8A95F
:0C381F001009E6C397C0E008E60997C056
:0C382B00E0E5102417F8D0E0F618D0E01B
:0C383700F6E5102414F8860308E6CB2503
:0C384300E0CB33FAE5102416F8C3EB9636
:08384F00EA0896400302397FEC
:0A385700A810080808A91009E726C8
:0C386100FA09E70836FB088607E510248A
:0C386D0009F8A60208A60308A607E5104B
:0C3879002409F8E5102418F9740326F760
:0C388500E4083609F70809E6F7E510240E
:0C3891000EF8A91009E6C397FA08E60932
:0C389D0097FBE5102418F886820886834B
:0E38A9000886F0EA1252B5A3EB1252B58C82DB
:0C38B7008D838EF0A81008E61252B5A315
:0C38C30008E61252B5E510240CF8A6022D
:0938CF0008A6037C287DEE7E00B2
:0C38D8008C828D838EF0E5102418F8120D
:0B38E400582CF6A312582C08F6A31273
:0C38EF00582C08F6C004C005C006E51007
:0E38FB002418F8740326FCE40836FD0886063F
:0E3909008C828D838EF012582CFCA312582C49
:0C391700FDE510240CF8C3EC96ED0896BA
:0C392300E433D006D005D0046015E51098
:0E392F002418F886020886030886078A048B8F
:05393D00058F068096D5
:0C394200E5102409F886820886830886B8
:0C394E00F0E5102418F9E71252B5A309A7
:0E395A00E71252B5A309E71252B58C828D8395
:0C3968008EF0E5102409F8E61252B5A319
:0B39740008E61252B5A308E61252B597
:0C397F00120F17E5102411F8868208864C
:0A398B00830886F0851081D0102219
:0A399500C010E581F5102408F5814B
:0E399F00AA82AB83ACF0EA4B4C7003023AA450
:0E39AD00906E2EE493FD740193FEEAC39DFA22
:0C39BB00EB9EFBA81008A60208A603085B
:0E39C700A604C002C003C004120EFED004D03D
:0E39D50003D00274032AFAE43BFB8A828B8340
:0C39E3008CF012582CFAA312582CFBE5B3
:0A39EF00102404F8A60208A6037CC9
:0539F900287DEE7E00B8
:0C39FE008C828D838EF0E5102406F812F8
:0B3A0A00582CF6A312582C08F6A3124B
:0C3A1500582C08F6C004C005C006E510DF
:0E3A21002406F8740326FCE40836FD08860629
:0E3A2F008C828D838EF012582CFCA312582C22
:0C3A3D00FDE5102404F8C3EC96ED08969B
:0C3A4900E433D006D005D0046015E51071
:0E3A55002406F886020886030886078A048B7A
:053A6300058F068096AE
:0C3A6800A8100886820886830886F0E516
:0C3A7400102406F9E71252B5A309E7126E
:0E3A800052B5A309E71252B58C828D838EF0E9
:0B3A8E00A81008E61252B5A308E612CB
:093A990052B5A308E61252B51261
:023AA2000F17FC
:063AA400851081D0102204
:026E2E0005005D
:0E3AAA0043C68053C6BE43FD30C291D292D2B5
:0B3AB8009343FE0E123EF675820122C1
:083AC300E582FA6003C29322C0
:033ACB00D2932271
:083ACE00E582FA6003D29122A7
:033AD600C2912278
:083AD900E582FA6003D292229B
:033AE100C292226C
:0A3AE400C010858110AA82AB83ACEC
:0E3AEE00F0C2AF8A828B83E8C0E0EAC0E0E558
:0C3AFC00C7C0E0E51024F9F8E6FA08E67F
:0E3B0800F58408E64480F58508E61813E613F8
:083B1600030354304401F5C71C
:0E3B1E00759201E493A3759200F0A3DAF3D040
:0E3B2C00E0F5C7D0E0FAD0E0F8D2AF8A828B85
:0B3B3A00838CF012582CF584D0102270
:083B4500AA82AB837C007D0025
:0E3B4D00C3EC9AED9B5008000CBC00F40D80F8
:013B5B00F178
:013B5C002246
:083B5D00AA82AB837C007D000D
:0E3B6500C3EC9AED9B501D9003E8C002C00314
:0E3B7300C004C005123B45D005D004D003D0DD
:083B8100020CBC00DF0D80DC2A
:013B89002219
:0A3B8A00C010E581F5102404F58158
:0E3B9400AA82AB83ACBD8C057C00AEBC7F006A
:0E3BA200EE2CFCEF3DFD90F3D9E0FEA3E0FF1A
:0E3BB00090F3D9EC2EF0ED3FA3F08595BC907C
:0C3BBE00F3D9E0FCA3E0FDA81008A60469
:0E3BCA0008A6050876000876007C007D00C085
:0C3BD80002C003C004C005A810088682CB
:0E3BE4000886830886F008E61258C9ACF0FD8A
:0E3BF200E58124FCF5818C028D038A828B8391
:063C0000851081D01022A6
:026EA400FACB27
:020000040001F9
:0E800000AA82AB83ACF012582CFDBD010280A9
:01800E002B46
:05800F00BD0202800328
:03801400BD032386
:0C801700740DC0E0E4C0E074DBC0E07455
:0C802300F3C0E0E4C0E08A828B838CF0A4
:0B802F001256BFE58124FBF581802183
:0C803A00740DC0E0E4C0E074E8C0E07425
:0C804600F3C0E0E4C0E08A828B838CF081
:098052001256BFE58124FBF58103
:04805B007582012207
:0E805F00AA82AB83ACF012582CFDBD0102804A
:01806D0025ED
:05806E00BD02028003C9
:03807300BD031D2D
:0E807600740DC0E0E4C0E0C002C003C004907E
:0E808400F3DB75F0001256BFE58124FBF58199
:0180920022CB
:0E809300740DC0E0E4C0E0C002C003C0049061
:0E80A100F3E875F0001256BFE58124FBF5816F
:0180AF0022AE
:020000040000FA
:0D6EA60000000000000000000000000000DF
:0D6EB30000000000000000000000000000D2
:0A3C0600C010858110AA828AF00523
:053C1000F074018002C8
:023C150025E0A8
:0C3C1700D5F0FB540FFB6068EA2A24F58E
:0C3C2300FAE434F3FC8A828C83E0FDA3F9
:0C3C2F00E0FE4D700F8A828C83E51024AB
:083C3B00FCF8E6F0A308E6F036
:0C3C43008A828C83E0FAA3E0FCE51024E8
:0D3C4F00FCF8E6B5020708E6B504028002A5
:023C5C008029BD
:0C3C5E00E51024FBF8E66005438C0180B3
:013C6A000356
:033C6B00538CFE79
:0E3C6E00EBF4FA5289EB54F06005438C1080A1
:013C7C000344
:033C7D00438C086D
:073C8000D2BD758201800333
:033C870075820043
:033C8A00D0102235
:0A3C8D00C010858110AA828AF0059C
:053C9700F07401800241
:023C9C0025E021
:073C9E00D5F0FBFBBA0100A9
:093CA5004007EA24FB40027B0009
:0A3CAE00EB6062EA2A2405FAE43410
:0C3CB800F4FC8A828C83E0FDA3E0FE4D4A
:0C3CC400700F8A828C83E51024FCF8E667
:053CD000F0A308E6F07E
:0C3CD5008A828C83E0FAA3E0FCE5102456
:0D3CE100FCF8E6B5020708E6B50402800213
:023CEE00802331
:0C3CF000EBF4FA528DE51024FBF8E660BE
:063CFC0005438C02800369
:033D0200538CFDE2
:0E3D0500EA528AEB428D439A107582018003C8
:033D1300758200B6
:033D1600D01022A8
:0C3D1900C020C0E0C0F0C082C083C00227
:0E3D2500C003C004C005C006C007C000C00136
:0B3D3300C0D075D000C2AF7A017B0049
:033D3E00BB0800BF
:0C3D4100503AEA5589602FEB2B24F5F571
:0C3D4D0082E434F3F583E0FCA3E0FD4CBD
:0E3D59006017C002C003C004C0058C828D83B9
:0B3D670012008BD005D004D003D00266
:053D7200EAF4FC528997
:063D7700EA2AFA0B80C1EC
:0E3D7D00C2C5D2AFD0D0D001D000D007D00642
:0E3D8B00D005D004D003D002D083D082D0F077
:053D9900D0E0D0203253
:0C3D9E00C020C0E0C0F0C082C083C002A2
:0E3DAA00C003C004C005C006C007C000C001B1
:0B3DB800C0D075D000C2AF7A017B00C4
:033DC300BB04003E
:0C3DC600503AEA558A602FEB2B2405F5DB
:0C3DD20082E434F4F583E0FCA3E0FD4C37
:0E3DDE006017C002C003C004C0058C828D8334
:0B3DEC0012008BD005D004D003D002E1
:053DF700EAF4FC528A11
:063DFC00EA2AFA0B80C167
:0E3E0200C2EBD2AFD0D0D001D000D007D00696
:0E3E1000D005D004D003D002D083D082D0F0F1
:053E1E00D0E0D02032CD
:0E6EC0000000000000000000000000000000C4
:026ECE000000C2
:0E6ED0000000000000000000000000000000B4
:026EDE000000B2
:0E3E2300AA8275CB0075CC008ACDD2BB75CBC0
:053E3100BE75820022B5
:043E360075CB002226
:0E3E3A00AA8275EB0075EC008AEDD2BC75EB28
:053E4800BE758200229E
:043E4D0075EB0022EF
:083E5100C2AF75E400D2AF32EC
:0B3E5900C2AF53C3DF75C300D2AF320D
:0C3E6400C020C0E0C0F0C082C083C002DB
:0E3E7000C003C004C005C006C007C000C001EA
:0E3E7E00C0D075D000C2AF75D83875CB001219
:0E3E8C0047E8D2AFD0D0D001D000D007D0068A
:0E3E9A00D005D004D003D002D083D082D0F067
:053EA800D0E0D0203243
:0C3EAD00C020C0E0C0F0C082C083C00292
:0E3EB900C003C004C005C006C007C000C001A1
:0E3EC700C0D075D000C2AF75D80775EB0012E1
:0E3ED5005FACD2AFD0D0D001D000D007D00665
:0E3EE300D005D004D003D002D083D082D0F01E
:053EF100D0E0D02032FA
:0E3EF6007420C0E0E4C0E0E4C0E090EE33755C
:0E3F0400F0001256541581158115817A007B4C
:013F120000AE
:0E3F1300C3EA9404EB9400501E8A04EBCC2504
:0B3F2100E0CC33FDEC2453F582ED34BE
:0C3F2C00EEF583E4F0A3F00ABA00DC0B11
:023F380080D92E
:0A3F3A007A337BEE8BD38AD2D2B823
:013F4400225A
:073F4500C2AFC2C0D2AF32CF
:053F4C00AA82BAE000AA
:073F5100403DBAE2028008C6
:053F5800BAE302800342
:033F5D00BAE52D95
:0E3F600090DF53E0FBA3E08AE1900001C00374
:0E3F6E00123B45D00390DF53E0FCA3E0FD7E44
:0A3F7C0000EBB50405EEB5050122C7
:073F860075E1E675E1E6229A
:033F8D008AE122A4
:0C3F9000BADE1053E9FD75E1DF75E1FEBB
:073F9C00E5E920E10480F9D2
:023FA3008AE1B1
:013FA50022F9
:053FA600AA82BA0B0025
:073FAB004005EA24E5500483
:043FB2007582FF22F3
:0E3FB6007582FFC002123F4C7582E5123F4C2F
:0E3FC400D0028A037C00EB24F5FBEC34FFFCFA
:0E3FD200C002C003C004900005125468AD8206
:0E3FE000AE83158115818D038E0474652BFB55
:0E3FEE0074013CFC4304408C057E0090DF1003
:0E3FFC00EDF0A3EEF090DF11EBF0A3E4F07512
:0E400A0082E2123F4CD00275E1E675E1E68AD3
:02401800822202
:0B401A00E582FA249B50047582FF220F
:0E402500EA75F01FA4FBACF0C0027464C0E0AA
:0E403300E4C0E08B828C83125263AD82AE83B8
:0E40410015811581D0028D038E0474602BFB57
:0E404F0074A13CFC8C057E0090DF0AEDF0A30E
:0E405D00EEF090DF0BEBF0A3E4F090EE5BEAE8
:04406B00F08A822233
:0E406F0090EE5CE0FA20E73E90DF4F747FF0A9
:0D407D00E4A3F090DF0674D2F0E4A3F0900D
:0E408A00EE5C74804AF090DF17E0FAA3E0FBD2
:0A40980090DF1774F75AF0A3EBF065
:0840A200E5E930E7FB53BEFB2A
:0B40AA00E5BE30E6FB7582E2123F4CE1
:0A40B50075E1E675E1E6758201226F
:0D40BF007582FF123F4C7582E5123F4C9058
:0E40CC00DF17E0FAA3E0FB90DF1774084AF05C
:0C40DA00A3EBF090EE5CE4F07582012294
:0740E60075D68175820122ED
:0B40ED0090F415E0FA600475820122D7
:0E40F80090DF17E0FAA3E0FB90DF1774F75A91
:04410600F0A3EBF047
:0E410A0090DF17E0FAA3E05302107B00BA0129
:0641180005BB000280EC73
:08411E00E5E930E7FB53BEFBAD
:0E412600E5BE30E6FB90EE5CE4F090EE5FF05C
:0E41340090DF547401F0E4A3F090DF027402F7
:0E414200F0E4A3F090DF0374E2F0E4A3F09049
:0E415000DF047430F0E4A3F090DF05E4F0A388
:0E415E00F090DF0C7432F0E4A3F090DF0D74EB
:0E416C00F5F0E4A3F090DF60E0FAA3E08A0330
:0E417A007A0090DF61E0FCA3E0FD90EE5DECCA
:0E4188002AF0ED3BA3F0758212123FA675825D
:0E4196006412401A7582E7123F4C7582E612E1
:0E41A4003F4C75912053E9DF539BFC439A0179
:0E41B200C285C28590F4157401F07582012259
:0A41C000C0108581100581058105FE
:0E41CA0081AA82AB83ACF012582CFDBD01021D
:0241D800805A0B
:0641DA00BD02030242BA1F
:0641E000BD03030242745E
:0541E600BD040280038E
:0341EB000242ECA1
:0E41EE0074012AFDE43BFE8C07C002C003C032
:0E41FC000474082DFAE43EFB8F048A828B8344
:0E420A008CF012582C90DF4BF0A3E4F07409F6
:0E4218002DFDE43EFE8D828E838FF012582C19
:0E422600FD90DF4CF0A3E4F0D004D003D002F2
:0C423400A8100874012AF6E43B08F60804
:08424000A6047A437BDF7C0039
:03424800BC0800AF
:05424B0040030242ECFB
:0C425000A81008EC26FEE40836FF0886E3
:0E425C00058E828F838DF012582CFE8A828B85
:0A426A0083F0A3AA82AB830C80D47A
:0E42740074012AFDE43BFE8C07C002C003C0AB
:0E4282000474022DFAE43EFB8F048A828B83C3
:0E4290008CF012582C90DF4BF0A3E4F0740376
:0E429E002DFDE43EFE8D828E838FF012582C93
:0E42AC00FD90DF4CF0A3E4F0D004D003D0026C
:0542BA000ABA00010B2F
:0D42BF008A058B068C078D828E838FF0128E
:0E42CC00582CFD90DF4DF0A3E4F00ABA00017B
:0142DA000BD8
:0E42DB008A828B838CF012582CFA90DF4EF002
:0342E900A3E4F05B
:0642EC00851081D01022B4
:0C42F200AA8290EE5FE4F0BA0102803B6B
:0542FE00BA0202800A73
:05430300BA0302800B6B
:05430800BA057A8052A5
:06430D0090EE5F7401F068
:0E43130090DF02E0FAA3E0FB90DF0274104A94
:0D432100F0A3EBF090DF03E0FAA3E0FB90C7
:0B432E00DF0374EF5AF0A3EBF0807087
:0E43390090DF02E0FAA3E0FB90DF0274184A66
:0D434700F0A3EBF090DF03E0FAA3E0FB90A1
:0B435400DF0374104AF0A3EBF0804A76
:0E435F0090DF02E0FAA3E0FB90DF0274084A50
:0D436D00F0A3EBF090DF03E0FAA3E0FB907B
:0B437A00DF0374EF5AF0A3EBF0802487
:0E43850090DF02E0FAA3E0FB90DF0274E75A3B
:0D439300F0A3EBF090DF03E0FAA3E0FB9055
:0943A000DF0374EF5AF0A3EBF007
:0443A90075820122F6
:0E43AD00900080123B4590DF07E0FAA3E0EAA3
:0543BB0024D3F582226D
:0A43C000C0108581107A017582E2B9
:0E43CA00C002123F4C900010123B45900010B4
:0D43D800123B45900010123B459000101262
:0C43E5003B45D002A810181818B60002C2
:0243F100804DFD
:0C43F300A810181818B6015390DF62E003
:0C43FF00FBA3E0FCEB30E0357B017C0010
:05440B00BB0002803E31
:07441000EC24FE50027B00CA
:0E4417009000FAC002C003C004123B45D0045E
:0E442500D003D00290DF62E0FDA3E0FEED20A8
:06443300E0047B007A00AA
:034439000C80CF25
:04443C007A00800E74
:0E44400090DF62E0FBA3E0FCEB20E0027A00DC
:05444E008A82D010225B
:0B445300E582FA60067582E9023F4C2A
:06445E007582E8023F4CEC
:0A446400C010858110C082C083C023
:0C446E00F0E581240CF581E5102404F831
:0C447A007601A81008742226FEE4083623
:0E448600FF0886058E828F838DF012582CFE63
:09449400A312582CFFA81008E542
:0C449D0010240AF9742026F7E408360900
:0C44A900F70809E6F7E510240AF88682FF
:0E44B5000886830886F012582CFDA312582C9E
:0C44C300FAEEC39DFEEF9AFFE510240501
:0E44CF00F8A60608A60790EE5CE0FC30E606B4
:0644DD0075820002461A80
:0744E300EC20E70312406F1B
:0C44EA00E5102405F8C374809674800867
:0D44F60086F063F08095F0E433FC60030273
:0245030046016F
:0C450500C004A81008742C26FDE4083641
:0C451100FE088607E510240AF8868208E0
:0E451D0086830886F012582CFCA312582CFA44
:0C452B00EC2DFDEA3EFEE5102407F8A68A
:0D4537000508A60608A6077582E7C0041255
:0C4544003F4CD004E5102405F8860274FA
:0C455000022AF5D9D004E5102407F886F3
:09455C00020886030886057E00B2
:0C456500C0048E077C00E5102405F8C39C
:0E457100EF96EC64800886F063F08095F0E42D
:0E457F0033D00460138A828B838DF012582C87
:0A458D00F5D9A3AA82AB830E80CEFD
:0E45970075D90075D900C004E4C0E07582003B
:0E45A5001243C0AA821581D004EA7004F58288
:0245B300806521
:0E45B50053E9BF7582E3C004123F4CD0047A74
:0145C30000F7
:0E45C40090DF62E0FBA3E0FDEB20E4188A0329
:0445D2000ABB03001D
:0E45D600501090000AC002C004123B45D004F1
:0445E400D00280DCA5
:0D45E80090DF62E0FAA3E0FBEA20E409E5C1
:0845F500102404F87600800494
:0445FD00C285D2851C
:0C460100E5102404F8B6010AEC6007E59F
:06460D00102404F8760001
:07461300E5102404F8868283
:06461A00851081D0102282
:0A462000C010858110C082C083C065
:0C462A00F0058105810581A8100886823A
:0C4636000886830886F0126000A81008B7
:0E46420086820886830886F012582C600302D8
:0246500047DE43
:0E4652007408C0E074F8C0E074FFC0E07401AA
:0E466000C0E0E4C0E090EE6575F000123AE4B0
:0C466E00E58124FBF581A81008740126EA
:0A467A00FDE40836FE0886077A000A
:03468400BA080071
:0C46870050337407C39AA81008080808F4
:0C4693002DF6E43E08F608A607EA2465B0
:0A469F00F582E434EEF583E0FCE55B
:0C46A900102404F886820886830886F03E
:0746B500EC1252B50A80C8A7
:0C46BC00A8100886820886830886F07427
:0C46C800041252B5A81008740126FDE48D
:0E46D4000836FE0886077401C0E08D828E83D2
:0E46E2008FF0126054AD821581BD010280037D
:0346F00002479CE2
:0746F300906E30124B5EA82F
:0C46FA001008740126FDE40836FE088656
:0E470600078D028E038F048A828B838CF0E471
:0E4714001252B574012DFAE43EFB8F048A8226
:0E4722008B838CF0E41252B574022DFAE43E43
:0E473000FB8F048A828B838CF0E41252B574E6
:0E473E00032DFAE43EFB8F048A828B838CF0FD
:0E474C00E41252B574042DFAE43EFB8F048A89
:0E475A00828B838CF0E41252B574052DFAE4C4
:0E4768003EFB8F048A828B838CF0E41252B5E4
:0E47760074062DFAE43EFB8F048A828B838C3E
:0E478400F074441252B574072DFDE43EFE8D14
:0A479200828E838FF074441252B53A
:0C479C00A81008740126FDE40836FE0891
:0E47A800860774082DFAE43EFB8F048A828B8C
:0E47B600838CF074FF1252B574092DFDE43EA1
:0D47C400FE8D828E838FF074FF1252B5A817
:0B47D100100886820886830886F0121C
:0247DC0060A8D3
:0947DE00758201851081D01022C2
:0147E70022AF
:0847E80090EE5CE054BFF022EA
:0C47F000C020C0E0C0F0C082C083C00246
:0E47FC00C003C004C005C006C007C000C00155
:0A480A00C0D075D000C010E581F5A4
:0C481400102407F581C2AFD285E5E93021
:0E482000E61490EE5CE0FA30E50790EE5C7472
:03482E00206AF00D
:05483100C28553E9BF40
:08483600E5E920E503024ACD8B
:0E483E00C28590DF62E0FAA3E0FBEA20E3030C
:03484C00024ABE5F
:0A484F00A81008A6D9A81008E65426
:0B4859007FF6A81008E624FB400302D5
:024864004AAE5A
:0E48660090EE60E5D9F0E0FB53030790EE6E94
:0E487400EBF0BB022C90EE61E5D9F090EE6205
:0E488200E5D9F090EE63E5D9F090EE64E5D94B
:09489000F0E0FB20E703024ABA44
:0A48990090EE62E0F5821260FC026E
:0248A3004ABA0F
:0B48A500A8100808E4F608F608F6A8C2
:0A48B000100816A81008E6601512A3
:0948BA006150AE82BE0102800BC8
:0B48C300A8100876007582E6123F4C3A
:0C48CE00A81008E660151261A4AE82AFCD
:0C48DA0083AAF0A8100808A60608A6078C
:0348E60008A6021F
:0948E900A81008E67003024AA6BB
:0C48F200A8100808E608460846700302FB
:0248FE004AA6C8
:0C490000A8100808742C26FAE40836FE03
:0E490C0008860790EE60E0FB8A828E838FF0B3
:0E491A001252B5A3AA82AE83EB54206003753F
:02492800E1E8C4
:07492A00A8100816167B001F
:0C493100A81008C3EB9650138A828E83F6
:0E493D008FF0E5D91252B5A3AA82AE830B808B
:01494B00E586
:0C494C00A8100808742626FAE40836FBC0
:0C495800088604E5102405F874012AF616
:0D496400E43B08F608A604E5D924D3FDE5E0
:0C497100102405F886820886830886F072
:0E497D00ED1252B574022AFAE43BFB8A828BDB
:0E498B00838CF0E5D91252B58A828B838CF0B2
:0A49990012582CFA20E703024A77B7
:0A49A300A8100806A81008087426E2
:0E49AD0026FAE40836FB0886048A828B838C87
:0C49BB00F0E41252B5A81008088682082B
:0E49C70086830886F0E41252B5A3E41252B5BE
:0C49D500A3E41252B5A8100808742026B4
:0E49E100FAE40836FB0886048A828B838CF089
:0A49EF00E41252B5A3E41252B5A879
:0C49F900100808742226FAE40836FB08B7
:0C4A05008604A8100886057E008A828BBB
:0D4A1100838CF0ED1252B5A3EE1252B5A841
:0C4A1E00100808742626FAE40836FB088D
:0E4A2A00860474022AFAE43BFB8A828B838C9A
:0E4A3800F012582CFD53057F8A828B838CF080
:0C4A4600ED1252B5A8100808741F26FAE3
:0E4A5200E40836FB0886048A828B838CF0E42D
:0C4A60001252B5A8100808868208868350
:0B4A6C000886F01261F812624C8043D3
:0C4A7700A8100808742226FAE40836FB98
:0E4A83000886048A828B838CF0E41252B5A35D
:0C4A9100E41252B5A810080886820886BE
:094A9D00830886F01262A0801467
:084AA6007582E6123F4C800C02
:0C4AAE007582E6123F4C7582E6123F4C08
:044ABA00D285800C15
:0C4ABE007582E6123F4C7582E6123F4CF8
:034ACA0053E9DFCE
:0C4ACD00539BFC439120D2AF851081D098
:0C4AD90010D0D0D001D000D007D006D003
:0E4AE50005D004D003D002D083D082D0F0D010
:044AF300E0D02032BD
:0C4AF700C020C0E0C0F0C082C083C0023C
:0E4B0300C003C004C005C006C007C000C0014A
:0D4B1100C0D075D000C2AFC2897582E51218
:0C4B1E003F4C7582E6123F4C7582E61297
:0E4B2A003F4C7582E2123F4CC285C285D2AF6D
:0E4B3800D0D0D001D000D007D006D005D004D8
:0D4B4600D003D002D083D082D0F0D0E0D0D8
:024B530020320E
:0E6E30004E6F206164647265737320696E207A
:086E3E00666C6173682E0A0006
:016EE00000B1
:034B5500024FCA42
:034B580002506E9A
:034B5B00025117ED
:084B5E00AA82AB837C007D00FC
:0E4B66008A828B83E493FE60278E82C002C099
:0E4B740003C004C005124B5BAE82D005D00416
:0A4B8200D003D002BEFF038C822294
:054B8C000ABA00010B54
:054B91000D8D0480D031
:034B96008C8222EC
:0A4B9900C01085811005810581051B
:0A4BA300817AAE7BEE7C008A828BE3
:0C4BAD00838CF0E41252B51ABAFF011B11
:0A4BB900A810181818B610028003A7
:034BC300024C5849
:0C4BC600E51024FBF8740F56FD7E00ED96
:0A4BD2002446F582EE346EF583E40C
:0E4BDC0093FD8A828B838CF01252B51ABAFFB9
:024BEA00011BAD
:0C4BEC00E51024FBF808E618C4C6C45409
:0D4BF8000F66C6540FC666C630E30244F0D7
:0C4C050008F6E51024FBF8740F56FD7E45
:0A4C110000ED2446F582EE346EF546
:0E4C1B0083E493FD8A828B838CF01252B51ACB
:044C2900BAFF011BB2
:0C4C2D00E51024FBF808E618C4C6C454C7
:0D4C39000F66C6540FC666C630E30244F095
:0C4C460008F6E51024FBF8E608466003C1
:034C5200024BC64C
:034C5500024D31DC
:0C4C58007F00E51024FBF808E630E70FB1
:0C4C64007F01E51024FBF8C3E496F6087D
:034C7000E496F6D1
:0B4C7300A81008A60208A60308A6046B
:0C4C7E00C007740AC0E0E4C0E0E51024A8
:0E4C8A00FBF88682088683125848AD82AE83FE
:0C4C980015811581D00774302DFDA81087
:0E4CA4000886820886830886F0ED1252B5A8B5
:084CB200100816B6FF020816F7
:0C4CBA00C007740AC0E0E4C0E0E510246C
:0E4CC600FBF88682088683125B2FAD82AE83D8
:0C4CD40015811581D007E51024FBF8A61F
:0C4CE0000508A606E51024FBF8E60846CF
:0C4CEC007090EF6021A8100886820886F6
:0C4CF800830886F0742D1252B5A8100835
:0E4D0400E624FFFA08E634FFFB088604801F51
:0C4D1200A8100886820886830886F074CA
:0C4D1E00201252B5A81008E624FFFA0885
:074D2A00E634FFFB088604DC
:054D31000ABA00010BAD
:0D4D36008A828B838CF0C002C003C004127F
:0E4D43005814AD82D004D003D002C002C003C9
:0E4D5100C004C0058A828B838CF0124D72154F
:0E4D5F0081D004D003D0028A828B838CF08531
:054D6D001081D01022AE
:0A4D7200C010858110C082C083C00C
:054D7C00F07D007E0047
:0C4D8100A810181818C3EE965039C00591
:0C4D8D00A81008EE26FFE40836FD08869A
:0E4D9900028F828D838AF012582CF582C0059D
:0E4DA700C006124B5BAA82D006D005E4BAFF0C
:024DB5000104F7
:084DB700D00560048D82800725
:054DBF000E8E0580BD11
:024DC4008D82DE
:064DC600851081D01022CF
:0A4DCC00C0108581100581058105E6
:0E4DD60081AA82AB83ACF074012AFDE43BFE9F
:0E4DE4008C078A828B838CF012582CFABA014D
:044DF20003024E87E3
:064DF600BA0203024F5E49
:064DFC00BA0303024EE7BA
:054E0200BA0402800962
:064E0700BA0803024FBED1
:034E0D00024FC48D
:0E4E100074082DFDE43EFE8D828E838FF0121D
:0E4E1E00582CFAA3AD82AE837B00C005C006FF
:0E4E2C00C007C002C0037410C0E075820212FD
:0E4E3A004B99158115811581D007D006D00542
:0E4E48008D828E838FF012582CFAA3AD82AEAD
:0E4E5600837B00C005C006C007C002C0037405
:0E4E640010C0E0758202124B99158115811560
:0E4E720081906E56124B5ED007D006D005ED33
:074E800024F6FDEE34FFFEF5
:0C4E870074082DFDE43EFEA81008A605EE
:084E930008A60608A6077A0034
:034E9B00BA080052
:054E9E004003024FC4B7
:094EA300A8100816B6FF0208165B
:0C4EAC00A8100886820886830886F01291
:0E4EB800582CFB7C00C002C003C0047410C064
:0E4EC600E0758202124B99158115811581D07D
:044ED40002BA070017
:0C4ED800500A906E58C002124B5ED002CF
:034EE4000A80B48D
:0E4EE70074022DFDE43EFE8D828E838FF0124C
:0E4EF500582CFAA3AD82AE837B00C005C00628
