:020000040000FA
:0600000002008B024744E0
:01000B0032C2
:0100130032BA
:03001B00024DD3C0
:0100230032AA
:03002B000232D0CE
:01003300329A
:01003B003292
:03004300023B92EB
:03004B00023A9ED8
:03005300023AA6C8
:03005B00023AB1B5
:03006300023AFA64
:01006B003262
:03007300024E50EA
:01007B003252
:0300830002443DF7
:0300EE0002008687
:050086001200F180FEF4
:0E00F100123914D284D28590C20075F001E459
:0E00FF001247A2125809E4C0E0C0E0C0E0744D
:0E010D0001C0E0E4C0E0C0E0C0E074DCC0E08F
:0A011B00E4C0E07476C0E07469C02F
:0E012500E07480C0E090013D12073CE58124AB
:0A013300F4F581120D1D900000226A
:0A013D00C010E581F510240FF581D4
:0A014700A8100876007B007C00A8D9
:0C015100100808760190697BC003C00410
:0E015D001247AB900014120C30C284C2859081
:0E016B00000012585DAE82AF83AAF090E0A7AC
:0E017900EEF0A3EFF0A3EAF01258B1AA82D084
:0301870004D0039E
:0D018A0090000AE4F5F0C002C003C00412AA
:0E01970047A5AE82AF83D004D003D002BEFFD6
:0701A50006BFFF030204CEB8
:0901AC00BE0D06BF000302045B56
:0801B500BE4305BF0002806A91
:0901BD00BE6106BF000302032429
:0801C600BE6305BF000280606A
:0901CE00BE6706BF00030202D265
:0801D700BE6805BF000280278D
:0901DF00BE6D06BF000302046FAF
:0901E800BE7006BF00030203769D
:0901F100BE7206BF000302028089
:0901FA00BE7506BF00030203E913
:030203000204BD35
:0D02060090698AC002C003C0041247AB908B
:0602130069B11247AB9037
:0C02190069E61247ABD004D003D002020B
:0202250004CE05
:03022700BA1A0000
:03022A0050010A76
:01022D000AC6
:06022E00EA24F450011A5D
:0D023400C003C0048A82C002C003C00412CF
:060241005905906A13123A
:0E02470047ABD004D003D0028A037C00C00273
:0E025500C003C004C003C004740AC0E0758278
:0E026300061247E6158115811581906A1D125D
:0D02710047ABD004D003D002D004D003026C
:02027E0004CEAC
:0A028000A8100808E66401F6A810B3
:0E028A000808740156FDF582C002C003C004CE
:0E029800C005123943D005D004D003D002EDCA
:0E02A6006015906A20C002C003C0041247AB6E
:0902B400D004D003D0020204CEF4
:0E02BD00906A28C002C003C0041247ABD004F0
:0702CB00D003D0020204CEB3
:0A02D200A8100808E66402F6A81060
:0E02DC000808740256FDF582C002C003C0047B
:0E02EA00C005123938D005D004D003D002ED83
:0E02F8006015906A30C002C003C0041247AB0C
:09030600D004D003D0020204CEA1
:0E030F00906A39C002C003C0041247ABD0048C
:07031D00D003D0020204CE60
:0A032400A8100808E66404F6A8100B
:0E032E000808740456FDF582C002C003C00426
:0E033C00C00512392DD005D004D003D002ED3B
:0E034A006015906A42C002C003C0041247ABA7
:09035800D004D003D0020204CE4F
:0E036100906A4AC002C003C0041247ABD00429
:07036F00D003D0020204CE0E
:09037600A81008E660030204CEA1
:0C037F0090E0A0E4F0C002C003C00474D1
:0A038B0000C0E074E0C0E0E4C0E050
:0E03950090000075F000125959AD82158115C7
:0E03A300811581D004D003D002BD0125C00217
:0C03B100120F75AD82AE838D038E04A880
:0C03BD0010087602906A52C003C00412BF
:0B03C90047ABD004D003D0020204CEEA
:0E03D400906A59C002C003C0041247ABD004A7
:0703E200D003D0020204CE9B
:0903E900A81008E660030204CE2E
:0C03F20090E0A0E4F0C002C003C004745E
:0A03FE0000C0E074E0C0E0E4C0E0DD
:0E04080090000075F0001259ADAD82158115FF
:0E041600811581D004D003D002BD0125C002A3
:0C042400120F75AD82AE838D038E04A80C
:0C04300010087601906A66C003C0041238
:0B043C0047ABD004D003D0020204CE76
:0E044700906A59C002C003C0041247ABD00433
:06045500D003D002807309
:0E045B00906A1DC002C003C0041247ABD0045B
:06046900D003D002805F09
:0C046F00C003C004E5102403FD7B007CEA
:0E047B00408D828B838CF0C002C003C004123F
:06048900426D906A77123B
:0C048F0047ABD004D003E5102403FB7C35
:0E049B00007D408B828C838DF0C003C0041264
:0604A9004A19906A1D12C1
:0E04AF0047ABD004D003D002D004D00380119C
:0E04BD008E82C002C003C0041247A8D004D033
:0304CB0003D00259
:0E04CE0090E0A7E0FDA3E0FEA3E0FFED4E4F9F
:0504DC0070030205ACF5
:0E04E10090E0A4E4F0A3F0A3F090000AC002A3
:0E04EF00C003C004125A01AD82AE83AFF0D03C
:0E04FD0004D003D00290E0A4EDF0A3EEF0A333
:0A050B00EFF0ED4E4F70030205AC57
:0D0515008D828E838FF0C002C003C00412DF
:0E0522005A55AD82D004D003D002BD0602802F
:0105300005C5
:05053100BD094F803BF5
:0D053600906A7DC002C003C0041247AB9064
:060543006A1D1247AB9097
:0E054900E0A4E0FDA3E0FEA3E0FF74032DFD9F
:0D055700E43EFE8D828E838FF0124A1990D3
:0D0564006A1D1247ABD004D003D0028012F4
:0E057100906A8EC002C003C0041247ABD004D3
:04057F00D003D002D3
:0E05830090E0A4E0FDA3E0FEA3E0FF8D828ED9
:0E059100838FF0C002C003C004125AA9D00428
:0D059F00D003D00290E0A4E4F0A3F0A3F09C
:0E05AC00C002C002C003C004120F75AD82AEC3
:0E05BA0083D004D003D002EDC39BFDEE9CFE67
:0E05C8007F007A00C003C004C005C006C00753
:0E05D600C00290000AE4F5F0125516AA82AD9C
:0E05E40083AEF0FFE58124FCF581D004D00346
:0E05F200C374E89A74039DE49EE49FD0024017
:040600000302018A66
:09060400A81008E6700302018A47
:0D060D00906AA3C002C003C0041247AB12E4
:0E061A005AFDD004D003D00290E0A0E070039F
:03062800020713B3
:0E062B00906AB3C002C003C0041247ABD004F3
:06063900D003D0027D0099
:0D063F0090E0A0E0FEC3ED9E400302070C1A
:0C064C00C003C004EDC454F0FE2400FF05
:0C065800E434E0FB7C008F828B838CF08C
:0E066400C002C003C004C005C006124A1990AF
:0E0672006AC01247ABD006D005D004D003EE0C
:0A0680002400FBE434E0FC740F2BAF
:0E068A00F582E43CF583E0FB3395E0FCC00311
:0E069800C004C005C006C003C004740AC0E060
:0D06A6007582061247E615811581158190B9
:0E06B3006AC21247ABD006D005D004D003EEC9
:0A06C1002400FEE434E0FB740D2E6B
:0E06CB00F582E43BF583E0FBA3E0FCC003C036
:0E06D90004C005C003C004740AC0E0758206A8
:0D06E7001247E6158115811581906AC91230
:0E06F40047AB900004120C30D005D004D003A8
:0A070200D0020DD004D00302063F20
:07070C0090E0A0E4F0801270
:0E071300906ACFC002C003C0041247ABD004EE
:04072100D003D0022F
:0C07250090E0A1E4F0A3F0A3F0A81008FD
:09073100760002018A851081D0D6
:02073A0010228B
:056976004D61696E0097
:0E697B006E616E6F5F6578616D706C650D0A00
:01698900000D
:0E698A005368656C6C2068656C703A0D0A707D
:0E699800202D2053656E642062726F6164636F
:0B69A6006173742070696E670D0A00B9
:0E69B10075202D2053656E642062726F616444
:0E69BF006361737420554450206563686F0D4A
:0E69CD000A6D202D205072696E74204D4143DA
:0B69DB0020616464726573730D0A0094
:0E69E60063202D204465637265617365206334
:0E69F40068616E6E656C0D0A43202D20496EA1
:0E6A0200637265617365206368616E6E656C1A
:036A10000D0A006C
:0A6A13004368616E6E656C3A200066
:036A1D000D0A005F
:086A20005265673D310D0A00CB
:086A28005265673D300D0A00C4
:096A30004761696E3D310D0A0059
:096A39004761696E3D300D0A0051
:086A4200416D703D310D0A00A9
:086A4A00416D703D300D0A00A2
:076A520050696E670D0A0098
:0D6A59004E6F206275666665722E0D0A0094
:0E6A6600756470206563686F5F726571282922
:036A74000D0A0008
:066A77004D41433A2000EE
:0E6A7D00526F7574652062726F6B656E2074C7
:036A8B006F200079
:0E6A8E005061796C6F616420546F6F204C650D
:076A9C006E6774680D0A002B
:0E6AA30050696E672074696D656F75742E0DF5
:026AB1000A00D9
:0D6AB300526573706F6E73653A200D0A0016
:026AC0002000B4
:076AC2002064626D2C20002E
:066AC900206D730D0A00B0
:0E6ACF004E6F20726573706F6E73652E0D0A28
:016ADD0000B8
:0D6B43000400000000000000000000B3F09E
:0500E40090E110E4F0C2
:0A073C00C010858110C082C0830543
:0C0746008105810581E51024F9F8868208
:0D0752000886831217FCAC82AD83AEF0A8C0
:0C075F0010080808A60408A60508A60655
:0C076B00A810080808B6000B08B600072C
:0707770008B6000302092D82
:0A077E00E51024F5F8E6C0E0E510F0
:0E07880024FBF8E6C0E008E6C0E008E6C0E0AA
:0C079600E51024F9F8E6C0E008E6C0E039
:0C07A200A81008080886820886830886D4
:0C07AE00F0121574E58124FAF581A81002
:0E07BA00080808742026FFE40836FA088603B3
:0E07C8008F828A838BF0125479FFA31254792A
:0C07D600FAA3125479FBE51024F6F8E6B3
:0C07E200C0E008E6C0E008E6C0E0A81097
:0E07EE0008E6C0E008E6C0E08F828A838BF048
:0E07FC00122F3DAA82AB83AFF0E58124FBF5FE
:0C080A0081A81008080886820886830870
:0E08160086F0EA124F02A3EB124F02A3EF127C
:0E0824004F02C0E0C0A8C2AF90F466E024010D
:0C083200F090F466E0FABA0117A8100874
:0E083E00080890F462E6F008A3E6F008A3E6CE
:06084C00F01216E1803FEE
:0E08520090F46BE0FA703890F462E0FAA3E0E4
:0E086000FBA3E0FF741F2AFAE43BFB8A828BA5
:0C086E00838FF0125479FAE51024F5F89D
:0B087A00C3E69A4012A810080808907E
:0C088500F462E6F008A3E6F008A3E6F039
:0C089100A810080808741F26FAE40836B6
:0E089D00FB0886078A828B838FF0125479FA4B
:0E08AB0090F469E0FBC39A500590F469EAF0FE
:0C08B900A810080808742326FBE4083689
:0E08C500FF08860490E110E0FD8B828F838C8B
:0B08D300F0124F0290E110ED04F090D5
:0D08DE00F46AE0FBC39A500590F46AEAF05A
:0C08EB00A810080808740326FBE4083677
:0C08F700FC088605EA75F00CA424AAFA9F
:0C090300E434E0FE7F00C003C004C00527
:0E090F008A828E838FF01229221581158115A0
:0E091D00817A01D0E053E080E5E042A8D0E00E
:02092B00800248
:02092D007AFF4F
:0C092F00BA0163E51024F2F88603088684
:0E093B0004088605BB0008BC0005BD00028054
:010949001B92
:0C094A008B828C838DF0A810080808E652
:0D095600124F02A308E6124F02A308E6129A
:020963004F0241
:0E09650090F46BE0FB602990F462E0FBA3E0ED
:0E097300FCA3E0FD741F2BFBE43CFC8B828C8C
:0C098100838DF0125479FBE51024F5F88A
:08098D00C3EB9650031231EF99
:080995008A82851081D0102236
:0A099D00C010E581F5102406F58175
:0D09A700AA82AB83ACF0C0E0C0A8C2AF9044
:0E09B400F462E0FDA3E0FEA3E0FFEAB5050E4D
:0E09C200EBB5060AECB507067A007B007C0058
:0B09D000E4BA0007BB0004BC000104F7
:0C09DB00FD601290F462A81008E0F6A382
:0909E700E008F6A3E008F6800B1D
:0B09F000A81008A60208A60308A60431
:0C09FB00C005A8100886020886030886C4
:0E0A07000474032AFEE43BFF8C058E828F836D
:0E0A15008DF0C002C003C004C005122D7CD0BD
:0C0A230005D004D003D002E5102404F834
:0C0A2F0074112AF6E43B08F608A604E562
:0C0A3B00102404F8740B26FDE40836FEBD
:0E0A47000886078D828E838FF0125479FDA3EE
:0E0A5500125479FEA3125479FFED4E4FD005D6
:0C0A63006020E5102404F88682088683D9
:0E0A6F000886F0C002C003C004C005122D7C32
:080A7D00D005D004D003D00223
:0E0A850074032AFAE43BFBC005C002C003C0A4
:0E0A93000490E10475F00012292215811581EE
:0E0AA1001581D00590F465E02401F0D0E053FB
:0E0AAF00E080E5E042A8D0E0ED60031231EFF8
:060ABD00851081D010221B
:0A0AC300C010858110C082C083C0FE
:0B0ACD00F00581E5102404F87600120B
:0C0AD8000D6FA81008868208868308862F
:0B0AE400F0125479FEA3125479FFE5D4
:0C0AEF001024FCF8E62EFD08E63FFA8D0E
:0E0AFB000390F467E0FCA3E0FDC3EC9EED9FCA
:0E0B0900501FC3EB9EEA9F503590F467E0FC4E
:0C0B1700A3E0FDC3EC9BED9A5026E51016
:070B23002404F87601801D97
:0E0B2A00C3EB9EEA9F400F90F467E0FCA3E04F
:080B3800FDC3EC9BED9A500790
:070B4000E5102404F8760122
:0C0B4700A8100886820886830886F0EB60
:090B5300124F02A3EA124F02E561
:0A0B5C00102404F8E67003020C1FD9
:0E0B660090F462E0FCA3E0FDA3E0FE74032C1B
:0E0B7400FCE43DFD8C828D838EF0C002C00338
:0E0B8200122D7CD003D00290F462E0FCA3E0C0
:0E0B9000FDA3E0FE74032CFCE43DFD8C828D81
:0D0B9E00838EF0EB124F02A3EA124F02907B
:0E0BAB00F467E0FCA3E0FDC3EB9CEA9D503430
:0E0BB90090F462E0FAA3E0FBA3E0FC74032AD0
:0E0BC700FAE43BFB90E0F5E0FDA3E0FEA3E0C6
:0E0BD500FFC002C003C0048D828E838FF01219
:0A0BE3002AE1158115811581803289
:0E0BED0090F462E0FAA3E0FBA3E0FC74032A9C
:0E0BFB00FAE43BFB90E0F2E0FDA3E0FEA3E095
:0E0C0900FFC002C003C0048D828E838FF012E4
:080C17002AE115811581158108
:0B0C1F00120D88E582FA70031231EF1D
:060C2A00851081D01022AC
:0D0C3000AA82AB837C00EA4B7003020D1614
:0E0C3D00C002C003120D6FD003D00290F46706
:0E0C4B00E0FDA3E0FEEA2DFAEB3EFB90F46222
:0E0C5900E0FDA3E0FEA3E0FF74032DFDE43EEA
:0E0C6700FE8D828E838FF0C002C003122D7CA2
:0E0C7500D003D00290F462E0FDA3E0FEA3E005
:0E0C8300FF74032DFDE43EFE8D828E838FF004
:0A0C9100EA124F02A3EB124F02908B
:0E0C9B00F467E0FDA3E0FEC3EA9DEB9E50343B
:0E0CA90090F462E0FAA3E0FBA3E0FD74032ADE
:0E0CB700FCE43BFB90E0F5E0FEA3E0FFA3E0D1
:0E0CC500FAC004C003C0058E828F838AF0122D
:0A0CD3002AE1158115811581803298
:0E0CDD0090F462E0FAA3E0FBA3E0FD74032AAA
:0E0CEB00FCE43BFB90E0F2E0FEA3E0FFA3E0A0
:0E0CF900FAC004C003C0058E828F838AF012F9
:080D07002AE115811581158117
:070D0F00120D88AA828A047C
:060D1600EC70030231EF56
:010D1C0022B4
:0E0D1D00E4C0E0C0E0C0E0E4C0E0E4C0E0C03C
:0C0D2B00E0C0E07450C0E0E4C0E074DE02
:0B0D3700C0E0746AC0E07480C0E0906F
:0E0D4200156F12073CAA82E58124F4F581BAF0
:0E0D50000112C2AF90F46B7401F090F467E4EE
:060D5E00F0A3F002317762
:010D6400226C
:0A0D6500C2AF90F46BE4F00231EE2F
:0E0D6F00C0E0C0A8C2AF90F46CE02401F0D048
:0B0D7D00E053E080E5E042A8D0E02257
:0A0D8800C010E581F5102406F58186
:0C0D9200A810087600C0E0C0A8C2AF9016
:090D9E00F46CE01490F46CF09088
:090DA700F46CE0FB6003020F5F35
:0A0DB00090F466E0FB7003020F5F91
:060DBA00A81008087600F5
:0A0DC00090E0F8E0FCE4BC00010440
:040DCA00FCB4010074
:0E0DCE00E433FC603190E0FE75F000125479C1
:0E0DDC00FCA3125479FDA3125479FE74082C66
:0E0DEA00FCE43DFD8C828D838EF0125479FC6A
:0C0DF800A3125479FDA3125479FE80066A
:060E04007C007D007E0071
:0E0E0A008C078D038E02BC0009BD0006BE00E1
:040E180003020F1FA3
:0E0E1C0074112FFCE43BFD8A068C828D838EC0
:0E0E2A00F0C002C003C007122D7CD007D00319
:0E0E3800D00274032FFCE43BFD8A068C828DF1
:0E0E4600838EF0C002C003C007122D7CD007BF
:0E0E5400D003D002741F2FFCE43BFD8A068CF5
:0B0E6200828D838EF0A8100808081293
:0E0E6D005479F6C007C003C00290F46AE0FAA0
:0C0E7B00A810080808C3EA96E433D0026F
:0C0E8700D003D007600AA81008080890EB
:040E9300F46AE6F027
:0C0E9700E5102404F874032FF6E43B0877
:0E0EA300F608A6028C828D838EF012547975AB
:0A0EB100F00CA424AAFAE434E0FBDC
:0C0EBB007F00C004C005C006E510240440
:0E0EC700F8E6C0E008E6C0E008E6C0E08A8277
:0E0ED5008B838FF0122922158115811581D093
:0E0EE30006D005D0048C828D838EF0125479D7
:0E0EF100FC90F462E0FAA3E0FBA3E0FD741FA6
:0E0EFF002AFAE43BFB8A828B838DF012547931
:090F0D00FAC3EC9A5003020DC076
:090F1600A81008087601020DC0C4
:070F1F0090F46DE0FA601B85
:0B0F260090F46DE0FA600E120FAC902A
:0A0F3100F46DE01490F46DF080EB15
:060F3B00A8100808760171
:090F4100A8100808B6010280089E
:080F4A0090F46EE0FABA010D0B
:0B0F5200A81008760190F46EE4F01285
:020F5D0031EF72
:0C0F5F00D0E053E080E5E042A8D0E0A81C
:080F6B0010088682851081D078
:020F730010224A
:0E0F7500C0E0C0A8C2AF90F467E0FAA3E0FBB2
:0E0F8300D0E053E080E5E042A8D0E08A828B07
:020F91008322B9
:0E0F9300C0E0C0A8C2AF90F466E0FAD0E05310
:0B0FA100E080E5E042A8D0E08A822258
:080FAC00C01085811005819041
:090FB400F46CE0FA6003021195EF
:0D0FBD0090F467E02401F0A3E03400F09010
:0E0FCA00F467E0FAA3E0FB4A702C90E0F2E03E
:0E0FD800FAA3E0FBA3E0FC90E0F5E0FDA3E04F
:0E0FE600FEA3E0FF90E0F2EDF0A3EEF0A3EF2B
:0C0FF400F090E0F5EAF0A3EBF0A3ECF0C5
:0E10000090E0F2E0FAA3E0FBA3E0FC8A828B12
:0C100E00838CF0125479FAE4BA0001045B
:04101A00FAB4010023
:0E101E00E433FA604A90E0F2E0FAA3E0FBA3AC
:0E102C00E0FC74042AFAE43BFB74022AFAE4A6
:0E103A003BFB8A828B838CF0125479FAA3124E
:0E1048005479FBA3125479FC74082AFAE43B95
:0D105600FB8A828B838CF0125479FAA3126E
:0A1063005479FBA3125479FC8006B7
:06106D007A007B007C000C
:0E1073008A058B068C07BA0009BB0006BC007C
:041081000302119CB9
:0E10850074032DFAE43EFB8F048A828B838C69
:0E109300F0125479FAA3125479FBC005C0067E
:0E10A100C00790F467E0FCA3E0FDC3EC9AEDFD
:0E10AF009BE433D007D006D005600302119CED
:0E10BD0074032DFAE43EFB8F048A828B838C31
:0E10CB00F0C005C006C007122D7CD007D0066D
:0E10D900D00574112DFAE43EFB8F04C005C053
:0E10E70006C007740B2AFDE43BFE8C078D82C9
:0E10F5008E838FF0125479FDA3125479FEA35E
:0E110300125479FFED4E4FD007D006D0056094
:0E111100158A828B838CF0C005C006C00712C1
:08111F002D7CD007D006D0059D
:0E112700741F2DFAE43EFB8F048A828B838CAA
:0C113500F0A81008125479F6C005C0069E
:0C114100C00790F46AE0FDA81008C3EDA0
:0C114D0096E433D007D006D0056008A857
:07115900100890F46AE6F0B3
:0E11600074032DFDE43EFE8A828B838CF01218
:0B116E00547975F00CA424AAFAE434B4
:0C117900E0FB7C00C005C006C0078A82B5
:0E1185008B838CF012292215811581158102B1
:0211930010004A
:0711950090F46DE02401F06D
:06119C00851081D0102235
:0E11A20090F46CE0FA600790F46E7401F02295
:0C11B00090F46AE075F00CA424AAFAE4A4
:0B11BC0034E0FB8A828B83E0700B9014
:0A11C700F46AE01490F46AF080DF8F
:0C11D10090F46AE075F00CA424AAFAE483
:0811DD0034E0FB0ABA00010B2B
:0C11E50090F46AE075F00CA424AAFCE46D
:0C11F10034E0FD8C828D83A3E0FCA3E0C1
:0E11FD00FDA3E0FE74022CFCE43DFD8C828D0F
:0E120B00838EF0125479FCA3125479FDA312C5
:0E1219005479FE8A828B83ECF0A3EDF0A3EEF5
:0C122700F090F46AE075F00CA424AAFA20
:0C123300E434E0FB8A828B83A3E0FAA382
:0E123F00E0FBA3E0FC90F46AE075F00CA42440
:0A124D00AAFDE434E0FE74042DFD58
:0E125700E43EFE7F00EAB5055FEBB5065BECFA
:0C126500B5075790F46AE075F00CA42463
:0A127100AAFAE434E0FB0ABA000117
:01127B000B67
:0C127C0090F46AE075F00CA424AAFCE4D5
:0C12880034E0FD8C828D83A3E0FCA3E029
:0E129400FDA3E0FE74022CFCE43DFD8C828D77
:0E12A200838EF0125479FCA3125479FDA3122E
:0E12B0005479FE8A828B83ECF0A3EDF0A3EE5E
:0112BE00F03F
:0C12BF0090F46AE075F00CA424AAFAE494
:0C12CB0034E0FB8A828B83A3E0FAA3E0EE
:0E12D700FBA3E0FC74082AFAE43BFB8A828B3E
:0E12E500838CF0125479FAA3125479FBA312F1
:0E12F3005479FC90F462EAF0A3EBF0A3ECF067
:0113010022C9
:0A130200C010858110AA82AB83ACF5
:0E130C00F090F462E0FDA3E0FEA3E0FF741198
:0E131A002DFDE43EFEC005C006C0078A828B92
:0D132800838CF0122AE1158115811581904A
:0C133500F467E0FAA3E0FBE51024FCF8EC
:0E134100E62AFA08E63BFB90F462E0FCA3E02B
:0E134F00FDA3E0FE74032CFCE43DFD8C828DBA
:0E135D00838EF0C002C003122D7CD003D0029C
:0E136B0090F462E0FCA3E0FDA3E0FE74032C0E
:0E137900FCE43DFD8C828D838EF0EA124F0263
:0E138700A3EB124F0290F467E0FCA3E0FDC35D
:0E139500EA9CEB9D503490F462E0FAA3E0FB7A
:0E13A300A3E0FC74032AFAE43BFB90E0F5E0C3
:0E13B100FDA3E0FEA3E0FFC002C003C0048D58
:0E13BF00828E838FF0122AE11581158115812F
:0213CD0080326C
:0E13CF0090F462E0FAA3E0FBA3E0FC74032AB2
:0E13DD00FAE43BFB90E0F2E0FDA3E0FEA3E0AB
:0E13EB00FFC002C003C0048D828E838FF012FB
:0813F9002AE11581158115811F
:03140100D01022E6
:0A140400C0108581100581058105E7
:0E140E0081AA82AB83ACF0125479FDE4BD00DC
:02141C000104C9
:04141E00FDB4010018
:0E142200E433FD603F74042AFAE43BFB7402DD
:0E1430002AFAE43BFB8A828B838CF0125479FB
:0E143E00FAA3125479FBA3125479FC74082A05
:0E144C00FAE43BFB8A828B838CF0125479FA0F
:0C145A00A3125479FBA3125479FC800605
:061466007A007B007C000F
:0C146C00A81008A60208A60308A604A801
:0C1478001008741126FDE40836FE0886FA
:0E148400078D828E838FF0122D7C90F46CE029
:0C149200FD7070A81008740326FDE4082B
:0E149E0036FE0886078D828E838FF0122D7C1D
:0C14AC00A81008741F26FDE40836FE0896
:0D14B80086078D828E838FF0125479FD908F
:0D14C500F46AE0FEC39D500590F46AEDF05E
:0C14D200A81008740326FEE40836FF088A
:0C14DE008602ED75F00CA424AAFBE43497
:0C14EA00E0FC7D00C006C007C0028B8241
:0E14F6008C838DF012292215811581158180BD
:0115040023C3
:0C150500A81008741126FAE40836FB0850
:0E1511008604C002C003C00490E0F875F0002C
:09151F00122922158115811581A4
:0C152800A81008741F26FAE40836FB081F
:0D15340086048A828B838CF0125479FA9021
:0E154100F462E0FBA3E0FCA3E0FD741F2BFBB3
:0E154F00E43CFC8B828C838DF0125479FBC33C
:09155D00EA9B4005758201800340
:031566007582008B
:06156900851081D0102264
:05156F0012174780FB8C
:0A157400C010858110C082C083C042
:0C157E00F0A81008742C26FDE40836FECE
:0C158A000886078D828E838FF0E5102408
:0D159600FCF8E6124F02A308E6124F02A86F
:0C15A3001008742426FDE40836FE0886BB
:0C15AF00077408C0E0E4C0E0E51024F977
:0E15BB00F8E6C0E008E6C0E008E6C0E08D8279
:0E15C9008E838FF01253AAE58124FBF581A8D2
:0C15D7001008742426FDE40836FE088687
:0E15E3000774072DFDE43EFE8D828E838FF08F
:0C15F100E4124F02E51024F8F8B60400E4
:0915FD004007E51024F8F876031C
:0C160600A81008741F26FDE40836FE083A
:0C16120086078D828E838FF0E51024F88F
:0C161E00F8E6124F02A81008740326FD25
:0E162A00E40836FE0886078D828E838FF0124C
:0C1638002901A81008741126FDE40836F2
:0E164400FE0886078D828E838FF0122901A882
:0C1652001008740326FDE40836FE08862C
:0E165E000774082DFDE43EFE8D828E838FF012
:0B166C00A81008E6124F02A308E612C7
:091677004F02A308E6124F02A87D
:0C1680001008741126FDE40836FE0886F0
:0C168C0007E51024F8F886027B007404C7
:0E169800C39AFAE49BFB8D828E838FF0EA12D8
:0816A6004F02A3EB124F02A852
:0C16AE001008741126FAE40836FB0886C8
:0E16BA000474082AFAE43BFB8A828B838CF0CE
:0B16C800A81008E6124F02A308E6126B
:0916D3004F02A308E6124F028544
:0516DC001081D0102276
:0216E1007A008D
:0316E300BA040046
:0C16E600501EEA75F00CA424AAFBE434AA
:0C16F200E0FC7D008B828C838DF0C00238
:0816FE0012282FD0020A80DD42
:0A17060090E0DA75F00012282F9031
:09171000E0E675F00012282F90AC
:09171900E0F875F00012282F9091
:09172200E10475F00012282F907B
:07172B00E0F274DAF0A37490
:0A173200E0F0A37400F090E0F574FD
:0A173C00E6F0A374E0F0A37400F0DF
:011746002280
:0817470090F465E0FA70012244
:0D174F00120D6F90E104E0FAE4BA0001040D
:0C175C00FAC002120D88D002EA600122DF
:0E176800C0E0C0A8C2AF90E104E0FAE4BA000D
:0217760001046C
:04177800FAB40100BE
:0E177C00E433FA603190E10A75F000125479FE
:0E178A00FAA3125479FBA3125479FC74082AB6
:0E179800FAE43BFB8A828B838CF0125479FAC0
:0C17A600A3125479FBA3125479FC8006B6
:0617B2007A007B007C00C0
:0E17B80074032AFDE43BFE8C078D828E838F26
:0E17C600F0C002C003C004122D7CD004D0037A
:0C17D400D00290F466E01490F466F090EF
:0E17E000F465E01490F465F0D0E053E080E58D
:0E17EE00E042A8D0E08A828B838CF00218E2E1
:0A17FC00C010858110C082C0830573
:0E180600810581058190002E123493AC82ADD5
:0C18140083AEF0A810080808A60408A67F
:0C1820000508A606A810080808B6000B72
:0B182C0008B6000708B600030218CF42
:0C183700A810080808742026FFE40836FA
:0C184300FA088603A81008868208868335
:0E184F00C002C003C007123493AC82AD83AE5A
:0E185D00F0D007D003D0028F828A838BF0EC8C
:0B186B00124F02A3ED124F02A3EE1279
:0C1876004F02BC0023BD0020BE001DA8D6
:0C1882001008080886820886830886F09B
:0C188E001237FFA810080808E4F608F65E
:04189A0008F680319B
:0E189E008F828A838BF0125479FFA312547943
:0C18AC00FAA3125479FBA81008E6C0E073
:0E18B80008E6C0E074A5C0E08F828A838BF042
:0918C60012533F158115811581B3
:0C18CF00A8100808088682088683088696
:0718DB00F0851081D01022FE
:0E18E200AA82AB83ACF074202AFDE43BFE8C9E
:0D18F000078D828E838FF0125479FDA312B4
:0E18FD005479FEA3125479FF8D828E838FF0F2
:0E190B00C002C003C0041237FFD004D003D0C6
:0A191900028A828B838CF00237FFF4
:056ADE0049444C450095
:036B500000000042
:016B53000041
:016B54000040
:026B550000003E
:016B5700003D
:016B5800003C
:016B5900003B
:016B5A00003A
:016B5B000039
:016B5C000038
:0A192300C010858110C082E5812408
:0C192D0009F581A81008E67003021B7881
:0D193900900029123493AB82AC83ADF0A86E
:0C194600100808A60308A60408A605A8BF
:0C195200100808B6000B08B6000708B625
:05195E000003021B78EC
:0A196300A81008A91019191986F040
:0E196D00E7A4FEAFF074012EFAE43FFB8A827D
:0E197B008B83C006C007123493AA82AB83ACE4
:0C198900F0D007D006A8100808868208DD
:0E19950086830886F0EA124F02A3EB124F027F
:0E19A300A3EC124F02BA0009BB0006BC000301
:0319B100021B69AD
:0A19B400A8100808E5102405F974D6
:0D19BE000326F7E4083609F70809E6F7A844
:0C19CB0010080886820886830886F01247
:0A19D7005479FDA3125479FAA3120B
:0C19E1005479FBEE2DFEEF3AFF8B04E57D
:0C19ED00102405F886820886830886F026
:0C19F900EE124F02A3EF124F02A3EC12FB
:0C1A05004F02A8100808742426FCE40816
:0D1A110036FE0886078C828E838FF0E4126B
:0C1A1E004F02A8100808740626FCE4081B
:0D1A2A0036FE0886078C828E838FF0ED1249
:0A1A37004F02A3EA124F02A3EB12C4
:071A41004F02A8100808E5A0
:0C1A4800102405F9740926F7E40836099B
:0C1A5400F70809E6F7A8100886047E00D9
:0C1A6000E5102408F8EC24FFF6EE34FF3B
:0C1A6C0008F6A81018181886077C00C0A7
:0C1A780002C003C005C007C004E5102434
:0E1A840008F886820886831250B5AC82AE83C5
:0E1A920015811581D005D003D002EC2DFDEE9C
:0C1AA0003AFAE5102405F88682088683D7
:0E1AAC000886F0ED124F02A3EA124F02A3EBE0
:0C1ABA00124F02A8100808742526FAE458
:0D1AC6000836FB0886048A828B838CF0A80A
:071AD3001008E6124F02A803
:0C1ADA00100808742626FAE40836FB0801
:0C1AE60086048A828B838CF0A8101818EC
:0C1AF20018E6124F02A8100808742726FE
:0E1AFE00FAE40836FB0886048A828B838CF09B
:0C1B0C0074FF124F02A81008087428266D
:0E1B1800FAE40836FB0886048A828B838CF080
:0C1B260074FF124F02A8100808740C266F
:0E1B3200FAE40836FB0886048A828B838CF066
:0C1B400012282FA8100808741826FAE4D8
:0D1B4C000836FB0886048A828B838CF01219
:0C1B5900282FA810080886820886830840
:041B650086F0801571
:0C1B6900A810080886820886830886F011
:031B75001237FF25
:061B780090000075F00072
:061B7E00851081D0102249
:0A1B8400C010858110C082C083C02C
:0E1B8E00F0E581240CF581120D6FC0E0C0A8B7
:0C1B9C00C2AFA81008742726FDE408362C
:0E1BA800FE0886078D828E838FF0125479FA24
:0C1BB6000A8D828E838FF0EA124F02A885
:0C1BC2001008742826FAE40836FB088698
:0E1BCE00048A828B838CF0125479FD0D8A827A
:0E1BDC008B838CF0ED124F02D0E053E080E5D9
:0C1BEA00E042A8D0E0A81008868208861F
:0E1BF600830886F01227E7E5827003021CBB0D
:0B1C0400E51024F9F8E6084670030222
:021C0F001CBBFC
:0C1C1100A81008740C26FAE40836FB0842
:0C1C1D008604E51024F9F8E6C0E008E6B3
:0E1C2900C0E08A828B838CF0121302158115A5
:0C1C370081C0E0C0A8C2AFA810088682DF
:0E1C43000886830886F0122683120D88E5823B
:051C510070031231EFE9
:0C1C5600120D6FC0E0C0A8C2AFA81008BB
:0E1C6200742726FAE40836FB0886048A828B73
:0E1C7000838CF0125479FD0D8A828B838CF0E8
:0C1C7E00ED124F02A81008742826FAE4AA
:0D1C8A000836FB0886048A828B838CF012DA
:0E1C97005479FD0D8A828B838CF0ED124F0282
:0E1CA500D0E053E080E5E042A8D0E0D0E0536C
:081CB300E080E5E042A8D0E06A
:0C1CBB00C0E0C0A8C2AFA8100874242626
:0E1CC700FAE40836FB0886048A828B838CF0D0
:0A1CD500E5102404F8125479F6A873
:0C1CDF001008742526FEE40836FF088675
:0C1CEB00058E828F838DF0125479FEE587
:0C1CF700102404F8C3E69E4003021E887F
:0A1D0300A81008E5102405F9742665
:0C1D0D0026F7E4083609F70809E6F7E5B8
:0C1D1900102405F886820886830886F0F6
:0C1D2500125479FDE510240BF8A6050807
:0A1D31007600A81008E5102408F958
:0E1D3B00740626F7E4083609F70809E6F7E50E
:0C1D4900102408F886820886830886F0C3
:0B1D5500125479FFA3125479FDA31271
:0C1D60005479FEC002C003C004E510244A
:0C1D6C000BF8E6C0E008E6C0E0E510243B
:0E1D7800FBF8E6C0E008E6C0E008E6C0E08F39
:0E1D8600828D838EF01252A1E58124FBF5813F
:0D1D9400D004D003D0028A828B838CF01221
:0E1DA1005479FD0D8A828B838CF0ED124F0277
:0C1DAF00E5102408F88682088683088668
:0C1DBB00F0125479FAA3125479FBA31221
:0C1DC7005479FCE5102405F8868208869B
:0D1DD300830886F01254792AFAE43BFBE500
:0C1DE000102408F886820886830886F02C
:0C1DEC00EA124F02A3EB124F02A3EC120C
:0C1DF8004F02A81008740326FDE4083612
:0E1E0400FE0886078D828E838FF0125479FDC2
:0E1E1200A3125479FEA3125479FFC3EA9DEB8C
:0E1E20009EEC64808FF063F08095F04034A853
:0B1E2E00100886820886830886F012E8
:0A1E39005479FAA3125479FBA312A6
:0C1E43005479FCE5102408F8868208861B
:0E1E4F00830886F0EA124F02A3EB124F02A3A3
:041E5D00EC124F0232
:0C1E61007A01A81008742826FBE408365B
:0E1E6D00FC0886058B828C838DF0125479FE62
:0D1E7B000E8B828C838DF0EE124F028002E0
:021E88007AFDE1
:0C1E8A00D0E053E080E5E042A8D0E0A8E2
:0C1E9600100886820886830886F0C002CF
:0E1EA200122683E582D0026010C002120D8865
:0B1EB000E582D002700C1231EF8007B9
:071EBB00C002120D88D002E5
:081EC2008A82851081D01022F4
:0A1ECA00C010858110C082C083C0E3
:0C1ED400F0E581240CF581A810087424AE
:0E1EE00026FDE40836FE0886078D828E838F6D
:0B1EEE00F0E5102404F8125479F6A867
:0C1EF9001008742526FBE40836FC08865F
:0C1F0500028B828C838AF0125479FBE579
:0C1F1100102404F8C3E69B40030220F3F8
:0A1F1D00A81008E5102405F9742649
:0C1F270026F7E4083609F70809E6F7E59C
:0C1F3300102405F886820886830886F0DA
:0C1F3F00125479FAE510240BF8A60208F1
:0A1F4B007600A81008E5102408F93C
:0E1F5500740626F7E4083609F70809E6F7E5F2
:0C1F6300102408F886820886830886F0A7
:0B1F6F00125479FCA3125479FAA3125B
:0C1F7A005479FBC005C006C007E5102428
:0C1F86000BF8E6C0E008E6C0E0E510241F
:0E1F9200FBF8E6C0E008E6C0E008E6C0E08C20
:0E1FA000828A838BF01252A1E58124FBF58129
:0D1FAE00D007D006D0058D828E838FF012F3
:0E1FBB005479FA0A8D828E838FF0EA124F025B
:0C1FC900E5102408F8868208868308864C
:0C1FD500F0125479FAA3125479FBA31205
:0C1FE1005479FCE5102405F8868208867F
:0D1FED00830886F01254792AFAE43BFBE5E4
:0C1FFA00102408F886820886830886F010
:0C200600EA124F02A3EB124F02A3EC12EF
:0C2012004F02A81008740326FDE40836F5
:0E201E00FE0886078D828E838FF0125479FDA6
:0E202C00A3125479FEA3125479FFC3EA9DEB70
:0E203A009EEC64808FF063F08095F04034A837
:0B204800100886820886830886F012CC
:0A2053005479FAA3125479FBA3128A
:0C205D005479FCE5102408F886820886FF
:0E206900830886F0EA124F02A3EB124F02A387
:04207700EC124F0216
:0C207B00A81008742826FAE40836FB08B8
:0E20870086048A828B838CF0125479FDBDFF93
:0A20950052E51024FAF8E67055A891
:0C209F001008741826FAE40836FB0886C6
:0D20AB00048A828B838CF0125479603CA86B
:0A20B8001008E5102408F97418263A
:0C20C200F7E4083609F70809E6F7E51016
:0E20CE002408F886820886830886F01214041F
:0720DC00AE82BE000280107D
:0520E30075820180126E
:0B20E8000D8A828B838CF0ED124F02FA
:0720F300E51024FAF88682D3
:0620FA00851081D01022C8
:0A210000C010858110C082C083C0AA
:0E210A00F0E581240BF581120D6FC0E0C0A836
:0C211800C2AFA81008742726FDE40836AA
:0E212400FE0886078D828E838FF0125479FAA2
:0C2132000A8D828E838FF0EA124F02A803
:0C213E001008742826FAE40836FB088616
:0E214A00048A828B838CF0125479FD0D8A82F8
:0E2158008B838CF0ED124F02D0E053E080E557
:0C216600E042A8D0E0A81008868208869D
:0E217200830886F01227B6E58270030222373A
:0B218000E51024F9F8E60846700302A1
:02218B002237F9
:0C218D00A81008741826FAE40836FB08B5
:0C2199008604E51024F9F8E6C0E008E632
:0E21A500C0E08A828B838CF012130215811524
:0C21B30081C0E0C0A8C2AFA8100886825E
:0E21BF000886830886F0122683120D88E582BA
:0521CD0070031231EF68
:0C21D200120D6FC0E0C0A8C2AFA810083A
:0E21DE00742726FAE40836FB0886048A828BF2
:0E21EC00838CF0125479FD0D8A828B838CF067
:0C21FA00ED124F02A81008742826FAE429
:0D2206000836FB0886048A828B838CF01258
:0E2213005479FD0D8A828B838CF0ED124F0200
:0E222100D0E053E080E5E042A8D0E0D0E053EA
:08222F00E080E5E042A8D0E0E8
:0C223700C0E0C0A8C2AFA81008742426A4
:0E224300FAE40836FB0886048A828B838CF04E
:0A225100E510240BF8125479F6E5AD
:0A225B0010240BF8E670030223D5EF
:0A226500A81008E5102404F974091C
:0C226F0026F7E4083609F70809E6F7E551
:0C227B00102404F886820886830886F090
:0B228700E5102407F9125479F7A312A8
:0B229200547909F7A312547909F7A84A
:0C229D001008742626FDE40836FE0886B2
:0C22A900078D828E838FF0E510240AF868
:0A22B500125479F6E5102407F8E54D
:0C22BF0010240AF9E726F6E40836F6E5DC
:0C22CB00102404F886820886830886F040
:0C22D700E5102407F9E7124F02A309E705
:0A22E300124F02A309E7124F02A8F0
:0C22ED001008740326FDE40836FE088685
:0D22F900078D828E838FF0125479FDA312A1
:092306005479FEA3125479FFE59D
:0C230F00102407F8C3E69D08E69E08E6CF
:0C231B0064808FF063F08095F04034A8DF
:0B232700100886820886830886F012EA
:0A2332005479FEA3125479FFA312A0
:0C233C005479FDE5102404F88682088620
:0E234800830886F0EE124F02A3EF124F02A39D
:04235600ED124F0233
:0C235A00E510240BF8E6148A828B838CBB
:0C236600F0124F02E510240AF886027BFA
:0C23720000E5102404F886820886830829
:0D237E0086F0125479FCA3125479FDA312CD
:0E238B005479FEC002C003C004C005C006E5C0
:0C2399001024FBF886820886830886F07A
:0C23A5001252A1E58124FBF581A810086C
:0E23B100742726FAE40836FB0886048A828B1D
:0E23BF00838CF0125479FD0D8A828B838CF092
:0823CD00ED124F027A018002BB
:0223D5007A008C
:0C23D700D0E053E080E5E042A8D0E0A890
:0C23E300100886820886830886F0C0027D
:0E23EF00122683E582D0026010C002120D8813
:0B23FD00E582D002700C1231EF800767
:07240800C002120D88D00292
:08240F008A82851081D01022A1
:0A241700C010858110C082C083C090
:0C242100F0E5812408F581A8100874245F
:0E242D0026FDE40836FE0886078D828E838F1A
:0B243B00F0E5102404F8125479F6E5D7
:0A244600102404F8E6700302261DBE
:0A245000C005C006C007A81008E58B
:0C245A00102405F9740926F7E40836097F
:0C246600F70809E6F7E5102405F8868267
:0E2472000886830886F0125479FDA31254796F
:0C248000FEA3125479FFA8100874262651
:0E248C00FAE40836FB0886048A828B838CF003
:0A249A00E5102408F8125479F6E565
:0B24A400102408F8E62DFDE43EFEE5E4
:0C24AF00102405F886820886830886F059
:0C24BB00ED124F02A3EE124F02A3EF122D
:0C24C7004F02A81008740326FAE408363F
:0E24D300FB0886048A828B838CF0125479FAFF
:0E24E100A3125479FBA3125479FCC3ED9AEEBA
:0E24EF009BEF64808CF063F08095F0D007D0F6
:0C24FD0006D0054034A81008868208862E
:0E250900830886F0125479FAA3125479FBA3CA
:0C251700125479FCE5102405F8868208B7
:0E25230086830886F0EA124F02A3EB124F02E5
:05253100A3EC124F02B3
:0C253600E5102404F8E6148D828E838FDB
:0C254200F0124F02E5102408F886027B1E
:0C254E0000E5102405F88682088683084A
:0D255A0086F0125479FCA3125479FDA312EF
:0E2567005479FEC002C003C004C005C006E5E2
:0C2575001024FBF886820886830886F09C
:0C2581001252A1E58124FBF581A810088E
:0E258D00742726FAE40836FB0886048A828B3F
:0C259B00838CF0125479FDBDFF68E51040
:0E25A70024F8F886020886030886048A828BD0
:0C25B500838CF0125479705BA81008743D
:0E25C1000C26FDE40836FE0886078D828E8308
:0C25CF008FF01254796042A81008740CC0
:0E25DB0026FDE40836FE0886078D828E838F6B
:0E25E900F0C002C003C004121404AE82D0047D
:0925F700D003D002BE00028018DE
:0D2600008A828B838CF07401124F02800BD4
:0B260D000D8A828B838CF0ED124F02CF
:05261800758201800342
:03261D00758200C3
:06262000851081D010229C
:0E262600AA82AB83ACF0C0E0C0A8C2AF74249F
:0E2634002AFAE43BFB8A828B838CF0125479E5
:0E264200FAD0E053E080E5E042A8D0E08A82C2
:012650002267
:0E265100AA82AB83ACF0125479FDA312547927
:0E265F00FEA3125479FF8D828E838FF0C0028D
:0E266D00C003C0041237FFD004D003D0028A8D
:08267B00828B838CF00237FF13
:0A268300C010858110C082C083C022
:0C268D00F00581E5102404F87600C0E0A0
:0C269900C0A8C2AFA81008742826FEE4F8
:0D26A5000836FF0886058E828F838DF012A7
:0E26B2005479FA1A8E828F838DF0EA124F024D
:0E26C000C3747F8AF063F08095F050498E82DB
:0C26CE008F838DF074FF124F02A81008DB
:0E26DA00741826FAE40836FB0886048A828B00
:0C26E800838CF01254796025A81008744F
:0E26F4001826FAE40836FB0886048A828B83D7
:0C2702008CF0121404AA82BA00028007B6
:07270E00E5102404F8760138
:0E271500D0E053E080E5E042A8D0E0C0E0C094
:0C272300A8C2AFA81008742726FAE4082A
:0E272F0036FB0886048A828B838CF012547964
:0E273D00FD1D8A828B838CF0ED124F02C37457
:0E274B007F8DF063F08095F050498A828B8379
:0C2759008CF074FF124F02A81008740CE2
:0E27650026FAE40836FB0886048A828B838CF1
:0C277300F01254796025A81008740C26A0
:0E277F00FAE40836FB0886048A828B838CF00D
:0A278D00121404AA82BA00028007A9
:07279700E5102404F87601AF
:0C279E00D0E053E080E5E042A8D0E0E588
:0A27AA00102404F88682851081D007
:0227B4001022F1
:0E27B600AA82AB83ACF0C0E0C0A8C2AF74240E
:0E27C4002AFAE43BFB8A828B838CF012547954
:0627D200FAE4BA00010464
:0E27D800FAD0E053E080E5E042A8D0E08A822B
:0127E60022D0
:0E27E700AA82AB83ACF0C0E0C0A8C2AF7424DD
:0E27F5002AFDE43BFE8C078D828E838FF0124E
:0E2803005479FD74252AFAE43BFB8A828B830C
:0E2811008CF0125479FAEDB5020474018001C6
:01281F00E4D4
:0E282000FDD0E053E080E5E042A8D0E08D82DC
:01282E002287
:0A282F00C010858110C082C083C074
:0C283900F0058105810581A810087401DC
:0C28450026FDE40836FE088607A81008EF
:0C285100E5102404F9740426F7E40836AE
:0D285D0009F70809E6F78D828E838FF0E5FC
:0C286A00102404F8E6124F02A308E61246
:092876004F02A308E6124F02E52F
:0C287F00102404F886820886830886F086
:0C288B0074FF124F02A374FF124F02E50D
:0C289700102404F8740226FBE40836FC50
:0C28A3000886058B828C838DF0E51024E4
:0E28AF0004F8E6124F02A308E6124F02A30837
:0C28BD00E6124F02E5102404F874052612
:0E28C900FBE40836FC0886058B828C838DF0BC
:0C28D700E5102404F8E6124F02A308E606
:0A28E300124F02A308E6124F02A8EC
:0C28ED00100886820886830886F0E4123A
:0628F9004F02851081D0A2
:0228FF001022A5
:0E290100AA82AB83ACF0740B2AFAE43BFB8A8B
:0E290F00828B838CF0E4124F02A3E4124F027D
:05291D00A3E4024F02DB
:0A292200C010858110C082C083C080
:0B292C00F0E581240CF581A81008E5FF
:0C293700102407F9740126F7E4083609A3
:0C294300F70809E6F7E5102407F8868283
:0E294F000886830886F0125479FAA312547990
:0C295D00FBA3125479FCE5102404F8A63A
:0C2969000208A60308A604E51024FBF8F1
:0C2975008602088603088604E510240A88
:0D298100F874022AF6E43B08F608A604E507
:0C298E00102404F8860508860608860759
:0E299A0074022DFDE43EFE8D828E838FF012BE
:0A29A8005479FDA3125479FEA31226
:0C29B2005479FFE510240AF8868208869C
:0E29BE00830886F0ED124F02A3EE124F02A323
:0C29CC00EF124F02E510240AF874052AEF
:0C29D800F6E43B08F608A604E51024070E
:0E29E400F886820886830886F0125479FDA3D7
:0A29F200125479FEA3125479FFE598
:0C29FC0010240AF886820886830886F002
:0C2A0800ED124F02A3EE124F02A3EF12DA
:0C2A14004F02E5102404F8860508860631
:0E2A200008860774022DFDE43EFE8D828E8333
:0D2A2E008FF0125479FDA3125479FEA3120B
:0E2A3B005479FF74052DFDE43EFE8D828E83DE
:0E2A49008FF0EA124F02A3EB124F02A3EC1221
:0C2A57004F02E5102404F88605088606EE
:0E2A630008860774022DFDE43EFE8D828E83F0
:0E2A71008FF0EA124F02A3EB124F02A3EC12F9
:0C2A7F004F02E5102407F88682088683C9
:0E2A8B000886F0EA124F02A3EB124F02A3ECF2
:0E2A9900124F02740B2AFAE43BFB8A828B83F5
:0C2AA7008CF0A81008E6124F02A308E60D
:0A2AB300124F02A308E6124F02A81A
:0B2ABD00100886820886830886F0124D
:0C2AC8005479FA0AA81008868208868358
:0B2AD4000886F0EA124F02851081D046
:022ADF001022C3
:0A2AE100C010858110C082C083C0C0
:0C2AEB00F0E5812409F581E51024FBF8DA
:0E2AF70086050886060886078D828E838FF07E
:0E2B0500125479FAA3125479FBBAFF05BBFFF4
:032B13000280033A
:032B1600022BBFD0
:0A2B1900A81008E5102404F9740464
:0B2B230026F7E4083609F70809E6F77A
:0C2B2E00C005C006C007E5102404F886AE
:0E2B3A000408860508860674022CFCE43DFDA6
:0E2B48008C828D838EF0125479FCA312547986
:0D2B5600FDA3125479FE8C828D838EF01247
:0E2B63005479FCA3125479FDC3EC9AED9BD07B
:0A2B710007D006D0054003022C62D5
:0C2B7B00C005C006C007E5102404F88661
:0E2B87000408860508860674022CFCE43DFD59
:0E2B95008C828D838EF0125479FCA312547939
:0C2BA300FDA3125479FEE5102404F8A6EE
:0E2BAF000408A60508A606D007D006D0050229
:022BBD002B2EBD
:0A2BBF00A81008E5102404F97404BE
:0B2BC90026F7E4083609F70809E6F7D4
:0C2BD400C005C006C007E5102404F88608
:0E2BE0000408860508860674022CFCE43DFD00
:0E2BEE008C828D838EF0125479FCA3125479E0
:0D2BFC00FDA3125479FE8C828D838EF012A1
:0E2C09005479FCA3125479FDC3EA9CEB9DD0D4
:0E2C170007D006D0054044C005C006C007E542
:0C2C2500102404F88604088605088606C2
:0E2C310074022CFCE43DFD8C828D838EF0122B
:0A2C3F005479FCA3125479FDA3128E
:0C2C49005479FEE5102404F8A60408A647
:0D2C55000508A606D007D006D005022BD436
:0C2C6200E5102407F874022DF6E43E088B
:0C2C6E00F608A607E5102404F88602080A
:0E2C7A00860308860474022AFAE43BFB8A8271
:0E2C88008B838CF0125479FAA3125479FBA3BB
:0C2C9600125479FCE5102407F88682082F
:0E2CA20086830886F0EA124F02A3EB124F025F
:0C2CB000A3EC124F02E5102407F8868206
:0E2CBC000886830886F0125479FAA312547920
:0E2CCA00FBA3125479FC74052AFAE43BFB8A42
:0E2CD800828B838CF0ED124F02A3EE124F029E
:0E2CE600A3EF124F0274052DFAE43EFB8F049B
:0C2CF4008A828B838CF0E5102404F8E643
:0D2D0000124F02A308E6124F02A308E612CC
:0C2D0D004F02E5102404F886020886033B
:0E2D190008860474022AFAE43BFB8A828B834C
:0E2D27008CF0ED124F02A3EE124F02A3EF123A
:0E2D35004F02740B2DFDE43EFE8D828E838FC7
:0C2D4300F0A81008E6124F02A308E612E8
:092D4F004F02A308E6124F02A88E
:0B2D5800100886820886830886F012AF
:0C2D63005479FA0AA810088682088683BA
:0B2D6F000886F0EA124F02851081D0A8
:022D7A00102225
:0A2D7C00C010858110C082C083C022
:0C2D8600F0E581240CF581A8100874020F
:0E2D920026FDE40836FE0886078D828E838FAC
:0C2DA000F0125479FAA3125479FBA3122C
:0C2DAC005479FCE510240AF874052AF69E
:0B2DB800E43B08F608A604A81008E59C
:0C2DC300102407F9740526F7E40836090F
:0C2DCF00F70809E6F7E5102407F88682F3
:0E2DDB000886830886F0125479FAA312547900
:0C2DE900FBA3125479FCE510240AF886C4
:0E2DF500820886830886F0EA124F02A3EB12D2
:082E03004F02A3EC124F02E59F
:0C2E0B00102407F886820886830886F0F1
:0B2E1700125479FAA3125479FBA312A5
:0E2E22005479FC74022AFAE43BFB8D828E8305
:0D2E30008FF0125479FDA3125479FEA31205
:0E2E3D005479FF8A828B838CF0ED124F02A332
:0A2E4B00EE124F02A3EF124F02A88F
:0C2E55001008740B26FAE40836FB08860F
:0D2E6100048A828B838CF0125479FDA31239
:092E6E005479FEA3125479FFE52A
:0C2E7700102404F8A60508A60608A6070B
:0A2E8300E5102404F8E510240AF914
:0E2E8D00740126F7E4083609F70809E6F7E5B0
:0C2E9B0010240AF886820886830886F05E
:0B2EA700125479FDA3125479FEA3120F
:0C2EB2005479FFA81008E6B5050C08E6EE
:0A2EBE00B5060708E6B5070280021A
:022EC800803652
:0C2ECA00E5102407F8868208868308863D
:0C2ED600F0125479FDA3125479FEA312EF
:0C2EE2005479FFE510240AF88682088667
:0E2EEE00830886F0ED124F02A3EE124F02A3EE
:042EFC00EF124F0280
:0D2F00008A828B838CF0E4124F02A3E4124E
:082F0D004F02A3E4124F02E59C
:0C2F1500102404F886820886830886F0E9
:0C2F2100125479FA1AE5102404F8868294
:0C2F2D000886830886F0EA124F02851027
:042F390081D0102211
:0A2F3D00C010858110C082C083C05F
:0B2F4700F0058105810581A81008E558
:0C2F5200102404F9E6F70809E6F7080966
:0B2F5E00E6F7A8100806B600020806FF
:0C2F6900E51024FCF886050886067F00B1
:0C2F75007A008D03A8100886820886836D
:0E2F81000886F0EB124F02A31818A68208A6CD
:0C2F8F00838E058F068A078D03A81008AA
:0E2F9B0086820886830886F0EB124F02A31888
:0C2FA90018A68208A683A81008868208DB
:0E2FB50086830886F074AA124F02A31818A68D
:0C2FC3008208A683A81008868208868376
:0E2FCF000886F07480124F02A31818A682081C
:0C2FDD00A683E51024F9F8860508860696
:0C2FE9000886077A008D03A81008868275
:0E2FF5000886830886F0EB124F02A31818A678
:0E3003008208A6838E058F068A077A008D0349
:0C301100A8100886820886830886F0EB71
:0E301D00124F02A31818A68208A6838E058FF4
:0C302B00068A07A8100886820886830821
:0E30370086F0ED124F02A31818A68208A68399
:0C304500A8100886820886830886F074B4
:0D30510002124F02A31818A68208A683A839
:0C305E00100886820886830886F0740340
:0C306A00124F02A31818A68208A683A823
:0C307600100886820886830886F0740427
:0C308200124F02A31818A68208A683A80B
:0C308E00100886820886830886F074050E
:0C309A00124F02A31818A68208A683A8F3
:0C30A600100886820886830886F07406F5
:0C30B200124F02A31818A68208A683A8DB
:0C30BE00100886820886830886F07407DC
:0C30CA00124F02A31818A68208A683A8C3
:0C30D600100886820886830886F0E41249
:0C30E2004F02A31818A68208A683A810AD
:0E30EE000886820886830886F07401124F025D
:0C30FC00A31818A68208A683A810088656
:0E310800820886830886F0E4124F02A318188E
:0C311600A68208A683A8100886820886FE
:0E312200830886F074BB124F02A31818A68211
:0C31300008A683A8100886820886830881
:0B313C0086F07401124F02A81008E595
:0C314700102404F9E6C397FA08E6099783
:0C315300E5102404F886820886830886B4
:0C315F00F0EA124F02E5102404F886820A
:0A316B000886830886F0851081D0E5
:02317500102226
:0E31770012342490F462E0FAA3E0FBA3E0FC23
:0C3185008A828B838CF0125479F50DA324
:06319100125479F50E75E1
:063197000F21850D828569
:05319D000E83E0F508BF
:0731A200050DE4B50D020567
:0131A9000E17
:0531AA00050FA80F85D0
:0931AF000D82850E83E0FAF6158D
:0631B80008E50870E58542
:0A31BE000F81D09FD010D0D0D001B7
:0E31C800D000D007D006D005D004D003D0022E
:0E31D600D0F0D083D082D0E020E705C2AF0257
:0231E40031E8D0
:0231E600D2AF66
:0631E800D0E07582012217
:0131EE0022BE
:0E31EF00C0E0C0A8C2AFC082C083C0F0C00262
:0E31FD00C003C004C005C006C007C000C0016A
:0C320B00C0D075D000C010C09F90F462CD
:0E321700E0FAA3E0FBA3E0FC8A828B838CF03C
:07322500125479F50DA3120C
:05322C005479F50E7558
:093231000F22E58124DFF5088578
:06323A000D82850E83F0F9
:08324000E5086019050DE4B575
:043248000D02050E60
:07324C00850D82850E83A8A9
:073253000FE6FAF0050F156C
:03325A000880E306
:0E325D001211A290F462E0FAA3E0FBA3E0FCE1
:0C326B008A828B838CF0125479F50DA33D
:06327700125479F50E75FA
:06327D000F21850D828582
:053283000E83E0F508D8
:07328800050DE4B50D020580
:01328F000E30
:05329000050FA80F85E9
:093295000D82850E83E0FAF615A6
:06329E0008E50870E5855B
:0A32A4000F81D09FD010D0D0D001D0
:0E32AE00D000D007D006D005D004D003D00247
:0E32BC00D0F0D083D082D0E020E705C2AF0270
:0232CA0032CE02
:0232CC00D2AF7F
:0232CE00D0E04E
:0E32D000C2AFC0E0C0A8C2AFC082C083C0F0D1
:0E32DE00C002C003C004C005C006C007C00087
:0C32EC00C001C0D075D000C010C09F9081
:0E32F800F462E0FAA3E0FBA3E0FC8A828B8381
:093306008CF0125479F50DA312AC
:05330F005479F50E7574
:093314000F22E58124DFF5088594
:06331D000D82850E83F015
:08332300E5086019050DE4B591
:04332B000D02050E7C
:07332F00850D82850E83A8C5
:073336000FE6FAF0050F1588
:03333D000880E322
:07334000859509750A00756F
:0A3347000B00750C00AA967B007CB9
:0B335100008C058B048A03E42509F5BD
:05335C0009EB350AF544
:053361000AEC350BF53C
:053366000BED350CF534
:0C336B000CAA977B008B058A04E4FB256C
:0533770009F509EB352A
:05337C000AF50AEC3522
:053381000BF50BED351A
:063386000CF50C74472554
:06338C0009F5097401358A
:053392000AF50AE43514
:053397000BF50BE4350D
:04339C000CF50C859B
:0633A0000B97850A9685DB
:0633A6000995120FAC12A4
:0E33AC0011A253C07F90F462E0FAA3E0FBA3ED
:0C33BA00E0FC8A828B838CF0125479F5C1
:0633C6000DA3125479F57D
:0533CC000E750F2185C4
:0733D1000D82850E83E0F57B
:0133D80008EC
:0733D900050DE4B50D02052E
:0133E0000EDE
:0533E100050FA80F8597
:0933E6000D82850E83E0FAF61554
:0633EF0008E50870E58509
:0A33F5000F81D09FD010D0D0D0017E
:0E33FF00D000D007D006D005D004D003D002F5
:0E340D00D0F0D083D082D0E020E705C2AF021D
:02341B00341F5C
:02341D00D2AF2C
:05341F00D0E0D2AF3245
:0A34240075C6B8859509750A007594
:0A342E000B00750C00AA967B007CD1
:0B343800008C058B048A03E42509F5D5
:0534430009EB350AF55C
:053448000AEC350BF554
:05344D000BED350CF54C
:0C3452000CAA977B008B058A04E4FB2584
:05345E0009F509EB3542
:053463000AF50AEC353A
:053468000BF50BED3532
:06346D000CF50C7447256C
:0634730009F509740135A2
:053479000AF50AE4352C
:05347E000BF50BE43525
:043483000CF50C85B3
:063487000B97850A9685F3
:06348D00099543A820226E
:0500E90090EECBE4F0F5
:0A349300C010858110C082C083E5DF
:0C349D0081241AF581E5102411F8E4F6F2
:0E34A90008F608F6120D6F90EECBE0FF704AA9
:0834B70090EEC17415F0A3743E
:0C34BF00E1F0A3E4F090EEC4F0A3F09064
:0E34CB00EEC974ACF0A3740DF090EEC6E4F000
:0D34D900A3F0A3F090E11875F00074AC12A0
:0934E6004F02A3740D124F029075
:0734EF00E11574C6F0A3749F
:0B34F600EEF0A3E4F090EECB7401F0C8
:0C350100A81008E608466014906AE3E495
:0C350D0093FF740193FCA81008EF26F651
:04351900EC0836F68E
:0B351D00A81008E6084670030237E91A
:0C352800A81008C3E694AC08E6940D401F
:04353400030237E96E
:09353800E5102406F876C10876BE
:0C354100EE08760090EEC1E0FAA3E0FB7B
:0C354D00A3E0FFA810080808A60208A6CA
:043559000308A607B6
:0C355D00A810080808740326FCE40836D7
:0E356900FD0886068C828D838EF0125479FC4C
:0C357700A3125479FDA81008C3EC96EDD7
:0C35830008965047A81008080886820827
:0E358F0086830886F0125479FCA3125479FB4F
:0C359D00A3125479FAEC4B4A6027A810E6
:0C35A900080808E5102406F9E6F70809F8
:0C35B500E6F70809E6F78B058A06A81067
:0D35C100080808A60408A60508A606808FC5
:0A35CE00A810080808E6B4C60D08AE
:0C35D800E6B4EE0808E6B400030237E990
:0C35E400E5102406F8868208868308861D
:0C35F000F0125479FAA3125479FBA312D4
:0735FC005479FC906AE3E53D
:0C360300102414F8E493F674019308F608
:0C360F00E5102414F8E62AFA08E63BFB5C
:0C361B00E5102411F8A60208A60308A67A
:0C36270004A810080808868208868308A2
:0D36330086F0125479FFA3125479FCA31203
:0C3640005479FDE5102406F88682088607
:0E364C00830886F0EF124F02A3EC124F02A388
:0C365A00ED124F02A810080808740326A7
:0E366600FCE40836FD0886068C828D838EF00B
:0B367400E510240EF8125479F6A312A2
:0A367F00547908F6E510240EF8A9AE
:0C3689001009E6C397C0E008E60997C0EE
:0C369500E0E5102417F8D0E0F618D0E0B3
:0C36A100F6E5102414F8860308E6CB259B
:0C36AD00E0CB33FAE5102416F8C3EB96CE
:0836B900EA089640030237E91C
:0A36C100A810080808A91009E72660
:0C36CB00FA09E70836FB088607E5102422
:0C36D70009F8A60208A60308A607E510E3
:0C36E3002409F8E5102418F9740326F7F8
:0C36EF00E4083609F70809E6F7E51024A6
:0C36FB000EF8A91009E6C397FA08E609CA
:0C37070097FBE5102418F88682088683E2
:0E3713000886F0EA124F02A3EB124F028C82DE
:0C3721008D838EF0A81008E6124F02A362
:0C372D0008E6124F02E510240CF8A6027A
:0937390008A6037CC17DEE7E00B0
:0C3742008C828D838EF0E5102418F812A4
:0B374E005479F6A312547908F6A31278
:0C375900547908F6C004C005C006E51055
:0E3765002418F8740326FCE40836FD088606D6
:0E3773008C828D838EF0125479FCA31254794F
:0C378100FDE510240CF8C3EC96ED089652
:0C378D00E433D006D005D0046015E51030
:0E3799002418F886020886030886078A048B27
:0537A700058F0680966D
:0C37AC00E5102409F88682088683088650
:0C37B800F0E5102418F9E7124F02A309F5
:0E37C400E7124F02A309E7124F028C828D8399
:0C37D2008EF0E5102409F8E6124F02A367
:0B37DE0008E6124F02A308E6124F029B
:0C37E900120D88E5102411F88682088675
:0A37F500830886F0851081D01022B1
:0A37FF00C010E581F5102408F581E3
:0E380900AA82AB83ACF0EA4B4C700302390E7E
:0E381700906AE3E493FD740193FEEAC39DFA08
:0C382500EB9EFBA81008A60208A60308F2
:0E383100A604C002C003C004120D6FD004D064
:0E383F0003D00274032AFAE43BFB8A828B83D7
:0C384D008CF0125479FAA3125479FBE5B8
:0A385900102404F8A60208A6037C60
:05386300C17DEE7E00B6
:0C3868008C828D838EF0E5102406F8128F
:0B3874005479F6A312547908F6A31251
:0C387F00547908F6C004C005C006E5102E
:0E388B002406F8740326FCE40836FD088606C1
:0E3899008C828D838EF0125479FCA312547928
:0C38A700FDE5102404F8C3EC96ED089633
:0C38B300E433D006D005D0046015E51009
:0E38BF002406F886020886030886078A048B12
:0538CD00058F06809646
:0C38D200A8100886820886830886F0E5AE
:0C38DE00102406F9E7124F02A309E712BC
:0E38EA004F02A309E7124F028C828D838EF0ED
:0B38F800A81008E6124F02A308E61219
:093903004F02A308E6124F021264
:02390C000D8824
:06390E00851081D010229B
:026AE3000500AC
:0E39140043C68053C6BE43FD30C291D292D24C
:0B3922009343FE0E123B43758201220E
:08392D00E582FA6003C2932257
:03393500D2932208
:08393800E582FA6003D291223E
:03394000C291220F
:08394300E582FA6003D2922232
:03394B00C2922203
:0A394E00C010858110AA82AB83AC83
:0E395800F0C2AF8A828B83E8C0E0EAC0E0E5EF
:0C396600C7C0E0E51024F9F8E6FA08E616
:0E397200F58408E64480F58508E61813E61390
:08398000030354304401F5C7B4
:0E398800759201E493A3759200F0A3DAF3D0D8
:0E399600E0F5C7D0E0FAD0E0F8D2AF8A828B1D
:0B39A400838CF0125479F584D01022BF
:0839AF00AA82AB837C007D00BD
:0E39B700C3EC9AED9B5008000CBC00F40D8090
:0139C500F110
:0139C60022DE
:0839C700AA82AB837C007D00A5
:0E39CF00C3EC9AED9B501D9003E8C002C003AC
:0E39DD00C004C0051239AFD005D004D003D00D
:0839EB00020CBC00DF0D80DCC2
:0139F30022B1
:0A39F400C010E581F5102404F581F0
:0E39FE00AA82AB83ACBD8C057C00AEBC7F0002
:0E3A0C00EE2CFCEF3DFD90F46FE0FEA3E0FF1A
:0E3A1A0090F46FEC2EF0ED3FA3F08595BC907C
:0C3A2800F46FE0FCA3E0FDA81008A60469
:0E3A340008A6050876000876007C007D00C01C
:0C3A420002C003C004C005A81008868262
:0E3A4E000886830886F008E6125516ACF0FDD7
:0E3A5C00E58124FCF5818C028D038A828B8328
:063A6A00851081D010223E
:026B5D00FACB71
:020000040001F9
:0E800000AA82AB83ACF0125479FDBD01028060
:01800E002B46
:05800F00BD0202800328
:03801400BD032386
:0C801700740DC0E0E4C0E07471C0E074BF
:0C802300F4C0E0E4C0E08A828B838CF0A3
:0B802F001252A1E58124FBF5818021A5
:0C803A00740DC0E0E4C0E0747EC0E0748F
:0C804600F4C0E0E4C0E08A828B838CF080
:098052001252A1E58124FBF58125
:04805B007582012207
:0E805F00AA82AB83ACF0125479FDBD01028001
:01806D0025ED
:05806E00BD02028003C9
:03807300BD031D2D
:0E807600740DC0E0E4C0E0C002C003C004907E
:0E808400F47175F0001252A1E58124FBF58124
:0180920022CB
:0E809300740DC0E0E4C0E0C002C003C0049061
:0E80A100F47E75F0001252A1E58124FBF581FA
:0180AF0022AE
:020000040000FA
:0D6B5F000000000000000000000000000029
:0D6B6C00000000000000000000000000001C
:0E3A7000AA8275CB0075CC008ACDD2BB75CB77
:053A7E00BE758200226C
:043A830075CB0022DD
:0E3A8700AA8275EB0075EC008AEDD2BC75EBDF
:053A9500BE7582002255
:043A9A0075EB0022A6
:083A9E00C2AF75E400D2AF32A3
:0B3AA600C2AF53C3DF75C300D2AF32C4
:0C3AB100C020C0E0C0F0C082C083C00292
:0E3ABD00C003C004C005C006C007C000C001A1
:0E3ACB00C0D075D000C2AF75D83875CB0012D0
:0E3AD9004435D2AFD0D0D001D000D007D006F7
:0E3AE700D005D004D003D002D083D082D0F01E
:053AF500D0E0D02032FA
:0C3AFA00C020C0E0C0F0C082C083C00249
:0E3B0600C003C004C005C006C007C000C00157
:0E3B1400C0D075D000C2AF75D80775EB001297
:0E3B22005B51D2AFD0D0D001D000D007D0067A
:0E3B3000D005D004D003D002D083D082D0F0D4
:053B3E00D0E0D02032B0
:0E3B43007420C0E0E4C0E0E4C0E090EECC7579
:0E3B5100F00012533F1581158115817A007B1B
:013B5F000065
:0E3B6000C3EA9404EB9400501E8A04EBCC25BB
:0B3B6E00E0CC33FDEC24ECF582ED34DC
:0C3B7900EEF583E4F0A3F00ABA00DC0BC8
:023B850080D9E5
:0A3B87007ACC7BEE8BD38AD2D2B841
:013B91002211
:073B9200C2AFC2C0D2AF3286
:053B9900AA82BAE00061
:073B9E00403DBAE20280087D
:053BA500BAE3028003F9
:033BAA00BAE52D4C
:0E3BAD0090DF53E0FBA3E08AE1900001C0032B
:0E3BBB001239AFD00390DF53E0FCA3E0FD7E93
:0A3BC90000EBB50405EEB50501227E
:073BD30075E1E675E1E62251
:033BDA008AE1225B
:0C3BDD00BADE1053E9FD75E1DF75E1FE72
:073BE900E5E920E10480F989
:023BF0008AE168
:013BF20022B0
:053BF300AA82BA0B00DC
:073BF8004005EA24E550043A
:043BFF007582FF22AA
:0E3C03007582FFC002123B997582E5123B9953
:0E3C1100D0028A037C00EB24F5FBEC34FFFCB0
:0E3C1F00C002C003C0049000051250B5AD8273
:0E3C2D00AE83158115818D038E0474652BFB0B
:0E3C3B0074013CFC4304408C057E0090DF10B9
:0E3C4900EDF0A3EEF090DF11EBF0A3E4F075C8
:0E3C570082E2123B99D00275E1E675E1E68A41
:023C65008222B9
:0B3C6700E582FA249B50047582FF22C6
:0E3C7200EA75F01FA4FBACF0C0027464C0E061
:0E3C8000E4C0E08B828C83124EB0AD82AE8326
:0E3C8E0015811581D0028D038E0474602BFB0E
:0E3C9C0074A13CFC8C057E0090DF0AEDF0A3C5
:0E3CAA00EEF090DF0BEBF0A3E4F090EEF4EA06
:043CB800F08A8222EA
:0E3CBC0090EEF5E0FA20E73E90DF4F747FF0C7
:0D3CCA00E4A3F090DF0674D2F0E4A3F090C4
:0E3CD700EEF574804AF090DF17E0FAA3E0FBF0
:0A3CE50090DF1774F75AF0A3EBF01C
:083CEF00E5E930E7FB53BEFBE1
:0B3CF700E5BE30E6FB7582E2123B994F
:0A3D020075E1E675E1E67582012225
:0D3D0C007582FF123B997582E5123B99907C
:0E3D1900DF17E0FAA3E0FB90DF1774084AF012
:0C3D2700A3EBF090EEF5E4F075820122B1
:073D330075D68175820122A3
:0B3D3A0090F48BE0FA60047582012217
:0E3D450090DF17E0FAA3E0FB90DF1774F75A47
:043D5300F0A3EBF0FE
:0E3D570090DF17E0FAA3E05302107B00BA01E0
:063D650005BB000280EC2A
:083D6B00E5E930E7FB53BEFB64
:0E3D7300E5BE30E6FB90EEF5E4F090EEF8F0E1
:0E3D810090DF547401F0E4A3F090DF027402AE
:0E3D8F00F0E4A3F090DF0374E2F0E4A3F09000
:0E3D9D00DF047430F0E4A3F090DF05E4F0A33F
:0E3DAB00F090DF0C7432F0E4A3F090DF0D74A2
:0E3DB900F5F0E4A3F090DF60E0FAA3E08A03E7
:0E3DC7007A0090DF61E0FCA3E0FD90EEF6ECE8
:0E3DD5002AF0ED3BA3F0758212123BF37582CB
:0E3DE30064123C677582E7123B997582E61206
:0E3DF1003B9975912053E9DF539BFC439A01E7
:0E3DFF00C284C28490F48B7401F0758201229C
:0A3E0D00C0108581100581058105B4
:0E3E170081AA82AB83ACF0125479FDBD01028A
:023E2500805AC1
:063E2700BD0203023F078B
:063E2D00BD0303023EC1CB
:053E3300BD0402800344
:033E3800023F390D
:0E3E3B0074012AFDE43BFE8C07C002C003C0E8
:0E3E49000474082DFAE43EFB8F048A828B83FA
:0E3E57008CF012547990DF4BF0A3E4F0740964
:0E3E65002DFDE43EFE8D828E838FF012547987
:0E3E7300FD90DF4CF0A3E4F0D004D003D002A9
:0C3E8100A8100874012AF6E43B08F608BB
:083E8D00A6047A437BDF7C00F0
:033E9500BC080066
:053E98004003023F3968
:0C3E9D00A81008EC26FEE40836FF08869A
:0E3EA900058E828F838DF0125479FE8A828BF3
:0A3EB70083F0A3AA82AB830C80D431
:0E3EC10074012AFDE43BFE8C07C002C003C062
:0E3ECF000474022DFAE43EFB8F048A828B837A
:0E3EDD008CF012547990DF4BF0A3E4F07403E4
:0E3EEB002DFDE43EFE8D828E838FF012547901
:0E3EF900FD90DF4CF0A3E4F0D004D003D00223
:053F07000ABA00010BE5
:0D3F0C008A058B068C078D828E838FF01244
:0E3F19005479FD90DF4DF0A3E4F00ABA0001E8
:013F27000B8E
:0E3F28008A828B838CF0125479FA90DF4EF06F
:033F3600A3E4F011
:063F3900851081D010226A
:0C3F3F00AA8290EEF8E4F0BA0102803B88
:053F4B00BA0202800A29
:053F5000BA0302800B22
:053F5500BA057A80525C
:063F5A0090EEF87401F086
:0E3F600090DF02E0FAA3E0FB90DF0274104A4B
:0D3F6E00F0A3EBF090DF03E0FAA3E0FB907E
:0B3F7B00DF0374EF5AF0A3EBF080703E
:0E3F860090DF02E0FAA3E0FB90DF0274184A1D
:0D3F9400F0A3EBF090DF03E0FAA3E0FB9058
:0B3FA100DF0374104AF0A3EBF0804A2D
:0E3FAC0090DF02E0FAA3E0FB90DF0274084A07
:0D3FBA00F0A3EBF090DF03E0FAA3E0FB9032
:0B3FC700DF0374EF5AF0A3EBF080243E
:0E3FD20090DF02E0FAA3E0FB90DF0274E75AF2
:0D3FE000F0A3EBF090DF03E0FAA3E0FB900C
:093FED00DF0374EF5AF0A3EBF0BE
:043FF60075820122AD
:0E3FFA009000801239AF90DF07E0FAA3E0EAF2
:0540080024D3F5822223
:0A400D00C0108581107A017582E26F
:0E401700C002123B999000101239AF900010B9
:0D4025001239AF9000101239AF9000101248
:0C40320039AFD002A810181818B6000210
:02403E00804DB3
:0C404000A810181818B6015390DF62E0B9
:0C404C00FBA3E0FCEB30E0357B017C00C6
:05405800BB0002803EE8
:07405D00EC24FE50027B0081
:0E4064009000FAC002C003C0041239AFD004AD
:0E407200D003D00290DF62E0FDA3E0FEED205F
:06408000E0047B007A0061
:034086000C80CFDC
:044089007A00800E2B
:0E408D0090DF62E0FBA3E0FCEB20E0027A0093
:05409B008A82D0102212
:0B40A000E582FA60067582E9023B9998
:0640AB007582E8023B995A
:0A40B100C010858110C082C083C0DA
:0C40BB00F0E581240CF581E5102404F8E8
:0C40C7007601A81008742226FEE40836DA
:0E40D300FF0886058E828F838DF0125479FED1
:0940E100A3125479FFA81008E5B0
:0C40EA0010240AF9742026F7E4083609B7
:0C40F600F70809E6F7E510240AF88682B6
:0E4102000886830886F0125479FDA3125479C2
:0C411000FAEEC39DFEEF9AFFE5102405B7
:0E411C00F8A60608A60790EEF5E0FC30E606D1
:06412A00758200024267ED
:07413000EC20E703123CBC88
:0C413700E5102405F8C37480967480081D
:0D41430086F063F08095F0E433FC60030229
:02415000424EDD
:0C415200C004A81008742C26FDE40836F8
:0C415E00FE088607E510240AF886820897
:0E416A0086830886F0125479FCA3125479FA69
:0C417800EC2DFDEA3EFEE5102407F8A641
:0D4184000508A60608A6077582E7C004120C
:0C4191003B99D004E5102405F886027468
:0C419D00022AF5D9D004E5102407F886AA
:0941A900020886030886057E0069
:0C41B200C0048E077C00E5102405F8C353
:0E41BE00EF96EC64800886F063F08095F0E4E4
:0E41CC0033D00460138A828B838DF0125479F5
:0A41DA00F5D9A3AA82AB830E80CEB4
:0E41E40075D90075D900C004E4C0E0758200F2
:0E41F20012400DAA821581D004EA7004F582F5
:024200008065D7
:0E42020053E9BF7582E3C004123B99D0047AE1
:0142100000AD
:0E42110090DF62E0FBA3E0FDEB20E4188A03DF
:04421F000ABB0300D3
:0E422300501090000AC002C0041239AFD0043F
:04423100D00280DC5B
:0D42350090DF62E0FAA3E0FBEA20E409E577
:08424200102404F8760080044A
:04424A00C284D284D4
:0C424E00E5102404F8B6010AEC6007E556
:06425A00102404F87600B8
:07426000E5102404F886823A
:06426700851081D0102239
:0A426D00C010858110C082C083C01C
:0C427700F0058105810581A810088682F1
:0C4283000886830886F0125BA5A81008CE
:0E428F0086820886830886F012547960030246
:02429D00442BB0
:0E429F007408C0E074F8C0E074FFC0E0740161
:0E42AD00C0E0E4C0E090EEFE75F00012394E65
:0C42BB00E58124FBF581A81008740126A1
:0A42C700FDE40836FE0886077A00C1
:0342D100BA080028
:0C42D40050337407C39AA81008080808AB
:0C42E0002DF6E43E08F608A607EA24FECE
:0A42EC00F582E434EEF583E0FCE512
:0C42F600102404F886820886830886F0F5
:07430200EC124F020A80C813
:0C430900A8100886820886830886F074DD
:0C43150004124F02A81008740126FDE4F9
:0E4321000836FE0886077401C0E08D828E8388
:0E432F008FF0125BF9AD821581BD0102800393
:03433D000243E94F
:07434000906AE51247ABA8EB
:0C4347001008740126FDE40836FE08860C
:0E435300078D028E038F048A828B838CF0E428
:0E436100124F0274012DFAE43EFB8F048A8293
:0E436F008B838CF0E4124F0274022DFAE43EB0
:0E437D00FB8F048A828B838CF0E4124F027453
:0E438B00032DFAE43EFB8F048A828B838CF0B4
:0E439900E4124F0274042DFAE43EFB8F048AF6
:0E43A700828B838CF0E4124F0274052DFAE431
:0E43B5003EFB8F048A828B838CF0E4124F0251
:0E43C30074062DFAE43EFB8F048A828B838CF5
:0E43D100F07444124F0274072DFDE43EFE8D81
:0A43DF00828E838FF07444124F02A7
:0C43E900A81008740126FDE40836FE0848
:0E43F500860774082DFAE43EFB8F048A828B43
:0E440300838CF074FF124F0274092DFDE43E0D
:0D441100FE8D828E838FF074FF124F02A883
:0B441E00100886820886830886F012D2
:024429005C4DE8
:09442B00758201851081D0102278
:014434002265
:0844350090EEF5E054BFF02207
:0C443D00C020C0E0C0F0C082C083C002FC
:0E444900C003C004C005C006C007C000C0010B
:0A445700C0D075D000C010E581F55B
:0C446100102407F581C2AFD284E5E930D9
:0E446D00E61490EEF5E0FA30E50790EEF574F7
:03447B00206AF0C4
:05447E00C28453E9BFF8
:08448300E5E920E50302471AF8
:0E448B00C28490DF62E0FAA3E0FBEA20E303C4
:0344990002470BCC
:0A449C00A81008A6D9A81008E654DD
:0B44A6007FF6A81008E624FB4003028C
:0244B10046FBC8
:0E44B30090EEF9E5D9F0E0FB53030790EF0718
:0E44C100EBF0BB022C90EEFAE5D9F090EEFB8A
:0E44CF00E5D9F090EEFCE5D9F090EEFDE5D9D0
:0944DD00F0E0FB20E703024707B1
:0A44E60090EEFBE0F582125CA102EB
:0244F00047077C
:0B44F200A8100808E4F608F608F6A879
:0A44FD00100816A81008E66015125A
:094507005CF5AE82BE0102800BDE
:0B451000A8100876007582E6123B99A7
:0C451B00A81008E66015125D49AE82AFE2
:0C45270083AAF0A8100808A60608A60742
:0345330008A602D5
:09453600A81008E670030246F328
:0C453F00A8100808E608460846700302B1
:02454B0046F335
:0C454D00A8100808742C26FAE40836FEBA
:0E45590008860790EEF9E0FB8A828E838FF0D1
:0E456700124F02A3AA82AE83EB5420600375AC
:02457500E1E87B
:07457700A8100816167B00D6
:0C457E00A81008C3EB9650138A828E83AD
:0E458A008FF0E5D9124F02A3AA82AE830B80F8
:01459800E53D
:0C459900A8100808742626FAE40836FB77
:0C45A500088604E5102405F874012AF6CD
:0D45B100E43B08F608A604E5D924D3FDE597
:0C45BE00102405F886820886830886F029
:0E45CA00ED124F0274022AFAE43BFB8A828B48
:0E45D800838CF0E5D9124F028A828B838CF01F
:0A45E600125479FA20E7030246C4DC
:0A45F000A8100806A8100808742699
:0E45FA0026FAE40836FB0886048A828B838C3E
:0C460800F0E4124F02A810080886820897
:0E46140086830886F0E4124F02A3E4124F02E0
:0C462200A3E4124F02A810080874202620
:0E462E00FAE40836FB0886048A828B838CF03F
:0A463C00E4124F02A3E4124F02A89B
:0C464600100808742226FAE40836FB086D
:0C4652008604A8100886057E008A828B72
:0D465E00838CF0ED124F02A3EE124F02A864
:0C466B00100808742626FAE40836FB0844
:0E467700860474022AFAE43BFB8A828B838C51
:0E468500F0125479FD53057F8A828B838CF0EE
:0C469300ED124F02A8100808741F26FA50
:0E469F00E40836FB0886048A828B838CF0E4E4
:0C46AD00124F02A81008088682088683BD
:0B46B9000886F0125D9D125DF1804349
:0C46C400A8100808742226FAE40836FB4F
:0E46D0000886048A828B838CF0E4124F02A3CA
:0C46DE00E4124F02A8100808868208862B
:0946EA00830886F0125E4580147D
:0846F3007582E6123B99800C70
:0C46FB007582E6123B997582E6123B992D
:04470700D284800CCC
:0C470B007582E6123B997582E6123B991C
:0347170053E9DF84
:0C471A00539BFC439120D2AF851081D04E
:0C47260010D0D0D001D000D007D006D0B9
:0E47320005D004D003D002D083D082D0F0D0C6
:04474000E0D0203273
:0C474400C020C0E0C0F0C082C083C002F2
:0E475000C003C004C005C006C007C000C00101
:0D475E00C0D075D000C2AFC2897582E512CF
:0C476B003B997582E6123B997582E612BC
:0E4777003B997582E2123B99C284C284D2AF94
:0E478500D0D0D001D000D007D006D005D0048F
:0D479300D003D002D083D082D0F0D0E0D08F
:0247A0002032C5
:0E6AE5004E6F206164647265737320696E20C9
:086AF300666C6173682E0A0055
:016B7900001B
:0347A200024C17AF
:0347A500024CBB08
:0347A800024D645B
:0847AB00AA82AB837C007D00B3
:0E47B3008A828B83E493FE60278E82C002C050
:0E47C10003C004C0051247A8AE82D005D00484
:0A47CF00D003D002BEFF038C82224B
:0547D9000ABA00010B0B
:0547DE000D8D0480D0E8
:0347E3008C8222A3
:0A47E600C0108581100581058105D2
:0A47F000817A477BEF7C008A828B00
:0C47FA00838CF0E4124F021ABAFF011B7E
:0A480600A810181818B6100280035D
:034810000248A5B6
:0C481300E51024FBF8740F56FD7E00ED4C
:0A481F0024FBF582EE346AF583E411
:0E48290093FD8A828B838CF0124F021ABAFF25
:02483700011B63
:0C483900E51024FBF808E618C4C6C454BF
:0D4845000F66C6540FC666C630E30244F08D
:0C48520008F6E51024FBF8740F56FD7EFC
:0A485E0000ED24FBF582EE346AF54C
:0E48680083E493FD8A828B838CF0124F021A38
:04487600BAFF011B69
:0C487A00E51024FBF808E618C4C6C4547E
:0D4886000F66C6540FC666C630E30244F04C
:0C48930008F6E51024FBF8E60846600378
:03489F00024813B9
:0348A20002497E4A
:0C48A5007F00E51024FBF808E630E70F68
:0C48B1007F01E51024FBF8C3E496F60834
:0348BD00E496F688
:0B48C000A81008A60208A60308A60422
:0C48CB00C007740AC0E0E4C0E0E510245F
:0E48D700FBF88682088683125495AD82AE836C
:0C48E50015811581D00774302DFDA8103E
:0E48F1000886820886830886F0ED124F02A822
:0848FF00100816B6FF020816AE
:0C490700C007740AC0E0E4C0E0E5102422
:0E491300FBF8868208868312577CAD82AE8345
:0C49210015811581D007E51024FBF8A6D5
:0C492D000508A606E51024FBF8E6084685
:0C4939007090EF6021A8100886820886AC
:0C494500830886F0742D124F02A81008A1
:0E495100E624FFFA08E634FFFB088604801F08
:0C495F00A8100886820886830886F07481
:0C496B0020124F02A81008E624FFFA08F2
:07497700E634FFFB08860493
:05497E000ABA00010B64
:0D4983008A828B838CF0C002C003C0041236
:0E4990005461AD82D004D003D002C002C00337
:0E499E00C004C0058A828B838CF01249BF15BD
:0E49AC0081D004D003D0028A828B838CF085E8
:0549BA001081D0102265
:0A49BF00C010858110C082C083C0C3
:0549C900F07D007E00FE
:0C49CE00A810181818C3EE965039C00548
:0C49DA00A81008EE26FFE40836FD088651
:0E49E600028F828D838AF0125479F582C0050B
:0E49F400C0061247A8AA82D006D005E4BAFF7A
:024A02000104AD
:084A0400D00560048D828007DB
:054A0C000E8E0580BDC7
:024A11008D8294
:064A1300851081D0102285
:0A4A1900C01085811005810581059C
:0E4A230081AA82AB83ACF074012AFDE43BFE55
:0E4A31008C078A828B838CF0125479FABA01BA
:044A3F0003024AD450
:064A4300BA0203024BABB6
:064A4900BA0303024B3426
:054A4F00BA0402800919
:064A5400BA0803024C0B3E
:034A5A00024C11FA
:0E4A5D0074082DFDE43EFE8D828E838FF012D4
:0E4A6B005479FAA3AD82AE837B00C005C0066D
:0E4A7900C007C002C0037410C0E075820212B4
:0E4A870047E6158115811581D007D006D005B0
:0E4A95008D828E838FF0125479FAA3AD82AE1B
:0E4AA300837B00C005C006C007C002C00374BC
:0E4AB10010C0E07582021247E61581158115CE
:0E4ABF0081906B0B1247ABD007D006D005EDEF
:074ACD0024F6FDEE34FFFEAC
:0C4AD40074082DFDE43EFEA81008A605A5
:084AE00008A60608A6077A00EB
:034AE800BA080009
:054AEB004003024C1124
:094AF000A8100816B6FF02081612
:0C4AF900A8100886820886830886F01248
:0E4B05005479FB7C00C002C003C0047410C0D1
:0E4B1300E07582021247E6158115811581D0EA
:044B210002BA0700CD
:0C4B2500500A906B0DC0021247ABD0028A
:034B31000A80B443
:0E4B340074022DFDE43EFE8D828E838FF01202
:0E4B42005479FAA3AD82AE837B00C005C00695
:0E4B5000C007C002C0037410C0E075820212DC
:0E4B5E0047E6158115811581D007D006D005D8
:0E4B6C008D828E838FF0125479FAA3AD82AE43
:0E4B7A00837B00C005C006C007C002C00374E4
:0E4B880010C0E07582021247E61581158115F6
:0E4B960081906B0B1247ABD007D006D005ED17
:074BA40024FCFDEE34FFFECE
:0D4BAB0074022DFDE43EFE7A028E048F039D
:054BB8001DBDFF011C02
:0E4BBD008D828C838BF0125479FE7F00C00233
:0E4BCB00C003C004C005C006C0077410C0E0DF
:0E4BD9007582021247E6158115811581D005FF
:0E4BE700D004D003D002EA147016906B0DC0FB
:0E4BF50002C003C004C0051247ABD005D004B7
:044C0300D003D00208
:044C0700DAAF80069A
:064C0B00906B0F1247AB95
:064C1100851081D0102285
:0E6AFB00303132333435363738394142434476
:026B09004546FF
:026B0B00200068
:026B0D003A004C
:0A6B0F0042726F61646361737400E9
:020000040001F9
:0E4C1700AA82AB83ACF0FD90F48DE0FEA3E02A
:0E4C2500FFA3E0F8EE4F487036C002C003C097
:0E4C330004C0057401C0E0758240121923AE62
:0E4C410082AF83A8F01581D005D004D003D037
:0D4C4F000290F48DEEF0A3EFF0A3E8F090DA
:084C5C00F490E4F090F491F0F3
:0E4C640043F10243F4C05390DF43FE6053FE61
:0E4C72006FBA000FBBC20CBC0109BD00067575
:054C8000FAD875FC0BE1
:0E4C8500BA000FBB960CBC0009BD000675FA04
:044C93003B75FC0A67
:0E4C9700BA800FBB250CBC0009BD000675FAE3
:044CA5003B75FC0857
:0E4CA90075FB0275F8C2D2AB439A0890F48CEA
:044CB7007401F02272
:0A4CBB00C010858110C082C083057F
:0B4CC50081E5102403FC7D007E409080
:0C4CD000F48DE0FFA3E0FAA3E0FBA810C5
:0E4CDC0008E6C0E008E6C0E0C004C005C0065F
:0E4CEA008F828A838BF0122100AA82E581243A
:0C4CF800FBF581BA010FA810080808861F
:094D0400027B008A828B8380038C
:034D0D0090FFFF15
:064D1000851081D0102285
:084D1600C0108581100581AA7F
:0C4D1E00100A7B007C4090F48DE0FDA3A7
:0E4D2A00E0FEA3E0FFE4C0E0C0E0C002C00372
:0E4D3800C0048D828E838FF0122100AA82E5C6
:0C4D46008124FBF581BA010DA81008863D
:094D5200027B008A828B8380033E
:034D5B0090FFFFC7
:064D5E00851081D0102237
:0E4D6400AA827B00C2AF90F48CE0FCBC010977
:094D720090F48CE4F08AF98053FE
:094D7B0090F491E0FC0CBC8000F6
:064D84004004EC2480FC59
:0D4D8A0090F490E0FDECB505047BFF803750
:0A4D9700EC2448F582E434EFF583C4
:0E4DA100EAF090F491ECF090F48CE0FCBC0190
:0E4DAF001E90F490ED04F090F490E0FCBC80B7
:014DBD0000F5
:094DBE004007EC248090F490F011
:074DC70090F48CE4F08AF97E
:054DCE00D2AF8B822230
:0C4DD300C020C0E0C0F0C082C083C0025D
